{"contracts/Investment.sol":{"Investment":{"abi":[{"inputs":[{"internalType":"address","name":"_nftAddress","type":"address"}],"stateMutability":"nonpayable","type":"constructor"},{"inputs":[],"name":"getBalance","outputs":[{"internalType":"uint256","name":"","type":"uint256"}],"stateMutability":"view","type":"function"},{"inputs":[{"internalType":"uint256","name":"_nftID","type":"uint256"},{"internalType":"uint256","name":"_numberOfTokensInvested","type":"uint256"}],"name":"invest","outputs":[],"stateMutability":"payable","type":"function"},{"inputs":[{"internalType":"uint256","name":"","type":"uint256"},{"internalType":"address","name":"","type":"address"}],"name":"investors","outputs":[{"internalType":"uint256","name":"","type":"uint256"}],"stateMutability":"view","type":"function"},{"inputs":[{"internalType":"uint256","name":"_nftID","type":"uint256"},{"internalType":"uint256","name":"_totalPrice","type":"uint256"},{"internalType":"uint256","name":"_sharedPersentage","type":"uint256"},{"internalType":"string","name":"_name","type":"string"},{"internalType":"string","name":"_symbol","type":"string"},{"internalType":"address","name":"_inspector","type":"address"}],"name":"list","outputs":[],"stateMutability":"payable","type":"function"},{"inputs":[],"name":"nftAddress","outputs":[{"internalType":"address","name":"","type":"address"}],"stateMutability":"view","type":"function"},{"inputs":[{"internalType":"uint256","name":"","type":"uint256"}],"name":"nftData","outputs":[{"internalType":"address payable","name":"owner","type":"address"},{"internalType":"address","name":"inspector","type":"address"},{"internalType":"bool","name":"inspectionPassed","type":"bool"},{"internalType":"uint256","name":"numberOfTotalTokens","type":"uint256"},{"internalType":"bool","name":"isListed","type":"bool"},{"internalType":"uint256","name":"totalPrice","type":"uint256"},{"internalType":"uint256","name":"tokenPrice","type":"uint256"},{"internalType":"uint256","name":"numberOfAvailableTokens","type":"uint256"},{"internalType":"contract Token","name":"tokenCollection","type":"address"}],"stateMutability":"view","type":"function"},{"inputs":[{"internalType":"uint256","name":"_nftID","type":"uint256"},{"internalType":"bool","name":"_passed","type":"bool"}],"name":"updateInspectionStatus","outputs":[],"stateMutability":"nonpayable","type":"function"},{"stateMutability":"payable","type":"receive"}],"evm":{"bytecode":{"linkReferences":{},"object":"60806040523480156200001157600080fd5b5060405162004e7138038062004e718339818101604052810190620000379190620000e8565b806000806101000a81548173ffffffffffffffffffffffffffffffffffffffff021916908373ffffffffffffffffffffffffffffffffffffffff160217905550506200011a565b600080fd5b600073ffffffffffffffffffffffffffffffffffffffff82169050919050565b6000620000b08262000083565b9050919050565b620000c281620000a3565b8114620000ce57600080fd5b50565b600081519050620000e281620000b7565b92915050565b6000602082840312156200010157620001006200007e565b5b60006200011184828501620000d1565b91505092915050565b614d47806200012a6000396000f3fe6080604052600436106200007f5760003560e01c80639d0e5fd611620000555780639d0e5fd61462000138578063bb86a3ab1462000166578063d87aa6431462000186578063e61dd2a614620001a65762000087565b806312065fe0146200008c5780635bf8633a14620000bc5780638c21097514620000ec5762000087565b366200008757005b600080fd5b3480156200009957600080fd5b50620000a4620001ea565b604051620000b3919062000a66565b60405180910390f35b348015620000c957600080fd5b50620000d4620001f2565b604051620000e3919062000ac8565b60405180910390f35b348015620000f957600080fd5b5062000118600480360381019062000112919062000b2a565b62000216565b6040516200012f9998979695949392919062000c09565b60405180910390f35b3480156200014557600080fd5b506200016460048036038101906200015e919062000cd9565b620002de565b005b6200018460048036038101906200017e919062000eb3565b620003b7565b005b620001a460048036038101906200019e919062000f8d565b620006f9565b005b348015620001b357600080fd5b50620001d26004803603810190620001cc919062000fd4565b62000a18565b604051620001e1919062000a66565b60405180910390f35b600047905090565b60008054906101000a900473ffffffffffffffffffffffffffffffffffffffff1681565b60016020528060005260406000206000915090508060000160009054906101000a900473ffffffffffffffffffffffffffffffffffffffff16908060010160009054906101000a900473ffffffffffffffffffffffffffffffffffffffff16908060010160149054906101000a900460ff16908060020154908060030160009054906101000a900460ff16908060040154908060050154908060060154908060070160009054906101000a900473ffffffffffffffffffffffffffffffffffffffff16905089565b6001600083815260200190815260200160002060010160009054906101000a900473ffffffffffffffffffffffffffffffffffffffff1673ffffffffffffffffffffffffffffffffffffffff163373ffffffffffffffffffffffffffffffffffffffff161462000385576040517f08c379a00000000000000000000000000000000000000000000000000000000081526004016200037c90620010a2565b60405180910390fd5b806001600084815260200190815260200160002060010160146101000a81548160ff0219169083151502179055505050565b604b8411158015620003ca575060148410155b6200040c576040517f08c379a0000000000000000000000000000000000000000000000000000000008152600401620004039062001160565b60405180910390fd5b6000851162000452576040517f08c379a00000000000000000000000000000000000000000000000000000000081526004016200044990620011f8565b60405180910390fd5b60008054906101000a900473ffffffffffffffffffffffffffffffffffffffff1673ffffffffffffffffffffffffffffffffffffffff166323b872dd3330896040518463ffffffff1660e01b8152600401620004b1939291906200121a565b600060405180830381600087803b158015620004cc57600080fd5b505af1158015620004e1573d6000803e3d6000fd5b50505050600180600088815260200190815260200160002060030160006101000a81548160ff021916908315150217905550806001600088815260200190815260200160002060010160006101000a81548173ffffffffffffffffffffffffffffffffffffffff021916908373ffffffffffffffffffffffffffffffffffffffff160217905550336001600088815260200190815260200160002060000160006101000a81548173ffffffffffffffffffffffffffffffffffffffff021916908373ffffffffffffffffffffffffffffffffffffffff160217905550846001600088815260200190815260200160002060040181905550606484620005e7919062001286565b6001600088815260200190815260200160002060020181905550600160008781526020019081526020016000206002015460016000888152602001908152602001600020600601819055506127108562000642919062001300565b6001600088815260200190815260200160002060050181905550600082846040516200066e9062000a3d565b6200067b929190620013b0565b604051809103906000f08015801562000698573d6000803e3d6000fd5b509050806001600089815260200190815260200160002060070160006101000a81548173ffffffffffffffffffffffffffffffffffffffff021916908373ffffffffffffffffffffffffffffffffffffffff16021790555050505050505050565b600115156001600084815260200190815260200160002060010160149054906101000a900460ff1615151462000766576040517f08c379a00000000000000000000000000000000000000000000000000000000081526004016200075d9062001487565b60405180910390fd5b6000811180156200078d575060016000838152602001908152602001600020600601548111155b620007cf576040517f08c379a0000000000000000000000000000000000000000000000000000000008152600401620007c69062001545565b60405180910390fd5b600160008381526020019081526020016000206005015481620007f3919062001286565b341462000837576040517f08c379a00000000000000000000000000000000000000000000000000000000081526004016200082e90620015dd565b60405180910390fd5b806002600084815260200190815260200160002060003373ffffffffffffffffffffffffffffffffffffffff1673ffffffffffffffffffffffffffffffffffffffff1681526020019081526020016000208190555080600160008481526020019081526020016000206006016000828254620008b49190620015ff565b925050819055506001600083815260200190815260200160002060070160009054906101000a900473ffffffffffffffffffffffffffffffffffffffff1673ffffffffffffffffffffffffffffffffffffffff166340c10f1933836040518363ffffffff1660e01b81526004016200092e9291906200163a565b600060405180830381600087803b1580156200094957600080fd5b505af11580156200095e573d6000803e3d6000fd5b5050505060006001600084815260200190815260200160002060000160009054906101000a900473ffffffffffffffffffffffffffffffffffffffff1673ffffffffffffffffffffffffffffffffffffffff1634604051620009c0906200169c565b60006040518083038185875af1925050503d8060008114620009ff576040519150601f19603f3d011682016040523d82523d6000602084013e62000a04565b606091505b505090508062000a1357600080fd5b505050565b6002602052816000526040600020602052806000526040600020600091509150505481565b61365e80620016b483390190565b6000819050919050565b62000a608162000a4b565b82525050565b600060208201905062000a7d600083018462000a55565b92915050565b600073ffffffffffffffffffffffffffffffffffffffff82169050919050565b600062000ab08262000a83565b9050919050565b62000ac28162000aa3565b82525050565b600060208201905062000adf600083018462000ab7565b92915050565b6000604051905090565b600080fd5b600080fd5b62000b048162000a4b565b811462000b1057600080fd5b50565b60008135905062000b248162000af9565b92915050565b60006020828403121562000b435762000b4262000aef565b5b600062000b538482850162000b13565b91505092915050565b600062000b698262000a83565b9050919050565b62000b7b8162000b5c565b82525050565b60008115159050919050565b62000b988162000b81565b82525050565b6000819050919050565b600062000bc962000bc362000bbd8462000a83565b62000b9e565b62000a83565b9050919050565b600062000bdd8262000ba8565b9050919050565b600062000bf18262000bd0565b9050919050565b62000c038162000be4565b82525050565b60006101208201905062000c21600083018c62000b70565b62000c30602083018b62000ab7565b62000c3f604083018a62000b8d565b62000c4e606083018962000a55565b62000c5d608083018862000b8d565b62000c6c60a083018762000a55565b62000c7b60c083018662000a55565b62000c8a60e083018562000a55565b62000c9a61010083018462000bf8565b9a9950505050505050505050565b62000cb38162000b81565b811462000cbf57600080fd5b50565b60008135905062000cd38162000ca8565b92915050565b6000806040838503121562000cf35762000cf262000aef565b5b600062000d038582860162000b13565b925050602062000d168582860162000cc2565b9150509250929050565b600080fd5b600080fd5b6000601f19601f8301169050919050565b7f4e487b7100000000000000000000000000000000000000000000000000000000600052604160045260246000fd5b62000d758262000d2a565b810181811067ffffffffffffffff8211171562000d975762000d9662000d3b565b5b80604052505050565b600062000dac62000ae5565b905062000dba828262000d6a565b919050565b600067ffffffffffffffff82111562000ddd5762000ddc62000d3b565b5b62000de88262000d2a565b9050602081019050919050565b82818337600083830152505050565b600062000e1b62000e158462000dbf565b62000da0565b90508281526020810184848401111562000e3a5762000e3962000d25565b5b62000e4784828562000df5565b509392505050565b600082601f83011262000e675762000e6662000d20565b5b813562000e7984826020860162000e04565b91505092915050565b62000e8d8162000aa3565b811462000e9957600080fd5b50565b60008135905062000ead8162000e82565b92915050565b60008060008060008060c0878903121562000ed35762000ed262000aef565b5b600062000ee389828a0162000b13565b965050602062000ef689828a0162000b13565b955050604062000f0989828a0162000b13565b945050606087013567ffffffffffffffff81111562000f2d5762000f2c62000af4565b5b62000f3b89828a0162000e4f565b935050608087013567ffffffffffffffff81111562000f5f5762000f5e62000af4565b5b62000f6d89828a0162000e4f565b92505060a062000f8089828a0162000e9c565b9150509295509295509295565b6000806040838503121562000fa75762000fa662000aef565b5b600062000fb78582860162000b13565b925050602062000fca8582860162000b13565b9150509250929050565b6000806040838503121562000fee5762000fed62000aef565b5b600062000ffe8582860162000b13565b9250506020620010118582860162000e9c565b9150509250929050565b600082825260208201905092915050565b7f4f6e6c7920696e73706563746f722063616e207570646174652074686520696e60008201527f7370656374696f6e207374617475730000000000000000000000000000000000602082015250565b60006200108a602f836200101b565b915062001097826200102c565b604082019050919050565b60006020820190508181036000830152620010bd816200107b565b9050919050565b7f4f776e65722073686f756c64206b656570206174206c6561737420323525206f60008201527f66207468652070726f70657274792c207768696c65206f66666572696e67206160208201527f74206c6561737420323025206f662070726f7065727479207368617265730000604082015250565b600062001148605e836200101b565b91506200115582620010c4565b606082019050919050565b600060208201905081810360008301526200117b8162001139565b9050919050565b7f546f74616c2076616c7565206f66207468652070726f70657274792073686f7560008201527f6c642062652067726561746572207468616e2030000000000000000000000000602082015250565b6000620011e06034836200101b565b9150620011ed8262001182565b604082019050919050565b600060208201905081810360008301526200121381620011d1565b9050919050565b600060608201905062001231600083018662000ab7565b62001240602083018562000ab7565b6200124f604083018462000a55565b949350505050565b7f4e487b7100000000000000000000000000000000000000000000000000000000600052601160045260246000fd5b6000620012938262000a4b565b9150620012a08362000a4b565b9250828202620012b08162000a4b565b91508282048414831517620012ca57620012c962001257565b5b5092915050565b7f4e487b7100000000000000000000000000000000000000000000000000000000600052601260045260246000fd5b60006200130d8262000a4b565b91506200131a8362000a4b565b9250826200132d576200132c620012d1565b5b828204905092915050565b600081519050919050565b60005b838110156200136357808201518184015260208101905062001346565b60008484015250505050565b60006200137c8262001338565b6200138881856200101b565b93506200139a81856020860162001343565b620013a58162000d2a565b840191505092915050565b60006040820190508181036000830152620013cc81856200136f565b90508181036020830152620013e281846200136f565b90509392505050565b7f5468652070726f7065727479206469646e277420706173732074686520696e7360008201527f70656374696f6e20636865636b207965742c2063616e6e6f7420626520696e7660208201527f6573746564000000000000000000000000000000000000000000000000000000604082015250565b60006200146f6045836200101b565b91506200147c82620013eb565b606082019050919050565b60006020820190508181036000830152620014a28162001460565b9050919050565b7f4e756d626572206f6620746f6b656e732073686f756c6420626520677265617460008201527f6572207468616e207a65726f20616e64206c657373207468616e206e756d626560208201527f72206f6620617661696c61626c6520746f6b656e730000000000000000000000604082015250565b60006200152d6055836200101b565b91506200153a82620014a9565b606082019050919050565b6000602082019050818103600083015262001560816200151e565b9050919050565b7f4e6f7420657861637420616d6f756e74206f66204574686572207472616e736660008201527f6572656420746f20707572636861736520746f6b656e73000000000000000000602082015250565b6000620015c56037836200101b565b9150620015d28262001567565b604082019050919050565b60006020820190508181036000830152620015f881620015b6565b9050919050565b60006200160c8262000a4b565b9150620016198362000a4b565b925082820390508181111562001634576200163362001257565b5b92915050565b600060408201905062001651600083018562000ab7565b62001660602083018462000a55565b9392505050565b600081905092915050565b50565b60006200168460008362001667565b9150620016918262001672565b600082019050919050565b6000620016a98262001675565b915081905091905056fe6101606040523480156200001257600080fd5b506040516200365e3803806200365e83398181016040528101906200003891906200050d565b80806040518060400160405280600181526020017f310000000000000000000000000000000000000000000000000000000000000081525083858160039081620000839190620007dd565b508060049081620000959190620007dd565b505050620000b8620000ac6200017b60201b60201c565b6200018360201b60201c565b620000d36006836200024960201b62000a7b1790919060201c565b6101208181525050620000f66007826200024960201b62000a7b1790919060201c565b6101408181525050818051906020012060e08181525050808051906020012061010081815250504660a0818152505062000135620002a660201b60201c565b608081815250503073ffffffffffffffffffffffffffffffffffffffff1660c08173ffffffffffffffffffffffffffffffffffffffff1681525050505050505062000aaa565b600033905090565b6000600560009054906101000a900473ffffffffffffffffffffffffffffffffffffffff16905081600560006101000a81548173ffffffffffffffffffffffffffffffffffffffff021916908373ffffffffffffffffffffffffffffffffffffffff1602179055508173ffffffffffffffffffffffffffffffffffffffff168173ffffffffffffffffffffffffffffffffffffffff167f8be0079c531659141344cd1fd0a4f28419497f9722a3daafe3b4186f6b6457e060405160405180910390a35050565b60006020835110156200026f5762000267836200030360201b60201c565b9050620002a0565b8262000286836200037060201b62000abf1760201c565b6000019081620002979190620007dd565b5060ff60001b90505b92915050565b60007f8b73c3c69bb8fe3d512ecc4cf759cc79239f7b179b0ffacaa9a75d522b39400f60e051610100514630604051602001620002e895949392919062000935565b60405160208183030381529060405280519060200120905090565b600080829050601f815111156200035357826040517f305a27a90000000000000000000000000000000000000000000000000000000081526004016200034a9190620009e4565b60405180910390fd5b805181620003619062000a3a565b60001c1760001b915050919050565b6000819050919050565b6000604051905090565b600080fd5b600080fd5b600080fd5b600080fd5b6000601f19601f8301169050919050565b7f4e487b7100000000000000000000000000000000000000000000000000000000600052604160045260246000fd5b620003e38262000398565b810181811067ffffffffffffffff82111715620004055762000404620003a9565b5b80604052505050565b60006200041a6200037a565b9050620004288282620003d8565b919050565b600067ffffffffffffffff8211156200044b576200044a620003a9565b5b620004568262000398565b9050602081019050919050565b60005b838110156200048357808201518184015260208101905062000466565b60008484015250505050565b6000620004a6620004a0846200042d565b6200040e565b905082815260208101848484011115620004c557620004c462000393565b5b620004d284828562000463565b509392505050565b600082601f830112620004f257620004f16200038e565b5b8151620005048482602086016200048f565b91505092915050565b6000806040838503121562000527576200052662000384565b5b600083015167ffffffffffffffff81111562000548576200054762000389565b5b6200055685828601620004da565b925050602083015167ffffffffffffffff8111156200057a576200057962000389565b5b6200058885828601620004da565b9150509250929050565b600081519050919050565b7f4e487b7100000000000000000000000000000000000000000000000000000000600052602260045260246000fd5b60006002820490506001821680620005e557607f821691505b602082108103620005fb57620005fa6200059d565b5b50919050565b60008190508160005260206000209050919050565b60006020601f8301049050919050565b600082821b905092915050565b600060088302620006657fffffffffffffffffffffffffffffffffffffffffffffffffffffffffffffffff8262000626565b62000671868362000626565b95508019841693508086168417925050509392505050565b6000819050919050565b6000819050919050565b6000620006be620006b8620006b28462000689565b62000693565b62000689565b9050919050565b6000819050919050565b620006da836200069d565b620006f2620006e982620006c5565b84845462000633565b825550505050565b600090565b62000709620006fa565b62000716818484620006cf565b505050565b5b818110156200073e5762000732600082620006ff565b6001810190506200071c565b5050565b601f8211156200078d57620007578162000601565b620007628462000616565b8101602085101562000772578190505b6200078a620007818562000616565b8301826200071b565b50505b505050565b600082821c905092915050565b6000620007b26000198460080262000792565b1980831691505092915050565b6000620007cd83836200079f565b9150826002028217905092915050565b620007e88262000592565b67ffffffffffffffff811115620008045762000803620003a9565b5b620008108254620005cc565b6200081d82828562000742565b600060209050601f83116001811462000855576000841562000840578287015190505b6200084c8582620007bf565b865550620008bc565b601f198416620008658662000601565b60005b828110156200088f5784890151825560018201915060208501945060208101905062000868565b86831015620008af5784890151620008ab601f8916826200079f565b8355505b6001600288020188555050505b505050505050565b6000819050919050565b620008d981620008c4565b82525050565b620008ea8162000689565b82525050565b600073ffffffffffffffffffffffffffffffffffffffff82169050919050565b60006200091d82620008f0565b9050919050565b6200092f8162000910565b82525050565b600060a0820190506200094c6000830188620008ce565b6200095b6020830187620008ce565b6200096a6040830186620008ce565b620009796060830185620008df565b62000988608083018462000924565b9695505050505050565b600082825260208201905092915050565b6000620009b08262000592565b620009bc818562000992565b9350620009ce81856020860162000463565b620009d98162000398565b840191505092915050565b6000602082019050818103600083015262000a008184620009a3565b905092915050565b600081519050919050565b6000819050602082019050919050565b600062000a318251620008c4565b80915050919050565b600062000a478262000a08565b8262000a538462000a13565b905062000a608162000a23565b9250602082101562000aa35762000a9e7fffffffffffffffffffffffffffffffffffffffffffffffffffffffffffffffff8360200360080262000626565b831692505b5050919050565b60805160a05160c05160e051610100516101205161014051612b5962000b05600039600061061e015260006105ea01526000611506015260006114e501526000610fa001526000610ff60152600061101f0152612b596000f3fe608060405234801561001057600080fd5b50600436106101215760003560e01c8063715018a6116100ad578063a457c2d711610071578063a457c2d714610314578063a9059cbb14610344578063d505accf14610374578063dd62ed3e14610390578063f2fde38b146103c057610121565b8063715018a61461027a5780637ecebe001461028457806384b0196e146102b45780638da5cb5b146102d857806395d89b41146102f657610121565b8063313ce567116100f4578063313ce567146101c25780633644e515146101e057806339509351146101fe57806340c10f191461022e57806370a082311461024a57610121565b806306fdde0314610126578063095ea7b31461014457806318160ddd1461017457806323b872dd14610192575b600080fd5b61012e6103dc565b60405161013b9190611949565b60405180910390f35b61015e60048036038101906101599190611a04565b61046e565b60405161016b9190611a5f565b60405180910390f35b61017c610491565b6040516101899190611a89565b60405180910390f35b6101ac60048036038101906101a79190611aa4565b61049b565b6040516101b99190611a5f565b60405180910390f35b6101ca6104ca565b6040516101d79190611b13565b60405180910390f35b6101e86104cf565b6040516101f59190611b47565b60405180910390f35b61021860048036038101906102139190611a04565b6104de565b6040516102259190611a5f565b60405180910390f35b61024860048036038101906102439190611a04565b610515565b005b610264600480360381019061025f9190611b62565b61052b565b6040516102719190611a89565b60405180910390f35b610282610573565b005b61029e60048036038101906102999190611b62565b610587565b6040516102ab9190611a89565b60405180910390f35b6102bc6105d7565b6040516102cf9796959493929190611c97565b60405180910390f35b6102e06106d9565b6040516102ed9190611d1b565b60405180910390f35b6102fe610703565b60405161030b9190611949565b60405180910390f35b61032e60048036038101906103299190611a04565b610795565b60405161033b9190611a5f565b60405180910390f35b61035e60048036038101906103599190611a04565b61080c565b60405161036b9190611a5f565b60405180910390f35b61038e60048036038101906103899190611d8e565b61082f565b005b6103aa60048036038101906103a59190611e30565b610971565b6040516103b79190611a89565b60405180910390f35b6103da60048036038101906103d59190611b62565b6109f8565b005b6060600380546103eb90611e9f565b80601f016020809104026020016040519081016040528092919081815260200182805461041790611e9f565b80156104645780601f1061043957610100808354040283529160200191610464565b820191906000526020600020905b81548152906001019060200180831161044757829003601f168201915b5050505050905090565b600080610479610ac9565b9050610486818585610ad1565b600191505092915050565b6000600254905090565b6000806104a6610ac9565b90506104b3858285610c9a565b6104be858585610d26565b60019150509392505050565b600090565b60006104d9610f9c565b905090565b6000806104e9610ac9565b905061050a8185856104fb8589610971565b6105059190611eff565b610ad1565b600191505092915050565b61051d611053565b61052782826110d1565b5050565b60008060008373ffffffffffffffffffffffffffffffffffffffff1673ffffffffffffffffffffffffffffffffffffffff168152602001908152602001600020549050919050565b61057b611053565b6105856000611227565b565b60006105d0600860008473ffffffffffffffffffffffffffffffffffffffff1673ffffffffffffffffffffffffffffffffffffffff1681526020019081526020016000206112ed565b9050919050565b60006060806000806000606061061760067f00000000000000000000000000000000000000000000000000000000000000006112fb90919063ffffffff16565b61064b60077f00000000000000000000000000000000000000000000000000000000000000006112fb90919063ffffffff16565b46306000801b600067ffffffffffffffff81111561066c5761066b611f33565b5b60405190808252806020026020018201604052801561069a5781602001602082028036833780820191505090505b507f0f00000000000000000000000000000000000000000000000000000000000000959493929190965096509650965096509650965090919293949596565b6000600560009054906101000a900473ffffffffffffffffffffffffffffffffffffffff16905090565b60606004805461071290611e9f565b80601f016020809104026020016040519081016040528092919081815260200182805461073e90611e9f565b801561078b5780601f106107605761010080835404028352916020019161078b565b820191906000526020600020905b81548152906001019060200180831161076e57829003601f168201915b5050505050905090565b6000806107a0610ac9565b905060006107ae8286610971565b9050838110156107f3576040517f08c379a00000000000000000000000000000000000000000000000000000000081526004016107ea90611fd4565b60405180910390fd5b6108008286868403610ad1565b60019250505092915050565b600080610817610ac9565b9050610824818585610d26565b600191505092915050565b83421115610872576040517f08c379a000000000000000000000000000000000000000000000000000000000815260040161086990612040565b60405180910390fd5b60007f6e71edae12b1b97f4d1f60370fef10105fa2faae0126114a169c64845d6126c98888886108a18c6113ab565b896040516020016108b796959493929190612060565b60405160208183030381529060405280519060200120905060006108da82611409565b905060006108ea82878787611423565b90508973ffffffffffffffffffffffffffffffffffffffff168173ffffffffffffffffffffffffffffffffffffffff161461095a576040517f08c379a00000000000000000000000000000000000000000000000000000000081526004016109519061210d565b60405180910390fd5b6109658a8a8a610ad1565b50505050505050505050565b6000600160008473ffffffffffffffffffffffffffffffffffffffff1673ffffffffffffffffffffffffffffffffffffffff16815260200190815260200160002060008373ffffffffffffffffffffffffffffffffffffffff1673ffffffffffffffffffffffffffffffffffffffff16815260200190815260200160002054905092915050565b610a00611053565b600073ffffffffffffffffffffffffffffffffffffffff168173ffffffffffffffffffffffffffffffffffffffff1603610a6f576040517f08c379a0000000000000000000000000000000000000000000000000000000008152600401610a669061219f565b60405180910390fd5b610a7881611227565b50565b6000602083511015610a9757610a908361144e565b9050610ab9565b82610aa183610abf565b6000019081610ab0919061236b565b5060ff60001b90505b92915050565b6000819050919050565b600033905090565b600073ffffffffffffffffffffffffffffffffffffffff168373ffffffffffffffffffffffffffffffffffffffff1603610b40576040517f08c379a0000000000000000000000000000000000000000000000000000000008152600401610b37906124af565b60405180910390fd5b600073ffffffffffffffffffffffffffffffffffffffff168273ffffffffffffffffffffffffffffffffffffffff1603610baf576040517f08c379a0000000000000000000000000000000000000000000000000000000008152600401610ba690612541565b60405180910390fd5b80600160008573ffffffffffffffffffffffffffffffffffffffff1673ffffffffffffffffffffffffffffffffffffffff16815260200190815260200160002060008473ffffffffffffffffffffffffffffffffffffffff1673ffffffffffffffffffffffffffffffffffffffff168152602001908152602001600020819055508173ffffffffffffffffffffffffffffffffffffffff168373ffffffffffffffffffffffffffffffffffffffff167f8c5be1e5ebec7d5bd14f71427d1e84f3dd0314c0f7b2291e5b200ac8c7c3b92583604051610c8d9190611a89565b60405180910390a3505050565b6000610ca68484610971565b90507fffffffffffffffffffffffffffffffffffffffffffffffffffffffffffffffff8114610d205781811015610d12576040517f08c379a0000000000000000000000000000000000000000000000000000000008152600401610d09906125ad565b60405180910390fd5b610d1f8484848403610ad1565b5b50505050565b600073ffffffffffffffffffffffffffffffffffffffff168373ffffffffffffffffffffffffffffffffffffffff1603610d95576040517f08c379a0000000000000000000000000000000000000000000000000000000008152600401610d8c9061263f565b60405180910390fd5b600073ffffffffffffffffffffffffffffffffffffffff168273ffffffffffffffffffffffffffffffffffffffff1603610e04576040517f08c379a0000000000000000000000000000000000000000000000000000000008152600401610dfb906126d1565b60405180910390fd5b610e0f8383836114b6565b60008060008573ffffffffffffffffffffffffffffffffffffffff1673ffffffffffffffffffffffffffffffffffffffff16815260200190815260200160002054905081811015610e95576040517f08c379a0000000000000000000000000000000000000000000000000000000008152600401610e8c90612763565b60405180910390fd5b8181036000808673ffffffffffffffffffffffffffffffffffffffff1673ffffffffffffffffffffffffffffffffffffffff16815260200190815260200160002081905550816000808573ffffffffffffffffffffffffffffffffffffffff1673ffffffffffffffffffffffffffffffffffffffff168152602001908152602001600020600082825401925050819055508273ffffffffffffffffffffffffffffffffffffffff168473ffffffffffffffffffffffffffffffffffffffff167fddf252ad1be2c89b69c2b068fc378daa952ba7f163c4a11628f55a4df523b3ef84604051610f839190611a89565b60405180910390a3610f968484846114bb565b50505050565b60007f000000000000000000000000000000000000000000000000000000000000000073ffffffffffffffffffffffffffffffffffffffff163073ffffffffffffffffffffffffffffffffffffffff1614801561101857507f000000000000000000000000000000000000000000000000000000000000000046145b15611045577f00000000000000000000000000000000000000000000000000000000000000009050611050565b61104d6114c0565b90505b90565b61105b610ac9565b73ffffffffffffffffffffffffffffffffffffffff166110796106d9565b73ffffffffffffffffffffffffffffffffffffffff16146110cf576040517f08c379a00000000000000000000000000000000000000000000000000000000081526004016110c6906127cf565b60405180910390fd5b565b600073ffffffffffffffffffffffffffffffffffffffff168273ffffffffffffffffffffffffffffffffffffffff1603611140576040517f08c379a00000000000000000000000000000000000000000000000000000000081526004016111379061283b565b60405180910390fd5b61114c600083836114b6565b806002600082825461115e9190611eff565b92505081905550806000808473ffffffffffffffffffffffffffffffffffffffff1673ffffffffffffffffffffffffffffffffffffffff168152602001908152602001600020600082825401925050819055508173ffffffffffffffffffffffffffffffffffffffff16600073ffffffffffffffffffffffffffffffffffffffff167fddf252ad1be2c89b69c2b068fc378daa952ba7f163c4a11628f55a4df523b3ef8360405161120f9190611a89565b60405180910390a3611223600083836114bb565b5050565b6000600560009054906101000a900473ffffffffffffffffffffffffffffffffffffffff16905081600560006101000a81548173ffffffffffffffffffffffffffffffffffffffff021916908373ffffffffffffffffffffffffffffffffffffffff1602179055508173ffffffffffffffffffffffffffffffffffffffff168173ffffffffffffffffffffffffffffffffffffffff167f8be0079c531659141344cd1fd0a4f28419497f9722a3daafe3b4186f6b6457e060405160405180910390a35050565b600081600001549050919050565b606060ff60001b83146113185761131183611556565b90506113a5565b81805461132490611e9f565b80601f016020809104026020016040519081016040528092919081815260200182805461135090611e9f565b801561139d5780601f106113725761010080835404028352916020019161139d565b820191906000526020600020905b81548152906001019060200180831161138057829003601f168201915b505050505090505b92915050565b600080600860008473ffffffffffffffffffffffffffffffffffffffff1673ffffffffffffffffffffffffffffffffffffffff16815260200190815260200160002090506113f8816112ed565b9150611403816115ca565b50919050565b600061141c611416610f9c565b836115e0565b9050919050565b600080600061143487878787611621565b9150915061144181611703565b8192505050949350505050565b600080829050601f8151111561149b57826040517f305a27a90000000000000000000000000000000000000000000000000000000081526004016114929190611949565b60405180910390fd5b8051816114a79061288b565b60001c1760001b915050919050565b505050565b505050565b60007f8b73c3c69bb8fe3d512ecc4cf759cc79239f7b179b0ffacaa9a75d522b39400f7f00000000000000000000000000000000000000000000000000000000000000007f0000000000000000000000000000000000000000000000000000000000000000463060405160200161153b9594939291906128f2565b60405160208183030381529060405280519060200120905090565b6060600061156383611869565b90506000602067ffffffffffffffff81111561158257611581611f33565b5b6040519080825280601f01601f1916602001820160405280156115b45781602001600182028036833780820191505090505b5090508181528360208201528092505050919050565b6001816000016000828254019250508190555050565b60006040517f190100000000000000000000000000000000000000000000000000000000000081528360028201528260228201526042812091505092915050565b6000807f7fffffffffffffffffffffffffffffff5d576e7357a4501ddfe92f46681b20a08360001c111561165c5760006003915091506116fa565b6000600187878787604051600081526020016040526040516116819493929190612945565b6020604051602081039080840390855afa1580156116a3573d6000803e3d6000fd5b505050602060405103519050600073ffffffffffffffffffffffffffffffffffffffff168173ffffffffffffffffffffffffffffffffffffffff16036116f1576000600192509250506116fa565b80600092509250505b94509492505050565b600060048111156117175761171661298a565b5b81600481111561172a5761172961298a565b5b031561186657600160048111156117445761174361298a565b5b8160048111156117575761175661298a565b5b03611797576040517f08c379a000000000000000000000000000000000000000000000000000000000815260040161178e90612a05565b60405180910390fd5b600260048111156117ab576117aa61298a565b5b8160048111156117be576117bd61298a565b5b036117fe576040517f08c379a00000000000000000000000000000000000000000000000000000000081526004016117f590612a71565b60405180910390fd5b600360048111156118125761181161298a565b5b8160048111156118255761182461298a565b5b03611865576040517f08c379a000000000000000000000000000000000000000000000000000000000815260040161185c90612b03565b60405180910390fd5b5b50565b60008060ff8360001c169050601f8111156118b0576040517fb3512b0c00000000000000000000000000000000000000000000000000000000815260040160405180910390fd5b80915050919050565b600081519050919050565b600082825260208201905092915050565b60005b838110156118f35780820151818401526020810190506118d8565b60008484015250505050565b6000601f19601f8301169050919050565b600061191b826118b9565b61192581856118c4565b93506119358185602086016118d5565b61193e816118ff565b840191505092915050565b600060208201905081810360008301526119638184611910565b905092915050565b600080fd5b600073ffffffffffffffffffffffffffffffffffffffff82169050919050565b600061199b82611970565b9050919050565b6119ab81611990565b81146119b657600080fd5b50565b6000813590506119c8816119a2565b92915050565b6000819050919050565b6119e1816119ce565b81146119ec57600080fd5b50565b6000813590506119fe816119d8565b92915050565b60008060408385031215611a1b57611a1a61196b565b5b6000611a29858286016119b9565b9250506020611a3a858286016119ef565b9150509250929050565b60008115159050919050565b611a5981611a44565b82525050565b6000602082019050611a746000830184611a50565b92915050565b611a83816119ce565b82525050565b6000602082019050611a9e6000830184611a7a565b92915050565b600080600060608486031215611abd57611abc61196b565b5b6000611acb868287016119b9565b9350506020611adc868287016119b9565b9250506040611aed868287016119ef565b9150509250925092565b600060ff82169050919050565b611b0d81611af7565b82525050565b6000602082019050611b286000830184611b04565b92915050565b6000819050919050565b611b4181611b2e565b82525050565b6000602082019050611b5c6000830184611b38565b92915050565b600060208284031215611b7857611b7761196b565b5b6000611b86848285016119b9565b91505092915050565b60007fff0000000000000000000000000000000000000000000000000000000000000082169050919050565b611bc481611b8f565b82525050565b611bd381611990565b82525050565b600081519050919050565b600082825260208201905092915050565b6000819050602082019050919050565b611c0e816119ce565b82525050565b6000611c208383611c05565b60208301905092915050565b6000602082019050919050565b6000611c4482611bd9565b611c4e8185611be4565b9350611c5983611bf5565b8060005b83811015611c8a578151611c718882611c14565b9750611c7c83611c2c565b925050600181019050611c5d565b5085935050505092915050565b600060e082019050611cac600083018a611bbb565b8181036020830152611cbe8189611910565b90508181036040830152611cd28188611910565b9050611ce16060830187611a7a565b611cee6080830186611bca565b611cfb60a0830185611b38565b81810360c0830152611d0d8184611c39565b905098975050505050505050565b6000602082019050611d306000830184611bca565b92915050565b611d3f81611af7565b8114611d4a57600080fd5b50565b600081359050611d5c81611d36565b92915050565b611d6b81611b2e565b8114611d7657600080fd5b50565b600081359050611d8881611d62565b92915050565b600080600080600080600060e0888a031215611dad57611dac61196b565b5b6000611dbb8a828b016119b9565b9750506020611dcc8a828b016119b9565b9650506040611ddd8a828b016119ef565b9550506060611dee8a828b016119ef565b9450506080611dff8a828b01611d4d565b93505060a0611e108a828b01611d79565b92505060c0611e218a828b01611d79565b91505092959891949750929550565b60008060408385031215611e4757611e4661196b565b5b6000611e55858286016119b9565b9250506020611e66858286016119b9565b9150509250929050565b7f4e487b7100000000000000000000000000000000000000000000000000000000600052602260045260246000fd5b60006002820490506001821680611eb757607f821691505b602082108103611eca57611ec9611e70565b5b50919050565b7f4e487b7100000000000000000000000000000000000000000000000000000000600052601160045260246000fd5b6000611f0a826119ce565b9150611f15836119ce565b9250828201905080821115611f2d57611f2c611ed0565b5b92915050565b7f4e487b7100000000000000000000000000000000000000000000000000000000600052604160045260246000fd5b7f45524332303a2064656372656173656420616c6c6f77616e63652062656c6f7760008201527f207a65726f000000000000000000000000000000000000000000000000000000602082015250565b6000611fbe6025836118c4565b9150611fc982611f62565b604082019050919050565b60006020820190508181036000830152611fed81611fb1565b9050919050565b7f45524332305065726d69743a206578706972656420646561646c696e65000000600082015250565b600061202a601d836118c4565b915061203582611ff4565b602082019050919050565b600060208201905081810360008301526120598161201d565b9050919050565b600060c0820190506120756000830189611b38565b6120826020830188611bca565b61208f6040830187611bca565b61209c6060830186611a7a565b6120a96080830185611a7a565b6120b660a0830184611a7a565b979650505050505050565b7f45524332305065726d69743a20696e76616c6964207369676e61747572650000600082015250565b60006120f7601e836118c4565b9150612102826120c1565b602082019050919050565b60006020820190508181036000830152612126816120ea565b9050919050565b7f4f776e61626c653a206e6577206f776e657220697320746865207a65726f206160008201527f6464726573730000000000000000000000000000000000000000000000000000602082015250565b60006121896026836118c4565b91506121948261212d565b604082019050919050565b600060208201905081810360008301526121b88161217c565b9050919050565b60008190508160005260206000209050919050565b60006020601f8301049050919050565b600082821b905092915050565b6000600883026122217fffffffffffffffffffffffffffffffffffffffffffffffffffffffffffffffff826121e4565b61222b86836121e4565b95508019841693508086168417925050509392505050565b6000819050919050565b600061226861226361225e846119ce565b612243565b6119ce565b9050919050565b6000819050919050565b6122828361224d565b61229661228e8261226f565b8484546121f1565b825550505050565b600090565b6122ab61229e565b6122b6818484612279565b505050565b5b818110156122da576122cf6000826122a3565b6001810190506122bc565b5050565b601f82111561231f576122f0816121bf565b6122f9846121d4565b81016020851015612308578190505b61231c612314856121d4565b8301826122bb565b50505b505050565b600082821c905092915050565b600061234260001984600802612324565b1980831691505092915050565b600061235b8383612331565b9150826002028217905092915050565b612374826118b9565b67ffffffffffffffff81111561238d5761238c611f33565b5b6123978254611e9f565b6123a28282856122de565b600060209050601f8311600181146123d557600084156123c3578287015190505b6123cd858261234f565b865550612435565b601f1984166123e3866121bf565b60005b8281101561240b578489015182556001820191506020850194506020810190506123e6565b868310156124285784890151612424601f891682612331565b8355505b6001600288020188555050505b505050505050565b7f45524332303a20617070726f76652066726f6d20746865207a65726f2061646460008201527f7265737300000000000000000000000000000000000000000000000000000000602082015250565b60006124996024836118c4565b91506124a48261243d565b604082019050919050565b600060208201905081810360008301526124c88161248c565b9050919050565b7f45524332303a20617070726f766520746f20746865207a65726f20616464726560008201527f7373000000000000000000000000000000000000000000000000000000000000602082015250565b600061252b6022836118c4565b9150612536826124cf565b604082019050919050565b6000602082019050818103600083015261255a8161251e565b9050919050565b7f45524332303a20696e73756666696369656e7420616c6c6f77616e6365000000600082015250565b6000612597601d836118c4565b91506125a282612561565b602082019050919050565b600060208201905081810360008301526125c68161258a565b9050919050565b7f45524332303a207472616e736665722066726f6d20746865207a65726f20616460008201527f6472657373000000000000000000000000000000000000000000000000000000602082015250565b60006126296025836118c4565b9150612634826125cd565b604082019050919050565b600060208201905081810360008301526126588161261c565b9050919050565b7f45524332303a207472616e7366657220746f20746865207a65726f206164647260008201527f6573730000000000000000000000000000000000000000000000000000000000602082015250565b60006126bb6023836118c4565b91506126c68261265f565b604082019050919050565b600060208201905081810360008301526126ea816126ae565b9050919050565b7f45524332303a207472616e7366657220616d6f756e742065786365656473206260008201527f616c616e63650000000000000000000000000000000000000000000000000000602082015250565b600061274d6026836118c4565b9150612758826126f1565b604082019050919050565b6000602082019050818103600083015261277c81612740565b9050919050565b7f4f776e61626c653a2063616c6c6572206973206e6f7420746865206f776e6572600082015250565b60006127b96020836118c4565b91506127c482612783565b602082019050919050565b600060208201905081810360008301526127e8816127ac565b9050919050565b7f45524332303a206d696e7420746f20746865207a65726f206164647265737300600082015250565b6000612825601f836118c4565b9150612830826127ef565b602082019050919050565b6000602082019050818103600083015261285481612818565b9050919050565b600081519050919050565b6000819050602082019050919050565b60006128828251611b2e565b80915050919050565b60006128968261285b565b826128a084612866565b90506128ab81612876565b925060208210156128eb576128e67fffffffffffffffffffffffffffffffffffffffffffffffffffffffffffffffff836020036008026121e4565b831692505b5050919050565b600060a0820190506129076000830188611b38565b6129146020830187611b38565b6129216040830186611b38565b61292e6060830185611a7a565b61293b6080830184611bca565b9695505050505050565b600060808201905061295a6000830187611b38565b6129676020830186611b04565b6129746040830185611b38565b6129816060830184611b38565b95945050505050565b7f4e487b7100000000000000000000000000000000000000000000000000000000600052602160045260246000fd5b7f45434453413a20696e76616c6964207369676e61747572650000000000000000600082015250565b60006129ef6018836118c4565b91506129fa826129b9565b602082019050919050565b60006020820190508181036000830152612a1e816129e2565b9050919050565b7f45434453413a20696e76616c6964207369676e6174757265206c656e67746800600082015250565b6000612a5b601f836118c4565b9150612a6682612a25565b602082019050919050565b60006020820190508181036000830152612a8a81612a4e565b9050919050565b7f45434453413a20696e76616c6964207369676e6174757265202773272076616c60008201527f7565000000000000000000000000000000000000000000000000000000000000602082015250565b6000612aed6022836118c4565b9150612af882612a91565b604082019050919050565b60006020820190508181036000830152612b1c81612ae0565b905091905056fea26469706673582212202ab9d12df38efad12c68a2ff821eae1a98ec75fdef2d8de0a8e531d839dedbef64736f6c63430008110033a2646970667358221220c86ba7ed2853d11759a2916c2ca82e1535c57a94fe0e08f024f68e559f54761464736f6c63430008110033","opcodes":"PUSH1 0x80 PUSH1 0x40 MSTORE CALLVALUE DUP1 ISZERO PUSH3 0x11 JUMPI PUSH1 0x0 DUP1 REVERT JUMPDEST POP PUSH1 0x40 MLOAD PUSH3 0x4E71 CODESIZE SUB DUP1 PUSH3 0x4E71 DUP4 CODECOPY DUP2 DUP2 ADD PUSH1 0x40 MSTORE DUP2 ADD SWAP1 PUSH3 0x37 SWAP2 SWAP1 PUSH3 0xE8 JUMP JUMPDEST DUP1 PUSH1 0x0 DUP1 PUSH2 0x100 EXP DUP2 SLOAD DUP2 PUSH20 0xFFFFFFFFFFFFFFFFFFFFFFFFFFFFFFFFFFFFFFFF MUL NOT AND SWAP1 DUP4 PUSH20 0xFFFFFFFFFFFFFFFFFFFFFFFFFFFFFFFFFFFFFFFF AND MUL OR SWAP1 SSTORE POP POP PUSH3 0x11A JUMP JUMPDEST PUSH1 0x0 DUP1 REVERT JUMPDEST PUSH1 0x0 PUSH20 0xFFFFFFFFFFFFFFFFFFFFFFFFFFFFFFFFFFFFFFFF DUP3 AND SWAP1 POP SWAP2 SWAP1 POP JUMP JUMPDEST PUSH1 0x0 PUSH3 0xB0 DUP3 PUSH3 0x83 JUMP JUMPDEST SWAP1 POP SWAP2 SWAP1 POP JUMP JUMPDEST PUSH3 0xC2 DUP2 PUSH3 0xA3 JUMP JUMPDEST DUP2 EQ PUSH3 0xCE JUMPI PUSH1 0x0 DUP1 REVERT JUMPDEST POP JUMP JUMPDEST PUSH1 0x0 DUP2 MLOAD SWAP1 POP PUSH3 0xE2 DUP2 PUSH3 0xB7 JUMP JUMPDEST SWAP3 SWAP2 POP POP JUMP JUMPDEST PUSH1 0x0 PUSH1 0x20 DUP3 DUP5 SUB SLT ISZERO PUSH3 0x101 JUMPI PUSH3 0x100 PUSH3 0x7E JUMP JUMPDEST JUMPDEST PUSH1 0x0 PUSH3 0x111 DUP5 DUP3 DUP6 ADD PUSH3 0xD1 JUMP JUMPDEST SWAP2 POP POP SWAP3 SWAP2 POP POP JUMP JUMPDEST PUSH2 0x4D47 DUP1 PUSH3 0x12A PUSH1 0x0 CODECOPY PUSH1 0x0 RETURN INVALID PUSH1 0x80 PUSH1 0x40 MSTORE PUSH1 0x4 CALLDATASIZE LT PUSH3 0x7F JUMPI PUSH1 0x0 CALLDATALOAD PUSH1 0xE0 SHR DUP1 PUSH4 0x9D0E5FD6 GT PUSH3 0x55 JUMPI DUP1 PUSH4 0x9D0E5FD6 EQ PUSH3 0x138 JUMPI DUP1 PUSH4 0xBB86A3AB EQ PUSH3 0x166 JUMPI DUP1 PUSH4 0xD87AA643 EQ PUSH3 0x186 JUMPI DUP1 PUSH4 0xE61DD2A6 EQ PUSH3 0x1A6 JUMPI PUSH3 0x87 JUMP JUMPDEST DUP1 PUSH4 0x12065FE0 EQ PUSH3 0x8C JUMPI DUP1 PUSH4 0x5BF8633A EQ PUSH3 0xBC JUMPI DUP1 PUSH4 0x8C210975 EQ PUSH3 0xEC JUMPI PUSH3 0x87 JUMP JUMPDEST CALLDATASIZE PUSH3 0x87 JUMPI STOP JUMPDEST PUSH1 0x0 DUP1 REVERT JUMPDEST CALLVALUE DUP1 ISZERO PUSH3 0x99 JUMPI PUSH1 0x0 DUP1 REVERT JUMPDEST POP PUSH3 0xA4 PUSH3 0x1EA JUMP JUMPDEST PUSH1 0x40 MLOAD PUSH3 0xB3 SWAP2 SWAP1 PUSH3 0xA66 JUMP JUMPDEST PUSH1 0x40 MLOAD DUP1 SWAP2 SUB SWAP1 RETURN JUMPDEST CALLVALUE DUP1 ISZERO PUSH3 0xC9 JUMPI PUSH1 0x0 DUP1 REVERT JUMPDEST POP PUSH3 0xD4 PUSH3 0x1F2 JUMP JUMPDEST PUSH1 0x40 MLOAD PUSH3 0xE3 SWAP2 SWAP1 PUSH3 0xAC8 JUMP JUMPDEST PUSH1 0x40 MLOAD DUP1 SWAP2 SUB SWAP1 RETURN JUMPDEST CALLVALUE DUP1 ISZERO PUSH3 0xF9 JUMPI PUSH1 0x0 DUP1 REVERT JUMPDEST POP PUSH3 0x118 PUSH1 0x4 DUP1 CALLDATASIZE SUB DUP2 ADD SWAP1 PUSH3 0x112 SWAP2 SWAP1 PUSH3 0xB2A JUMP JUMPDEST PUSH3 0x216 JUMP JUMPDEST PUSH1 0x40 MLOAD PUSH3 0x12F SWAP10 SWAP9 SWAP8 SWAP7 SWAP6 SWAP5 SWAP4 SWAP3 SWAP2 SWAP1 PUSH3 0xC09 JUMP JUMPDEST PUSH1 0x40 MLOAD DUP1 SWAP2 SUB SWAP1 RETURN JUMPDEST CALLVALUE DUP1 ISZERO PUSH3 0x145 JUMPI PUSH1 0x0 DUP1 REVERT JUMPDEST POP PUSH3 0x164 PUSH1 0x4 DUP1 CALLDATASIZE SUB DUP2 ADD SWAP1 PUSH3 0x15E SWAP2 SWAP1 PUSH3 0xCD9 JUMP JUMPDEST PUSH3 0x2DE JUMP JUMPDEST STOP JUMPDEST PUSH3 0x184 PUSH1 0x4 DUP1 CALLDATASIZE SUB DUP2 ADD SWAP1 PUSH3 0x17E SWAP2 SWAP1 PUSH3 0xEB3 JUMP JUMPDEST PUSH3 0x3B7 JUMP JUMPDEST STOP JUMPDEST PUSH3 0x1A4 PUSH1 0x4 DUP1 CALLDATASIZE SUB DUP2 ADD SWAP1 PUSH3 0x19E SWAP2 SWAP1 PUSH3 0xF8D JUMP JUMPDEST PUSH3 0x6F9 JUMP JUMPDEST STOP JUMPDEST CALLVALUE DUP1 ISZERO PUSH3 0x1B3 JUMPI PUSH1 0x0 DUP1 REVERT JUMPDEST POP PUSH3 0x1D2 PUSH1 0x4 DUP1 CALLDATASIZE SUB DUP2 ADD SWAP1 PUSH3 0x1CC SWAP2 SWAP1 PUSH3 0xFD4 JUMP JUMPDEST PUSH3 0xA18 JUMP JUMPDEST PUSH1 0x40 MLOAD PUSH3 0x1E1 SWAP2 SWAP1 PUSH3 0xA66 JUMP JUMPDEST PUSH1 0x40 MLOAD DUP1 SWAP2 SUB SWAP1 RETURN JUMPDEST PUSH1 0x0 SELFBALANCE SWAP1 POP SWAP1 JUMP JUMPDEST PUSH1 0x0 DUP1 SLOAD SWAP1 PUSH2 0x100 EXP SWAP1 DIV PUSH20 0xFFFFFFFFFFFFFFFFFFFFFFFFFFFFFFFFFFFFFFFF AND DUP2 JUMP JUMPDEST PUSH1 0x1 PUSH1 0x20 MSTORE DUP1 PUSH1 0x0 MSTORE PUSH1 0x40 PUSH1 0x0 KECCAK256 PUSH1 0x0 SWAP2 POP SWAP1 POP DUP1 PUSH1 0x0 ADD PUSH1 0x0 SWAP1 SLOAD SWAP1 PUSH2 0x100 EXP SWAP1 DIV PUSH20 0xFFFFFFFFFFFFFFFFFFFFFFFFFFFFFFFFFFFFFFFF AND SWAP1 DUP1 PUSH1 0x1 ADD PUSH1 0x0 SWAP1 SLOAD SWAP1 PUSH2 0x100 EXP SWAP1 DIV PUSH20 0xFFFFFFFFFFFFFFFFFFFFFFFFFFFFFFFFFFFFFFFF AND SWAP1 DUP1 PUSH1 0x1 ADD PUSH1 0x14 SWAP1 SLOAD SWAP1 PUSH2 0x100 EXP SWAP1 DIV PUSH1 0xFF AND SWAP1 DUP1 PUSH1 0x2 ADD SLOAD SWAP1 DUP1 PUSH1 0x3 ADD PUSH1 0x0 SWAP1 SLOAD SWAP1 PUSH2 0x100 EXP SWAP1 DIV PUSH1 0xFF AND SWAP1 DUP1 PUSH1 0x4 ADD SLOAD SWAP1 DUP1 PUSH1 0x5 ADD SLOAD SWAP1 DUP1 PUSH1 0x6 ADD SLOAD SWAP1 DUP1 PUSH1 0x7 ADD PUSH1 0x0 SWAP1 SLOAD SWAP1 PUSH2 0x100 EXP SWAP1 DIV PUSH20 0xFFFFFFFFFFFFFFFFFFFFFFFFFFFFFFFFFFFFFFFF AND SWAP1 POP DUP10 JUMP JUMPDEST PUSH1 0x1 PUSH1 0x0 DUP4 DUP2 MSTORE PUSH1 0x20 ADD SWAP1 DUP2 MSTORE PUSH1 0x20 ADD PUSH1 0x0 KECCAK256 PUSH1 0x1 ADD PUSH1 0x0 SWAP1 SLOAD SWAP1 PUSH2 0x100 EXP SWAP1 DIV PUSH20 0xFFFFFFFFFFFFFFFFFFFFFFFFFFFFFFFFFFFFFFFF AND PUSH20 0xFFFFFFFFFFFFFFFFFFFFFFFFFFFFFFFFFFFFFFFF AND CALLER PUSH20 0xFFFFFFFFFFFFFFFFFFFFFFFFFFFFFFFFFFFFFFFF AND EQ PUSH3 0x385 JUMPI PUSH1 0x40 MLOAD PUSH32 0x8C379A000000000000000000000000000000000000000000000000000000000 DUP2 MSTORE PUSH1 0x4 ADD PUSH3 0x37C SWAP1 PUSH3 0x10A2 JUMP JUMPDEST PUSH1 0x40 MLOAD DUP1 SWAP2 SUB SWAP1 REVERT JUMPDEST DUP1 PUSH1 0x1 PUSH1 0x0 DUP5 DUP2 MSTORE PUSH1 0x20 ADD SWAP1 DUP2 MSTORE PUSH1 0x20 ADD PUSH1 0x0 KECCAK256 PUSH1 0x1 ADD PUSH1 0x14 PUSH2 0x100 EXP DUP2 SLOAD DUP2 PUSH1 0xFF MUL NOT AND SWAP1 DUP4 ISZERO ISZERO MUL OR SWAP1 SSTORE POP POP POP JUMP JUMPDEST PUSH1 0x4B DUP5 GT ISZERO DUP1 ISZERO PUSH3 0x3CA JUMPI POP PUSH1 0x14 DUP5 LT ISZERO JUMPDEST PUSH3 0x40C JUMPI PUSH1 0x40 MLOAD PUSH32 0x8C379A000000000000000000000000000000000000000000000000000000000 DUP2 MSTORE PUSH1 0x4 ADD PUSH3 0x403 SWAP1 PUSH3 0x1160 JUMP JUMPDEST PUSH1 0x40 MLOAD DUP1 SWAP2 SUB SWAP1 REVERT JUMPDEST PUSH1 0x0 DUP6 GT PUSH3 0x452 JUMPI PUSH1 0x40 MLOAD PUSH32 0x8C379A000000000000000000000000000000000000000000000000000000000 DUP2 MSTORE PUSH1 0x4 ADD PUSH3 0x449 SWAP1 PUSH3 0x11F8 JUMP JUMPDEST PUSH1 0x40 MLOAD DUP1 SWAP2 SUB SWAP1 REVERT JUMPDEST PUSH1 0x0 DUP1 SLOAD SWAP1 PUSH2 0x100 EXP SWAP1 DIV PUSH20 0xFFFFFFFFFFFFFFFFFFFFFFFFFFFFFFFFFFFFFFFF AND PUSH20 0xFFFFFFFFFFFFFFFFFFFFFFFFFFFFFFFFFFFFFFFF AND PUSH4 0x23B872DD CALLER ADDRESS DUP10 PUSH1 0x40 MLOAD DUP5 PUSH4 0xFFFFFFFF AND PUSH1 0xE0 SHL DUP2 MSTORE PUSH1 0x4 ADD PUSH3 0x4B1 SWAP4 SWAP3 SWAP2 SWAP1 PUSH3 0x121A JUMP JUMPDEST PUSH1 0x0 PUSH1 0x40 MLOAD DUP1 DUP4 SUB DUP2 PUSH1 0x0 DUP8 DUP1 EXTCODESIZE ISZERO DUP1 ISZERO PUSH3 0x4CC JUMPI PUSH1 0x0 DUP1 REVERT JUMPDEST POP GAS CALL ISZERO DUP1 ISZERO PUSH3 0x4E1 JUMPI RETURNDATASIZE PUSH1 0x0 DUP1 RETURNDATACOPY RETURNDATASIZE PUSH1 0x0 REVERT JUMPDEST POP POP POP POP PUSH1 0x1 DUP1 PUSH1 0x0 DUP9 DUP2 MSTORE PUSH1 0x20 ADD SWAP1 DUP2 MSTORE PUSH1 0x20 ADD PUSH1 0x0 KECCAK256 PUSH1 0x3 ADD PUSH1 0x0 PUSH2 0x100 EXP DUP2 SLOAD DUP2 PUSH1 0xFF MUL NOT AND SWAP1 DUP4 ISZERO ISZERO MUL OR SWAP1 SSTORE POP DUP1 PUSH1 0x1 PUSH1 0x0 DUP9 DUP2 MSTORE PUSH1 0x20 ADD SWAP1 DUP2 MSTORE PUSH1 0x20 ADD PUSH1 0x0 KECCAK256 PUSH1 0x1 ADD PUSH1 0x0 PUSH2 0x100 EXP DUP2 SLOAD DUP2 PUSH20 0xFFFFFFFFFFFFFFFFFFFFFFFFFFFFFFFFFFFFFFFF MUL NOT AND SWAP1 DUP4 PUSH20 0xFFFFFFFFFFFFFFFFFFFFFFFFFFFFFFFFFFFFFFFF AND MUL OR SWAP1 SSTORE POP CALLER PUSH1 0x1 PUSH1 0x0 DUP9 DUP2 MSTORE PUSH1 0x20 ADD SWAP1 DUP2 MSTORE PUSH1 0x20 ADD PUSH1 0x0 KECCAK256 PUSH1 0x0 ADD PUSH1 0x0 PUSH2 0x100 EXP DUP2 SLOAD DUP2 PUSH20 0xFFFFFFFFFFFFFFFFFFFFFFFFFFFFFFFFFFFFFFFF MUL NOT AND SWAP1 DUP4 PUSH20 0xFFFFFFFFFFFFFFFFFFFFFFFFFFFFFFFFFFFFFFFF AND MUL OR SWAP1 SSTORE POP DUP5 PUSH1 0x1 PUSH1 0x0 DUP9 DUP2 MSTORE PUSH1 0x20 ADD SWAP1 DUP2 MSTORE PUSH1 0x20 ADD PUSH1 0x0 KECCAK256 PUSH1 0x4 ADD DUP2 SWAP1 SSTORE POP PUSH1 0x64 DUP5 PUSH3 0x5E7 SWAP2 SWAP1 PUSH3 0x1286 JUMP JUMPDEST PUSH1 0x1 PUSH1 0x0 DUP9 DUP2 MSTORE PUSH1 0x20 ADD SWAP1 DUP2 MSTORE PUSH1 0x20 ADD PUSH1 0x0 KECCAK256 PUSH1 0x2 ADD DUP2 SWAP1 SSTORE POP PUSH1 0x1 PUSH1 0x0 DUP8 DUP2 MSTORE PUSH1 0x20 ADD SWAP1 DUP2 MSTORE PUSH1 0x20 ADD PUSH1 0x0 KECCAK256 PUSH1 0x2 ADD SLOAD PUSH1 0x1 PUSH1 0x0 DUP9 DUP2 MSTORE PUSH1 0x20 ADD SWAP1 DUP2 MSTORE PUSH1 0x20 ADD PUSH1 0x0 KECCAK256 PUSH1 0x6 ADD DUP2 SWAP1 SSTORE POP PUSH2 0x2710 DUP6 PUSH3 0x642 SWAP2 SWAP1 PUSH3 0x1300 JUMP JUMPDEST PUSH1 0x1 PUSH1 0x0 DUP9 DUP2 MSTORE PUSH1 0x20 ADD SWAP1 DUP2 MSTORE PUSH1 0x20 ADD PUSH1 0x0 KECCAK256 PUSH1 0x5 ADD DUP2 SWAP1 SSTORE POP PUSH1 0x0 DUP3 DUP5 PUSH1 0x40 MLOAD PUSH3 0x66E SWAP1 PUSH3 0xA3D JUMP JUMPDEST PUSH3 0x67B SWAP3 SWAP2 SWAP1 PUSH3 0x13B0 JUMP JUMPDEST PUSH1 0x40 MLOAD DUP1 SWAP2 SUB SWAP1 PUSH1 0x0 CREATE DUP1 ISZERO DUP1 ISZERO PUSH3 0x698 JUMPI RETURNDATASIZE PUSH1 0x0 DUP1 RETURNDATACOPY RETURNDATASIZE PUSH1 0x0 REVERT JUMPDEST POP SWAP1 POP DUP1 PUSH1 0x1 PUSH1 0x0 DUP10 DUP2 MSTORE PUSH1 0x20 ADD SWAP1 DUP2 MSTORE PUSH1 0x20 ADD PUSH1 0x0 KECCAK256 PUSH1 0x7 ADD PUSH1 0x0 PUSH2 0x100 EXP DUP2 SLOAD DUP2 PUSH20 0xFFFFFFFFFFFFFFFFFFFFFFFFFFFFFFFFFFFFFFFF MUL NOT AND SWAP1 DUP4 PUSH20 0xFFFFFFFFFFFFFFFFFFFFFFFFFFFFFFFFFFFFFFFF AND MUL OR SWAP1 SSTORE POP POP POP POP POP POP POP POP JUMP JUMPDEST PUSH1 0x1 ISZERO ISZERO PUSH1 0x1 PUSH1 0x0 DUP5 DUP2 MSTORE PUSH1 0x20 ADD SWAP1 DUP2 MSTORE PUSH1 0x20 ADD PUSH1 0x0 KECCAK256 PUSH1 0x1 ADD PUSH1 0x14 SWAP1 SLOAD SWAP1 PUSH2 0x100 EXP SWAP1 DIV PUSH1 0xFF AND ISZERO ISZERO EQ PUSH3 0x766 JUMPI PUSH1 0x40 MLOAD PUSH32 0x8C379A000000000000000000000000000000000000000000000000000000000 DUP2 MSTORE PUSH1 0x4 ADD PUSH3 0x75D SWAP1 PUSH3 0x1487 JUMP JUMPDEST PUSH1 0x40 MLOAD DUP1 SWAP2 SUB SWAP1 REVERT JUMPDEST PUSH1 0x0 DUP2 GT DUP1 ISZERO PUSH3 0x78D JUMPI POP PUSH1 0x1 PUSH1 0x0 DUP4 DUP2 MSTORE PUSH1 0x20 ADD SWAP1 DUP2 MSTORE PUSH1 0x20 ADD PUSH1 0x0 KECCAK256 PUSH1 0x6 ADD SLOAD DUP2 GT ISZERO JUMPDEST PUSH3 0x7CF JUMPI PUSH1 0x40 MLOAD PUSH32 0x8C379A000000000000000000000000000000000000000000000000000000000 DUP2 MSTORE PUSH1 0x4 ADD PUSH3 0x7C6 SWAP1 PUSH3 0x1545 JUMP JUMPDEST PUSH1 0x40 MLOAD DUP1 SWAP2 SUB SWAP1 REVERT JUMPDEST PUSH1 0x1 PUSH1 0x0 DUP4 DUP2 MSTORE PUSH1 0x20 ADD SWAP1 DUP2 MSTORE PUSH1 0x20 ADD PUSH1 0x0 KECCAK256 PUSH1 0x5 ADD SLOAD DUP2 PUSH3 0x7F3 SWAP2 SWAP1 PUSH3 0x1286 JUMP JUMPDEST CALLVALUE EQ PUSH3 0x837 JUMPI PUSH1 0x40 MLOAD PUSH32 0x8C379A000000000000000000000000000000000000000000000000000000000 DUP2 MSTORE PUSH1 0x4 ADD PUSH3 0x82E SWAP1 PUSH3 0x15DD JUMP JUMPDEST PUSH1 0x40 MLOAD DUP1 SWAP2 SUB SWAP1 REVERT JUMPDEST DUP1 PUSH1 0x2 PUSH1 0x0 DUP5 DUP2 MSTORE PUSH1 0x20 ADD SWAP1 DUP2 MSTORE PUSH1 0x20 ADD PUSH1 0x0 KECCAK256 PUSH1 0x0 CALLER PUSH20 0xFFFFFFFFFFFFFFFFFFFFFFFFFFFFFFFFFFFFFFFF AND PUSH20 0xFFFFFFFFFFFFFFFFFFFFFFFFFFFFFFFFFFFFFFFF AND DUP2 MSTORE PUSH1 0x20 ADD SWAP1 DUP2 MSTORE PUSH1 0x20 ADD PUSH1 0x0 KECCAK256 DUP2 SWAP1 SSTORE POP DUP1 PUSH1 0x1 PUSH1 0x0 DUP5 DUP2 MSTORE PUSH1 0x20 ADD SWAP1 DUP2 MSTORE PUSH1 0x20 ADD PUSH1 0x0 KECCAK256 PUSH1 0x6 ADD PUSH1 0x0 DUP3 DUP3 SLOAD PUSH3 0x8B4 SWAP2 SWAP1 PUSH3 0x15FF JUMP JUMPDEST SWAP3 POP POP DUP2 SWAP1 SSTORE POP PUSH1 0x1 PUSH1 0x0 DUP4 DUP2 MSTORE PUSH1 0x20 ADD SWAP1 DUP2 MSTORE PUSH1 0x20 ADD PUSH1 0x0 KECCAK256 PUSH1 0x7 ADD PUSH1 0x0 SWAP1 SLOAD SWAP1 PUSH2 0x100 EXP SWAP1 DIV PUSH20 0xFFFFFFFFFFFFFFFFFFFFFFFFFFFFFFFFFFFFFFFF AND PUSH20 0xFFFFFFFFFFFFFFFFFFFFFFFFFFFFFFFFFFFFFFFF AND PUSH4 0x40C10F19 CALLER DUP4 PUSH1 0x40 MLOAD DUP4 PUSH4 0xFFFFFFFF AND PUSH1 0xE0 SHL DUP2 MSTORE PUSH1 0x4 ADD PUSH3 0x92E SWAP3 SWAP2 SWAP1 PUSH3 0x163A JUMP JUMPDEST PUSH1 0x0 PUSH1 0x40 MLOAD DUP1 DUP4 SUB DUP2 PUSH1 0x0 DUP8 DUP1 EXTCODESIZE ISZERO DUP1 ISZERO PUSH3 0x949 JUMPI PUSH1 0x0 DUP1 REVERT JUMPDEST POP GAS CALL ISZERO DUP1 ISZERO PUSH3 0x95E JUMPI RETURNDATASIZE PUSH1 0x0 DUP1 RETURNDATACOPY RETURNDATASIZE PUSH1 0x0 REVERT JUMPDEST POP POP POP POP PUSH1 0x0 PUSH1 0x1 PUSH1 0x0 DUP5 DUP2 MSTORE PUSH1 0x20 ADD SWAP1 DUP2 MSTORE PUSH1 0x20 ADD PUSH1 0x0 KECCAK256 PUSH1 0x0 ADD PUSH1 0x0 SWAP1 SLOAD SWAP1 PUSH2 0x100 EXP SWAP1 DIV PUSH20 0xFFFFFFFFFFFFFFFFFFFFFFFFFFFFFFFFFFFFFFFF AND PUSH20 0xFFFFFFFFFFFFFFFFFFFFFFFFFFFFFFFFFFFFFFFF AND CALLVALUE PUSH1 0x40 MLOAD PUSH3 0x9C0 SWAP1 PUSH3 0x169C JUMP JUMPDEST PUSH1 0x0 PUSH1 0x40 MLOAD DUP1 DUP4 SUB DUP2 DUP6 DUP8 GAS CALL SWAP3 POP POP POP RETURNDATASIZE DUP1 PUSH1 0x0 DUP2 EQ PUSH3 0x9FF JUMPI PUSH1 0x40 MLOAD SWAP2 POP PUSH1 0x1F NOT PUSH1 0x3F RETURNDATASIZE ADD AND DUP3 ADD PUSH1 0x40 MSTORE RETURNDATASIZE DUP3 MSTORE RETURNDATASIZE PUSH1 0x0 PUSH1 0x20 DUP5 ADD RETURNDATACOPY PUSH3 0xA04 JUMP JUMPDEST PUSH1 0x60 SWAP2 POP JUMPDEST POP POP SWAP1 POP DUP1 PUSH3 0xA13 JUMPI PUSH1 0x0 DUP1 REVERT JUMPDEST POP POP POP JUMP JUMPDEST PUSH1 0x2 PUSH1 0x20 MSTORE DUP2 PUSH1 0x0 MSTORE PUSH1 0x40 PUSH1 0x0 KECCAK256 PUSH1 0x20 MSTORE DUP1 PUSH1 0x0 MSTORE PUSH1 0x40 PUSH1 0x0 KECCAK256 PUSH1 0x0 SWAP2 POP SWAP2 POP POP SLOAD DUP2 JUMP JUMPDEST PUSH2 0x365E DUP1 PUSH3 0x16B4 DUP4 CODECOPY ADD SWAP1 JUMP JUMPDEST PUSH1 0x0 DUP2 SWAP1 POP SWAP2 SWAP1 POP JUMP JUMPDEST PUSH3 0xA60 DUP2 PUSH3 0xA4B JUMP JUMPDEST DUP3 MSTORE POP POP JUMP JUMPDEST PUSH1 0x0 PUSH1 0x20 DUP3 ADD SWAP1 POP PUSH3 0xA7D PUSH1 0x0 DUP4 ADD DUP5 PUSH3 0xA55 JUMP JUMPDEST SWAP3 SWAP2 POP POP JUMP JUMPDEST PUSH1 0x0 PUSH20 0xFFFFFFFFFFFFFFFFFFFFFFFFFFFFFFFFFFFFFFFF DUP3 AND SWAP1 POP SWAP2 SWAP1 POP JUMP JUMPDEST PUSH1 0x0 PUSH3 0xAB0 DUP3 PUSH3 0xA83 JUMP JUMPDEST SWAP1 POP SWAP2 SWAP1 POP JUMP JUMPDEST PUSH3 0xAC2 DUP2 PUSH3 0xAA3 JUMP JUMPDEST DUP3 MSTORE POP POP JUMP JUMPDEST PUSH1 0x0 PUSH1 0x20 DUP3 ADD SWAP1 POP PUSH3 0xADF PUSH1 0x0 DUP4 ADD DUP5 PUSH3 0xAB7 JUMP JUMPDEST SWAP3 SWAP2 POP POP JUMP JUMPDEST PUSH1 0x0 PUSH1 0x40 MLOAD SWAP1 POP SWAP1 JUMP JUMPDEST PUSH1 0x0 DUP1 REVERT JUMPDEST PUSH1 0x0 DUP1 REVERT JUMPDEST PUSH3 0xB04 DUP2 PUSH3 0xA4B JUMP JUMPDEST DUP2 EQ PUSH3 0xB10 JUMPI PUSH1 0x0 DUP1 REVERT JUMPDEST POP JUMP JUMPDEST PUSH1 0x0 DUP2 CALLDATALOAD SWAP1 POP PUSH3 0xB24 DUP2 PUSH3 0xAF9 JUMP JUMPDEST SWAP3 SWAP2 POP POP JUMP JUMPDEST PUSH1 0x0 PUSH1 0x20 DUP3 DUP5 SUB SLT ISZERO PUSH3 0xB43 JUMPI PUSH3 0xB42 PUSH3 0xAEF JUMP JUMPDEST JUMPDEST PUSH1 0x0 PUSH3 0xB53 DUP5 DUP3 DUP6 ADD PUSH3 0xB13 JUMP JUMPDEST SWAP2 POP POP SWAP3 SWAP2 POP POP JUMP JUMPDEST PUSH1 0x0 PUSH3 0xB69 DUP3 PUSH3 0xA83 JUMP JUMPDEST SWAP1 POP SWAP2 SWAP1 POP JUMP JUMPDEST PUSH3 0xB7B DUP2 PUSH3 0xB5C JUMP JUMPDEST DUP3 MSTORE POP POP JUMP JUMPDEST PUSH1 0x0 DUP2 ISZERO ISZERO SWAP1 POP SWAP2 SWAP1 POP JUMP JUMPDEST PUSH3 0xB98 DUP2 PUSH3 0xB81 JUMP JUMPDEST DUP3 MSTORE POP POP JUMP JUMPDEST PUSH1 0x0 DUP2 SWAP1 POP SWAP2 SWAP1 POP JUMP JUMPDEST PUSH1 0x0 PUSH3 0xBC9 PUSH3 0xBC3 PUSH3 0xBBD DUP5 PUSH3 0xA83 JUMP JUMPDEST PUSH3 0xB9E JUMP JUMPDEST PUSH3 0xA83 JUMP JUMPDEST SWAP1 POP SWAP2 SWAP1 POP JUMP JUMPDEST PUSH1 0x0 PUSH3 0xBDD DUP3 PUSH3 0xBA8 JUMP JUMPDEST SWAP1 POP SWAP2 SWAP1 POP JUMP JUMPDEST PUSH1 0x0 PUSH3 0xBF1 DUP3 PUSH3 0xBD0 JUMP JUMPDEST SWAP1 POP SWAP2 SWAP1 POP JUMP JUMPDEST PUSH3 0xC03 DUP2 PUSH3 0xBE4 JUMP JUMPDEST DUP3 MSTORE POP POP JUMP JUMPDEST PUSH1 0x0 PUSH2 0x120 DUP3 ADD SWAP1 POP PUSH3 0xC21 PUSH1 0x0 DUP4 ADD DUP13 PUSH3 0xB70 JUMP JUMPDEST PUSH3 0xC30 PUSH1 0x20 DUP4 ADD DUP12 PUSH3 0xAB7 JUMP JUMPDEST PUSH3 0xC3F PUSH1 0x40 DUP4 ADD DUP11 PUSH3 0xB8D JUMP JUMPDEST PUSH3 0xC4E PUSH1 0x60 DUP4 ADD DUP10 PUSH3 0xA55 JUMP JUMPDEST PUSH3 0xC5D PUSH1 0x80 DUP4 ADD DUP9 PUSH3 0xB8D JUMP JUMPDEST PUSH3 0xC6C PUSH1 0xA0 DUP4 ADD DUP8 PUSH3 0xA55 JUMP JUMPDEST PUSH3 0xC7B PUSH1 0xC0 DUP4 ADD DUP7 PUSH3 0xA55 JUMP JUMPDEST PUSH3 0xC8A PUSH1 0xE0 DUP4 ADD DUP6 PUSH3 0xA55 JUMP JUMPDEST PUSH3 0xC9A PUSH2 0x100 DUP4 ADD DUP5 PUSH3 0xBF8 JUMP JUMPDEST SWAP11 SWAP10 POP POP POP POP POP POP POP POP POP POP JUMP JUMPDEST PUSH3 0xCB3 DUP2 PUSH3 0xB81 JUMP JUMPDEST DUP2 EQ PUSH3 0xCBF JUMPI PUSH1 0x0 DUP1 REVERT JUMPDEST POP JUMP JUMPDEST PUSH1 0x0 DUP2 CALLDATALOAD SWAP1 POP PUSH3 0xCD3 DUP2 PUSH3 0xCA8 JUMP JUMPDEST SWAP3 SWAP2 POP POP JUMP JUMPDEST PUSH1 0x0 DUP1 PUSH1 0x40 DUP4 DUP6 SUB SLT ISZERO PUSH3 0xCF3 JUMPI PUSH3 0xCF2 PUSH3 0xAEF JUMP JUMPDEST JUMPDEST PUSH1 0x0 PUSH3 0xD03 DUP6 DUP3 DUP7 ADD PUSH3 0xB13 JUMP JUMPDEST SWAP3 POP POP PUSH1 0x20 PUSH3 0xD16 DUP6 DUP3 DUP7 ADD PUSH3 0xCC2 JUMP JUMPDEST SWAP2 POP POP SWAP3 POP SWAP3 SWAP1 POP JUMP JUMPDEST PUSH1 0x0 DUP1 REVERT JUMPDEST PUSH1 0x0 DUP1 REVERT JUMPDEST PUSH1 0x0 PUSH1 0x1F NOT PUSH1 0x1F DUP4 ADD AND SWAP1 POP SWAP2 SWAP1 POP JUMP JUMPDEST PUSH32 0x4E487B7100000000000000000000000000000000000000000000000000000000 PUSH1 0x0 MSTORE PUSH1 0x41 PUSH1 0x4 MSTORE PUSH1 0x24 PUSH1 0x0 REVERT JUMPDEST PUSH3 0xD75 DUP3 PUSH3 0xD2A JUMP JUMPDEST DUP2 ADD DUP2 DUP2 LT PUSH8 0xFFFFFFFFFFFFFFFF DUP3 GT OR ISZERO PUSH3 0xD97 JUMPI PUSH3 0xD96 PUSH3 0xD3B JUMP JUMPDEST JUMPDEST DUP1 PUSH1 0x40 MSTORE POP POP POP JUMP JUMPDEST PUSH1 0x0 PUSH3 0xDAC PUSH3 0xAE5 JUMP JUMPDEST SWAP1 POP PUSH3 0xDBA DUP3 DUP3 PUSH3 0xD6A JUMP JUMPDEST SWAP2 SWAP1 POP JUMP JUMPDEST PUSH1 0x0 PUSH8 0xFFFFFFFFFFFFFFFF DUP3 GT ISZERO PUSH3 0xDDD JUMPI PUSH3 0xDDC PUSH3 0xD3B JUMP JUMPDEST JUMPDEST PUSH3 0xDE8 DUP3 PUSH3 0xD2A JUMP JUMPDEST SWAP1 POP PUSH1 0x20 DUP2 ADD SWAP1 POP SWAP2 SWAP1 POP JUMP JUMPDEST DUP3 DUP2 DUP4 CALLDATACOPY PUSH1 0x0 DUP4 DUP4 ADD MSTORE POP POP POP JUMP JUMPDEST PUSH1 0x0 PUSH3 0xE1B PUSH3 0xE15 DUP5 PUSH3 0xDBF JUMP JUMPDEST PUSH3 0xDA0 JUMP JUMPDEST SWAP1 POP DUP3 DUP2 MSTORE PUSH1 0x20 DUP2 ADD DUP5 DUP5 DUP5 ADD GT ISZERO PUSH3 0xE3A JUMPI PUSH3 0xE39 PUSH3 0xD25 JUMP JUMPDEST JUMPDEST PUSH3 0xE47 DUP5 DUP3 DUP6 PUSH3 0xDF5 JUMP JUMPDEST POP SWAP4 SWAP3 POP POP POP JUMP JUMPDEST PUSH1 0x0 DUP3 PUSH1 0x1F DUP4 ADD SLT PUSH3 0xE67 JUMPI PUSH3 0xE66 PUSH3 0xD20 JUMP JUMPDEST JUMPDEST DUP2 CALLDATALOAD PUSH3 0xE79 DUP5 DUP3 PUSH1 0x20 DUP7 ADD PUSH3 0xE04 JUMP JUMPDEST SWAP2 POP POP SWAP3 SWAP2 POP POP JUMP JUMPDEST PUSH3 0xE8D DUP2 PUSH3 0xAA3 JUMP JUMPDEST DUP2 EQ PUSH3 0xE99 JUMPI PUSH1 0x0 DUP1 REVERT JUMPDEST POP JUMP JUMPDEST PUSH1 0x0 DUP2 CALLDATALOAD SWAP1 POP PUSH3 0xEAD DUP2 PUSH3 0xE82 JUMP JUMPDEST SWAP3 SWAP2 POP POP JUMP JUMPDEST PUSH1 0x0 DUP1 PUSH1 0x0 DUP1 PUSH1 0x0 DUP1 PUSH1 0xC0 DUP8 DUP10 SUB SLT ISZERO PUSH3 0xED3 JUMPI PUSH3 0xED2 PUSH3 0xAEF JUMP JUMPDEST JUMPDEST PUSH1 0x0 PUSH3 0xEE3 DUP10 DUP3 DUP11 ADD PUSH3 0xB13 JUMP JUMPDEST SWAP7 POP POP PUSH1 0x20 PUSH3 0xEF6 DUP10 DUP3 DUP11 ADD PUSH3 0xB13 JUMP JUMPDEST SWAP6 POP POP PUSH1 0x40 PUSH3 0xF09 DUP10 DUP3 DUP11 ADD PUSH3 0xB13 JUMP JUMPDEST SWAP5 POP POP PUSH1 0x60 DUP8 ADD CALLDATALOAD PUSH8 0xFFFFFFFFFFFFFFFF DUP2 GT ISZERO PUSH3 0xF2D JUMPI PUSH3 0xF2C PUSH3 0xAF4 JUMP JUMPDEST JUMPDEST PUSH3 0xF3B DUP10 DUP3 DUP11 ADD PUSH3 0xE4F JUMP JUMPDEST SWAP4 POP POP PUSH1 0x80 DUP8 ADD CALLDATALOAD PUSH8 0xFFFFFFFFFFFFFFFF DUP2 GT ISZERO PUSH3 0xF5F JUMPI PUSH3 0xF5E PUSH3 0xAF4 JUMP JUMPDEST JUMPDEST PUSH3 0xF6D DUP10 DUP3 DUP11 ADD PUSH3 0xE4F JUMP JUMPDEST SWAP3 POP POP PUSH1 0xA0 PUSH3 0xF80 DUP10 DUP3 DUP11 ADD PUSH3 0xE9C JUMP JUMPDEST SWAP2 POP POP SWAP3 SWAP6 POP SWAP3 SWAP6 POP SWAP3 SWAP6 JUMP JUMPDEST PUSH1 0x0 DUP1 PUSH1 0x40 DUP4 DUP6 SUB SLT ISZERO PUSH3 0xFA7 JUMPI PUSH3 0xFA6 PUSH3 0xAEF JUMP JUMPDEST JUMPDEST PUSH1 0x0 PUSH3 0xFB7 DUP6 DUP3 DUP7 ADD PUSH3 0xB13 JUMP JUMPDEST SWAP3 POP POP PUSH1 0x20 PUSH3 0xFCA DUP6 DUP3 DUP7 ADD PUSH3 0xB13 JUMP JUMPDEST SWAP2 POP POP SWAP3 POP SWAP3 SWAP1 POP JUMP JUMPDEST PUSH1 0x0 DUP1 PUSH1 0x40 DUP4 DUP6 SUB SLT ISZERO PUSH3 0xFEE JUMPI PUSH3 0xFED PUSH3 0xAEF JUMP JUMPDEST JUMPDEST PUSH1 0x0 PUSH3 0xFFE DUP6 DUP3 DUP7 ADD PUSH3 0xB13 JUMP JUMPDEST SWAP3 POP POP PUSH1 0x20 PUSH3 0x1011 DUP6 DUP3 DUP7 ADD PUSH3 0xE9C JUMP JUMPDEST SWAP2 POP POP SWAP3 POP SWAP3 SWAP1 POP JUMP JUMPDEST PUSH1 0x0 DUP3 DUP3 MSTORE PUSH1 0x20 DUP3 ADD SWAP1 POP SWAP3 SWAP2 POP POP JUMP JUMPDEST PUSH32 0x4F6E6C7920696E73706563746F722063616E207570646174652074686520696E PUSH1 0x0 DUP3 ADD MSTORE PUSH32 0x7370656374696F6E207374617475730000000000000000000000000000000000 PUSH1 0x20 DUP3 ADD MSTORE POP JUMP JUMPDEST PUSH1 0x0 PUSH3 0x108A PUSH1 0x2F DUP4 PUSH3 0x101B JUMP JUMPDEST SWAP2 POP PUSH3 0x1097 DUP3 PUSH3 0x102C JUMP JUMPDEST PUSH1 0x40 DUP3 ADD SWAP1 POP SWAP2 SWAP1 POP JUMP JUMPDEST PUSH1 0x0 PUSH1 0x20 DUP3 ADD SWAP1 POP DUP2 DUP2 SUB PUSH1 0x0 DUP4 ADD MSTORE PUSH3 0x10BD DUP2 PUSH3 0x107B JUMP JUMPDEST SWAP1 POP SWAP2 SWAP1 POP JUMP JUMPDEST PUSH32 0x4F776E65722073686F756C64206B656570206174206C6561737420323525206F PUSH1 0x0 DUP3 ADD MSTORE PUSH32 0x66207468652070726F70657274792C207768696C65206F66666572696E672061 PUSH1 0x20 DUP3 ADD MSTORE PUSH32 0x74206C6561737420323025206F662070726F7065727479207368617265730000 PUSH1 0x40 DUP3 ADD MSTORE POP JUMP JUMPDEST PUSH1 0x0 PUSH3 0x1148 PUSH1 0x5E DUP4 PUSH3 0x101B JUMP JUMPDEST SWAP2 POP PUSH3 0x1155 DUP3 PUSH3 0x10C4 JUMP JUMPDEST PUSH1 0x60 DUP3 ADD SWAP1 POP SWAP2 SWAP1 POP JUMP JUMPDEST PUSH1 0x0 PUSH1 0x20 DUP3 ADD SWAP1 POP DUP2 DUP2 SUB PUSH1 0x0 DUP4 ADD MSTORE PUSH3 0x117B DUP2 PUSH3 0x1139 JUMP JUMPDEST SWAP1 POP SWAP2 SWAP1 POP JUMP JUMPDEST PUSH32 0x546F74616C2076616C7565206F66207468652070726F70657274792073686F75 PUSH1 0x0 DUP3 ADD MSTORE PUSH32 0x6C642062652067726561746572207468616E2030000000000000000000000000 PUSH1 0x20 DUP3 ADD MSTORE POP JUMP JUMPDEST PUSH1 0x0 PUSH3 0x11E0 PUSH1 0x34 DUP4 PUSH3 0x101B JUMP JUMPDEST SWAP2 POP PUSH3 0x11ED DUP3 PUSH3 0x1182 JUMP JUMPDEST PUSH1 0x40 DUP3 ADD SWAP1 POP SWAP2 SWAP1 POP JUMP JUMPDEST PUSH1 0x0 PUSH1 0x20 DUP3 ADD SWAP1 POP DUP2 DUP2 SUB PUSH1 0x0 DUP4 ADD MSTORE PUSH3 0x1213 DUP2 PUSH3 0x11D1 JUMP JUMPDEST SWAP1 POP SWAP2 SWAP1 POP JUMP JUMPDEST PUSH1 0x0 PUSH1 0x60 DUP3 ADD SWAP1 POP PUSH3 0x1231 PUSH1 0x0 DUP4 ADD DUP7 PUSH3 0xAB7 JUMP JUMPDEST PUSH3 0x1240 PUSH1 0x20 DUP4 ADD DUP6 PUSH3 0xAB7 JUMP JUMPDEST PUSH3 0x124F PUSH1 0x40 DUP4 ADD DUP5 PUSH3 0xA55 JUMP JUMPDEST SWAP5 SWAP4 POP POP POP POP JUMP JUMPDEST PUSH32 0x4E487B7100000000000000000000000000000000000000000000000000000000 PUSH1 0x0 MSTORE PUSH1 0x11 PUSH1 0x4 MSTORE PUSH1 0x24 PUSH1 0x0 REVERT JUMPDEST PUSH1 0x0 PUSH3 0x1293 DUP3 PUSH3 0xA4B JUMP JUMPDEST SWAP2 POP PUSH3 0x12A0 DUP4 PUSH3 0xA4B JUMP JUMPDEST SWAP3 POP DUP3 DUP3 MUL PUSH3 0x12B0 DUP2 PUSH3 0xA4B JUMP JUMPDEST SWAP2 POP DUP3 DUP3 DIV DUP5 EQ DUP4 ISZERO OR PUSH3 0x12CA JUMPI PUSH3 0x12C9 PUSH3 0x1257 JUMP JUMPDEST JUMPDEST POP SWAP3 SWAP2 POP POP JUMP JUMPDEST PUSH32 0x4E487B7100000000000000000000000000000000000000000000000000000000 PUSH1 0x0 MSTORE PUSH1 0x12 PUSH1 0x4 MSTORE PUSH1 0x24 PUSH1 0x0 REVERT JUMPDEST PUSH1 0x0 PUSH3 0x130D DUP3 PUSH3 0xA4B JUMP JUMPDEST SWAP2 POP PUSH3 0x131A DUP4 PUSH3 0xA4B JUMP JUMPDEST SWAP3 POP DUP3 PUSH3 0x132D JUMPI PUSH3 0x132C PUSH3 0x12D1 JUMP JUMPDEST JUMPDEST DUP3 DUP3 DIV SWAP1 POP SWAP3 SWAP2 POP POP JUMP JUMPDEST PUSH1 0x0 DUP2 MLOAD SWAP1 POP SWAP2 SWAP1 POP JUMP JUMPDEST PUSH1 0x0 JUMPDEST DUP4 DUP2 LT ISZERO PUSH3 0x1363 JUMPI DUP1 DUP3 ADD MLOAD DUP2 DUP5 ADD MSTORE PUSH1 0x20 DUP2 ADD SWAP1 POP PUSH3 0x1346 JUMP JUMPDEST PUSH1 0x0 DUP5 DUP5 ADD MSTORE POP POP POP POP JUMP JUMPDEST PUSH1 0x0 PUSH3 0x137C DUP3 PUSH3 0x1338 JUMP JUMPDEST PUSH3 0x1388 DUP2 DUP6 PUSH3 0x101B JUMP JUMPDEST SWAP4 POP PUSH3 0x139A DUP2 DUP6 PUSH1 0x20 DUP7 ADD PUSH3 0x1343 JUMP JUMPDEST PUSH3 0x13A5 DUP2 PUSH3 0xD2A JUMP JUMPDEST DUP5 ADD SWAP2 POP POP SWAP3 SWAP2 POP POP JUMP JUMPDEST PUSH1 0x0 PUSH1 0x40 DUP3 ADD SWAP1 POP DUP2 DUP2 SUB PUSH1 0x0 DUP4 ADD MSTORE PUSH3 0x13CC DUP2 DUP6 PUSH3 0x136F JUMP JUMPDEST SWAP1 POP DUP2 DUP2 SUB PUSH1 0x20 DUP4 ADD MSTORE PUSH3 0x13E2 DUP2 DUP5 PUSH3 0x136F JUMP JUMPDEST SWAP1 POP SWAP4 SWAP3 POP POP POP JUMP JUMPDEST PUSH32 0x5468652070726F7065727479206469646E277420706173732074686520696E73 PUSH1 0x0 DUP3 ADD MSTORE PUSH32 0x70656374696F6E20636865636B207965742C2063616E6E6F7420626520696E76 PUSH1 0x20 DUP3 ADD MSTORE PUSH32 0x6573746564000000000000000000000000000000000000000000000000000000 PUSH1 0x40 DUP3 ADD MSTORE POP JUMP JUMPDEST PUSH1 0x0 PUSH3 0x146F PUSH1 0x45 DUP4 PUSH3 0x101B JUMP JUMPDEST SWAP2 POP PUSH3 0x147C DUP3 PUSH3 0x13EB JUMP JUMPDEST PUSH1 0x60 DUP3 ADD SWAP1 POP SWAP2 SWAP1 POP JUMP JUMPDEST PUSH1 0x0 PUSH1 0x20 DUP3 ADD SWAP1 POP DUP2 DUP2 SUB PUSH1 0x0 DUP4 ADD MSTORE PUSH3 0x14A2 DUP2 PUSH3 0x1460 JUMP JUMPDEST SWAP1 POP SWAP2 SWAP1 POP JUMP JUMPDEST PUSH32 0x4E756D626572206F6620746F6B656E732073686F756C64206265206772656174 PUSH1 0x0 DUP3 ADD MSTORE PUSH32 0x6572207468616E207A65726F20616E64206C657373207468616E206E756D6265 PUSH1 0x20 DUP3 ADD MSTORE PUSH32 0x72206F6620617661696C61626C6520746F6B656E730000000000000000000000 PUSH1 0x40 DUP3 ADD MSTORE POP JUMP JUMPDEST PUSH1 0x0 PUSH3 0x152D PUSH1 0x55 DUP4 PUSH3 0x101B JUMP JUMPDEST SWAP2 POP PUSH3 0x153A DUP3 PUSH3 0x14A9 JUMP JUMPDEST PUSH1 0x60 DUP3 ADD SWAP1 POP SWAP2 SWAP1 POP JUMP JUMPDEST PUSH1 0x0 PUSH1 0x20 DUP3 ADD SWAP1 POP DUP2 DUP2 SUB PUSH1 0x0 DUP4 ADD MSTORE PUSH3 0x1560 DUP2 PUSH3 0x151E JUMP JUMPDEST SWAP1 POP SWAP2 SWAP1 POP JUMP JUMPDEST PUSH32 0x4E6F7420657861637420616D6F756E74206F66204574686572207472616E7366 PUSH1 0x0 DUP3 ADD MSTORE PUSH32 0x6572656420746F20707572636861736520746F6B656E73000000000000000000 PUSH1 0x20 DUP3 ADD MSTORE POP JUMP JUMPDEST PUSH1 0x0 PUSH3 0x15C5 PUSH1 0x37 DUP4 PUSH3 0x101B JUMP JUMPDEST SWAP2 POP PUSH3 0x15D2 DUP3 PUSH3 0x1567 JUMP JUMPDEST PUSH1 0x40 DUP3 ADD SWAP1 POP SWAP2 SWAP1 POP JUMP JUMPDEST PUSH1 0x0 PUSH1 0x20 DUP3 ADD SWAP1 POP DUP2 DUP2 SUB PUSH1 0x0 DUP4 ADD MSTORE PUSH3 0x15F8 DUP2 PUSH3 0x15B6 JUMP JUMPDEST SWAP1 POP SWAP2 SWAP1 POP JUMP JUMPDEST PUSH1 0x0 PUSH3 0x160C DUP3 PUSH3 0xA4B JUMP JUMPDEST SWAP2 POP PUSH3 0x1619 DUP4 PUSH3 0xA4B JUMP JUMPDEST SWAP3 POP DUP3 DUP3 SUB SWAP1 POP DUP2 DUP2 GT ISZERO PUSH3 0x1634 JUMPI PUSH3 0x1633 PUSH3 0x1257 JUMP JUMPDEST JUMPDEST SWAP3 SWAP2 POP POP JUMP JUMPDEST PUSH1 0x0 PUSH1 0x40 DUP3 ADD SWAP1 POP PUSH3 0x1651 PUSH1 0x0 DUP4 ADD DUP6 PUSH3 0xAB7 JUMP JUMPDEST PUSH3 0x1660 PUSH1 0x20 DUP4 ADD DUP5 PUSH3 0xA55 JUMP JUMPDEST SWAP4 SWAP3 POP POP POP JUMP JUMPDEST PUSH1 0x0 DUP2 SWAP1 POP SWAP3 SWAP2 POP POP JUMP JUMPDEST POP JUMP JUMPDEST PUSH1 0x0 PUSH3 0x1684 PUSH1 0x0 DUP4 PUSH3 0x1667 JUMP JUMPDEST SWAP2 POP PUSH3 0x1691 DUP3 PUSH3 0x1672 JUMP JUMPDEST PUSH1 0x0 DUP3 ADD SWAP1 POP SWAP2 SWAP1 POP JUMP JUMPDEST PUSH1 0x0 PUSH3 0x16A9 DUP3 PUSH3 0x1675 JUMP JUMPDEST SWAP2 POP DUP2 SWAP1 POP SWAP2 SWAP1 POP JUMP INVALID PUSH2 0x160 PUSH1 0x40 MSTORE CALLVALUE DUP1 ISZERO PUSH3 0x12 JUMPI PUSH1 0x0 DUP1 REVERT JUMPDEST POP PUSH1 0x40 MLOAD PUSH3 0x365E CODESIZE SUB DUP1 PUSH3 0x365E DUP4 CODECOPY DUP2 DUP2 ADD PUSH1 0x40 MSTORE DUP2 ADD SWAP1 PUSH3 0x38 SWAP2 SWAP1 PUSH3 0x50D JUMP JUMPDEST DUP1 DUP1 PUSH1 0x40 MLOAD DUP1 PUSH1 0x40 ADD PUSH1 0x40 MSTORE DUP1 PUSH1 0x1 DUP2 MSTORE PUSH1 0x20 ADD PUSH32 0x3100000000000000000000000000000000000000000000000000000000000000 DUP2 MSTORE POP DUP4 DUP6 DUP2 PUSH1 0x3 SWAP1 DUP2 PUSH3 0x83 SWAP2 SWAP1 PUSH3 0x7DD JUMP JUMPDEST POP DUP1 PUSH1 0x4 SWAP1 DUP2 PUSH3 0x95 SWAP2 SWAP1 PUSH3 0x7DD JUMP JUMPDEST POP POP POP PUSH3 0xB8 PUSH3 0xAC PUSH3 0x17B PUSH1 0x20 SHL PUSH1 0x20 SHR JUMP JUMPDEST PUSH3 0x183 PUSH1 0x20 SHL PUSH1 0x20 SHR JUMP JUMPDEST PUSH3 0xD3 PUSH1 0x6 DUP4 PUSH3 0x249 PUSH1 0x20 SHL PUSH3 0xA7B OR SWAP1 SWAP2 SWAP1 PUSH1 0x20 SHR JUMP JUMPDEST PUSH2 0x120 DUP2 DUP2 MSTORE POP POP PUSH3 0xF6 PUSH1 0x7 DUP3 PUSH3 0x249 PUSH1 0x20 SHL PUSH3 0xA7B OR SWAP1 SWAP2 SWAP1 PUSH1 0x20 SHR JUMP JUMPDEST PUSH2 0x140 DUP2 DUP2 MSTORE POP POP DUP2 DUP1 MLOAD SWAP1 PUSH1 0x20 ADD KECCAK256 PUSH1 0xE0 DUP2 DUP2 MSTORE POP POP DUP1 DUP1 MLOAD SWAP1 PUSH1 0x20 ADD KECCAK256 PUSH2 0x100 DUP2 DUP2 MSTORE POP POP CHAINID PUSH1 0xA0 DUP2 DUP2 MSTORE POP POP PUSH3 0x135 PUSH3 0x2A6 PUSH1 0x20 SHL PUSH1 0x20 SHR JUMP JUMPDEST PUSH1 0x80 DUP2 DUP2 MSTORE POP POP ADDRESS PUSH20 0xFFFFFFFFFFFFFFFFFFFFFFFFFFFFFFFFFFFFFFFF AND PUSH1 0xC0 DUP2 PUSH20 0xFFFFFFFFFFFFFFFFFFFFFFFFFFFFFFFFFFFFFFFF AND DUP2 MSTORE POP POP POP POP POP POP POP PUSH3 0xAAA JUMP JUMPDEST PUSH1 0x0 CALLER SWAP1 POP SWAP1 JUMP JUMPDEST PUSH1 0x0 PUSH1 0x5 PUSH1 0x0 SWAP1 SLOAD SWAP1 PUSH2 0x100 EXP SWAP1 DIV PUSH20 0xFFFFFFFFFFFFFFFFFFFFFFFFFFFFFFFFFFFFFFFF AND SWAP1 POP DUP2 PUSH1 0x5 PUSH1 0x0 PUSH2 0x100 EXP DUP2 SLOAD DUP2 PUSH20 0xFFFFFFFFFFFFFFFFFFFFFFFFFFFFFFFFFFFFFFFF MUL NOT AND SWAP1 DUP4 PUSH20 0xFFFFFFFFFFFFFFFFFFFFFFFFFFFFFFFFFFFFFFFF AND MUL OR SWAP1 SSTORE POP DUP2 PUSH20 0xFFFFFFFFFFFFFFFFFFFFFFFFFFFFFFFFFFFFFFFF AND DUP2 PUSH20 0xFFFFFFFFFFFFFFFFFFFFFFFFFFFFFFFFFFFFFFFF AND PUSH32 0x8BE0079C531659141344CD1FD0A4F28419497F9722A3DAAFE3B4186F6B6457E0 PUSH1 0x40 MLOAD PUSH1 0x40 MLOAD DUP1 SWAP2 SUB SWAP1 LOG3 POP POP JUMP JUMPDEST PUSH1 0x0 PUSH1 0x20 DUP4 MLOAD LT ISZERO PUSH3 0x26F JUMPI PUSH3 0x267 DUP4 PUSH3 0x303 PUSH1 0x20 SHL PUSH1 0x20 SHR JUMP JUMPDEST SWAP1 POP PUSH3 0x2A0 JUMP JUMPDEST DUP3 PUSH3 0x286 DUP4 PUSH3 0x370 PUSH1 0x20 SHL PUSH3 0xABF OR PUSH1 0x20 SHR JUMP JUMPDEST PUSH1 0x0 ADD SWAP1 DUP2 PUSH3 0x297 SWAP2 SWAP1 PUSH3 0x7DD JUMP JUMPDEST POP PUSH1 0xFF PUSH1 0x0 SHL SWAP1 POP JUMPDEST SWAP3 SWAP2 POP POP JUMP JUMPDEST PUSH1 0x0 PUSH32 0x8B73C3C69BB8FE3D512ECC4CF759CC79239F7B179B0FFACAA9A75D522B39400F PUSH1 0xE0 MLOAD PUSH2 0x100 MLOAD CHAINID ADDRESS PUSH1 0x40 MLOAD PUSH1 0x20 ADD PUSH3 0x2E8 SWAP6 SWAP5 SWAP4 SWAP3 SWAP2 SWAP1 PUSH3 0x935 JUMP JUMPDEST PUSH1 0x40 MLOAD PUSH1 0x20 DUP2 DUP4 SUB SUB DUP2 MSTORE SWAP1 PUSH1 0x40 MSTORE DUP1 MLOAD SWAP1 PUSH1 0x20 ADD KECCAK256 SWAP1 POP SWAP1 JUMP JUMPDEST PUSH1 0x0 DUP1 DUP3 SWAP1 POP PUSH1 0x1F DUP2 MLOAD GT ISZERO PUSH3 0x353 JUMPI DUP3 PUSH1 0x40 MLOAD PUSH32 0x305A27A900000000000000000000000000000000000000000000000000000000 DUP2 MSTORE PUSH1 0x4 ADD PUSH3 0x34A SWAP2 SWAP1 PUSH3 0x9E4 JUMP JUMPDEST PUSH1 0x40 MLOAD DUP1 SWAP2 SUB SWAP1 REVERT JUMPDEST DUP1 MLOAD DUP2 PUSH3 0x361 SWAP1 PUSH3 0xA3A JUMP JUMPDEST PUSH1 0x0 SHR OR PUSH1 0x0 SHL SWAP2 POP POP SWAP2 SWAP1 POP JUMP JUMPDEST PUSH1 0x0 DUP2 SWAP1 POP SWAP2 SWAP1 POP JUMP JUMPDEST PUSH1 0x0 PUSH1 0x40 MLOAD SWAP1 POP SWAP1 JUMP JUMPDEST PUSH1 0x0 DUP1 REVERT JUMPDEST PUSH1 0x0 DUP1 REVERT JUMPDEST PUSH1 0x0 DUP1 REVERT JUMPDEST PUSH1 0x0 DUP1 REVERT JUMPDEST PUSH1 0x0 PUSH1 0x1F NOT PUSH1 0x1F DUP4 ADD AND SWAP1 POP SWAP2 SWAP1 POP JUMP JUMPDEST PUSH32 0x4E487B7100000000000000000000000000000000000000000000000000000000 PUSH1 0x0 MSTORE PUSH1 0x41 PUSH1 0x4 MSTORE PUSH1 0x24 PUSH1 0x0 REVERT JUMPDEST PUSH3 0x3E3 DUP3 PUSH3 0x398 JUMP JUMPDEST DUP2 ADD DUP2 DUP2 LT PUSH8 0xFFFFFFFFFFFFFFFF DUP3 GT OR ISZERO PUSH3 0x405 JUMPI PUSH3 0x404 PUSH3 0x3A9 JUMP JUMPDEST JUMPDEST DUP1 PUSH1 0x40 MSTORE POP POP POP JUMP JUMPDEST PUSH1 0x0 PUSH3 0x41A PUSH3 0x37A JUMP JUMPDEST SWAP1 POP PUSH3 0x428 DUP3 DUP3 PUSH3 0x3D8 JUMP JUMPDEST SWAP2 SWAP1 POP JUMP JUMPDEST PUSH1 0x0 PUSH8 0xFFFFFFFFFFFFFFFF DUP3 GT ISZERO PUSH3 0x44B JUMPI PUSH3 0x44A PUSH3 0x3A9 JUMP JUMPDEST JUMPDEST PUSH3 0x456 DUP3 PUSH3 0x398 JUMP JUMPDEST SWAP1 POP PUSH1 0x20 DUP2 ADD SWAP1 POP SWAP2 SWAP1 POP JUMP JUMPDEST PUSH1 0x0 JUMPDEST DUP4 DUP2 LT ISZERO PUSH3 0x483 JUMPI DUP1 DUP3 ADD MLOAD DUP2 DUP5 ADD MSTORE PUSH1 0x20 DUP2 ADD SWAP1 POP PUSH3 0x466 JUMP JUMPDEST PUSH1 0x0 DUP5 DUP5 ADD MSTORE POP POP POP POP JUMP JUMPDEST PUSH1 0x0 PUSH3 0x4A6 PUSH3 0x4A0 DUP5 PUSH3 0x42D JUMP JUMPDEST PUSH3 0x40E JUMP JUMPDEST SWAP1 POP DUP3 DUP2 MSTORE PUSH1 0x20 DUP2 ADD DUP5 DUP5 DUP5 ADD GT ISZERO PUSH3 0x4C5 JUMPI PUSH3 0x4C4 PUSH3 0x393 JUMP JUMPDEST JUMPDEST PUSH3 0x4D2 DUP5 DUP3 DUP6 PUSH3 0x463 JUMP JUMPDEST POP SWAP4 SWAP3 POP POP POP JUMP JUMPDEST PUSH1 0x0 DUP3 PUSH1 0x1F DUP4 ADD SLT PUSH3 0x4F2 JUMPI PUSH3 0x4F1 PUSH3 0x38E JUMP JUMPDEST JUMPDEST DUP2 MLOAD PUSH3 0x504 DUP5 DUP3 PUSH1 0x20 DUP7 ADD PUSH3 0x48F JUMP JUMPDEST SWAP2 POP POP SWAP3 SWAP2 POP POP JUMP JUMPDEST PUSH1 0x0 DUP1 PUSH1 0x40 DUP4 DUP6 SUB SLT ISZERO PUSH3 0x527 JUMPI PUSH3 0x526 PUSH3 0x384 JUMP JUMPDEST JUMPDEST PUSH1 0x0 DUP4 ADD MLOAD PUSH8 0xFFFFFFFFFFFFFFFF DUP2 GT ISZERO PUSH3 0x548 JUMPI PUSH3 0x547 PUSH3 0x389 JUMP JUMPDEST JUMPDEST PUSH3 0x556 DUP6 DUP3 DUP7 ADD PUSH3 0x4DA JUMP JUMPDEST SWAP3 POP POP PUSH1 0x20 DUP4 ADD MLOAD PUSH8 0xFFFFFFFFFFFFFFFF DUP2 GT ISZERO PUSH3 0x57A JUMPI PUSH3 0x579 PUSH3 0x389 JUMP JUMPDEST JUMPDEST PUSH3 0x588 DUP6 DUP3 DUP7 ADD PUSH3 0x4DA JUMP JUMPDEST SWAP2 POP POP SWAP3 POP SWAP3 SWAP1 POP JUMP JUMPDEST PUSH1 0x0 DUP2 MLOAD SWAP1 POP SWAP2 SWAP1 POP JUMP JUMPDEST PUSH32 0x4E487B7100000000000000000000000000000000000000000000000000000000 PUSH1 0x0 MSTORE PUSH1 0x22 PUSH1 0x4 MSTORE PUSH1 0x24 PUSH1 0x0 REVERT JUMPDEST PUSH1 0x0 PUSH1 0x2 DUP3 DIV SWAP1 POP PUSH1 0x1 DUP3 AND DUP1 PUSH3 0x5E5 JUMPI PUSH1 0x7F DUP3 AND SWAP2 POP JUMPDEST PUSH1 0x20 DUP3 LT DUP2 SUB PUSH3 0x5FB JUMPI PUSH3 0x5FA PUSH3 0x59D JUMP JUMPDEST JUMPDEST POP SWAP2 SWAP1 POP JUMP JUMPDEST PUSH1 0x0 DUP2 SWAP1 POP DUP2 PUSH1 0x0 MSTORE PUSH1 0x20 PUSH1 0x0 KECCAK256 SWAP1 POP SWAP2 SWAP1 POP JUMP JUMPDEST PUSH1 0x0 PUSH1 0x20 PUSH1 0x1F DUP4 ADD DIV SWAP1 POP SWAP2 SWAP1 POP JUMP JUMPDEST PUSH1 0x0 DUP3 DUP3 SHL SWAP1 POP SWAP3 SWAP2 POP POP JUMP JUMPDEST PUSH1 0x0 PUSH1 0x8 DUP4 MUL PUSH3 0x665 PUSH32 0xFFFFFFFFFFFFFFFFFFFFFFFFFFFFFFFFFFFFFFFFFFFFFFFFFFFFFFFFFFFFFFFF DUP3 PUSH3 0x626 JUMP JUMPDEST PUSH3 0x671 DUP7 DUP4 PUSH3 0x626 JUMP JUMPDEST SWAP6 POP DUP1 NOT DUP5 AND SWAP4 POP DUP1 DUP7 AND DUP5 OR SWAP3 POP POP POP SWAP4 SWAP3 POP POP POP JUMP JUMPDEST PUSH1 0x0 DUP2 SWAP1 POP SWAP2 SWAP1 POP JUMP JUMPDEST PUSH1 0x0 DUP2 SWAP1 POP SWAP2 SWAP1 POP JUMP JUMPDEST PUSH1 0x0 PUSH3 0x6BE PUSH3 0x6B8 PUSH3 0x6B2 DUP5 PUSH3 0x689 JUMP JUMPDEST PUSH3 0x693 JUMP JUMPDEST PUSH3 0x689 JUMP JUMPDEST SWAP1 POP SWAP2 SWAP1 POP JUMP JUMPDEST PUSH1 0x0 DUP2 SWAP1 POP SWAP2 SWAP1 POP JUMP JUMPDEST PUSH3 0x6DA DUP4 PUSH3 0x69D JUMP JUMPDEST PUSH3 0x6F2 PUSH3 0x6E9 DUP3 PUSH3 0x6C5 JUMP JUMPDEST DUP5 DUP5 SLOAD PUSH3 0x633 JUMP JUMPDEST DUP3 SSTORE POP POP POP POP JUMP JUMPDEST PUSH1 0x0 SWAP1 JUMP JUMPDEST PUSH3 0x709 PUSH3 0x6FA JUMP JUMPDEST PUSH3 0x716 DUP2 DUP5 DUP5 PUSH3 0x6CF JUMP JUMPDEST POP POP POP JUMP JUMPDEST JUMPDEST DUP2 DUP2 LT ISZERO PUSH3 0x73E JUMPI PUSH3 0x732 PUSH1 0x0 DUP3 PUSH3 0x6FF JUMP JUMPDEST PUSH1 0x1 DUP2 ADD SWAP1 POP PUSH3 0x71C JUMP JUMPDEST POP POP JUMP JUMPDEST PUSH1 0x1F DUP3 GT ISZERO PUSH3 0x78D JUMPI PUSH3 0x757 DUP2 PUSH3 0x601 JUMP JUMPDEST PUSH3 0x762 DUP5 PUSH3 0x616 JUMP JUMPDEST DUP2 ADD PUSH1 0x20 DUP6 LT ISZERO PUSH3 0x772 JUMPI DUP2 SWAP1 POP JUMPDEST PUSH3 0x78A PUSH3 0x781 DUP6 PUSH3 0x616 JUMP JUMPDEST DUP4 ADD DUP3 PUSH3 0x71B JUMP JUMPDEST POP POP JUMPDEST POP POP POP JUMP JUMPDEST PUSH1 0x0 DUP3 DUP3 SHR SWAP1 POP SWAP3 SWAP2 POP POP JUMP JUMPDEST PUSH1 0x0 PUSH3 0x7B2 PUSH1 0x0 NOT DUP5 PUSH1 0x8 MUL PUSH3 0x792 JUMP JUMPDEST NOT DUP1 DUP4 AND SWAP2 POP POP SWAP3 SWAP2 POP POP JUMP JUMPDEST PUSH1 0x0 PUSH3 0x7CD DUP4 DUP4 PUSH3 0x79F JUMP JUMPDEST SWAP2 POP DUP3 PUSH1 0x2 MUL DUP3 OR SWAP1 POP SWAP3 SWAP2 POP POP JUMP JUMPDEST PUSH3 0x7E8 DUP3 PUSH3 0x592 JUMP JUMPDEST PUSH8 0xFFFFFFFFFFFFFFFF DUP2 GT ISZERO PUSH3 0x804 JUMPI PUSH3 0x803 PUSH3 0x3A9 JUMP JUMPDEST JUMPDEST PUSH3 0x810 DUP3 SLOAD PUSH3 0x5CC JUMP JUMPDEST PUSH3 0x81D DUP3 DUP3 DUP6 PUSH3 0x742 JUMP JUMPDEST PUSH1 0x0 PUSH1 0x20 SWAP1 POP PUSH1 0x1F DUP4 GT PUSH1 0x1 DUP2 EQ PUSH3 0x855 JUMPI PUSH1 0x0 DUP5 ISZERO PUSH3 0x840 JUMPI DUP3 DUP8 ADD MLOAD SWAP1 POP JUMPDEST PUSH3 0x84C DUP6 DUP3 PUSH3 0x7BF JUMP JUMPDEST DUP7 SSTORE POP PUSH3 0x8BC JUMP JUMPDEST PUSH1 0x1F NOT DUP5 AND PUSH3 0x865 DUP7 PUSH3 0x601 JUMP JUMPDEST PUSH1 0x0 JUMPDEST DUP3 DUP2 LT ISZERO PUSH3 0x88F JUMPI DUP5 DUP10 ADD MLOAD DUP3 SSTORE PUSH1 0x1 DUP3 ADD SWAP2 POP PUSH1 0x20 DUP6 ADD SWAP5 POP PUSH1 0x20 DUP2 ADD SWAP1 POP PUSH3 0x868 JUMP JUMPDEST DUP7 DUP4 LT ISZERO PUSH3 0x8AF JUMPI DUP5 DUP10 ADD MLOAD PUSH3 0x8AB PUSH1 0x1F DUP10 AND DUP3 PUSH3 0x79F JUMP JUMPDEST DUP4 SSTORE POP JUMPDEST PUSH1 0x1 PUSH1 0x2 DUP9 MUL ADD DUP9 SSTORE POP POP POP JUMPDEST POP POP POP POP POP POP JUMP JUMPDEST PUSH1 0x0 DUP2 SWAP1 POP SWAP2 SWAP1 POP JUMP JUMPDEST PUSH3 0x8D9 DUP2 PUSH3 0x8C4 JUMP JUMPDEST DUP3 MSTORE POP POP JUMP JUMPDEST PUSH3 0x8EA DUP2 PUSH3 0x689 JUMP JUMPDEST DUP3 MSTORE POP POP JUMP JUMPDEST PUSH1 0x0 PUSH20 0xFFFFFFFFFFFFFFFFFFFFFFFFFFFFFFFFFFFFFFFF DUP3 AND SWAP1 POP SWAP2 SWAP1 POP JUMP JUMPDEST PUSH1 0x0 PUSH3 0x91D DUP3 PUSH3 0x8F0 JUMP JUMPDEST SWAP1 POP SWAP2 SWAP1 POP JUMP JUMPDEST PUSH3 0x92F DUP2 PUSH3 0x910 JUMP JUMPDEST DUP3 MSTORE POP POP JUMP JUMPDEST PUSH1 0x0 PUSH1 0xA0 DUP3 ADD SWAP1 POP PUSH3 0x94C PUSH1 0x0 DUP4 ADD DUP9 PUSH3 0x8CE JUMP JUMPDEST PUSH3 0x95B PUSH1 0x20 DUP4 ADD DUP8 PUSH3 0x8CE JUMP JUMPDEST PUSH3 0x96A PUSH1 0x40 DUP4 ADD DUP7 PUSH3 0x8CE JUMP JUMPDEST PUSH3 0x979 PUSH1 0x60 DUP4 ADD DUP6 PUSH3 0x8DF JUMP JUMPDEST PUSH3 0x988 PUSH1 0x80 DUP4 ADD DUP5 PUSH3 0x924 JUMP JUMPDEST SWAP7 SWAP6 POP POP POP POP POP POP JUMP JUMPDEST PUSH1 0x0 DUP3 DUP3 MSTORE PUSH1 0x20 DUP3 ADD SWAP1 POP SWAP3 SWAP2 POP POP JUMP JUMPDEST PUSH1 0x0 PUSH3 0x9B0 DUP3 PUSH3 0x592 JUMP JUMPDEST PUSH3 0x9BC DUP2 DUP6 PUSH3 0x992 JUMP JUMPDEST SWAP4 POP PUSH3 0x9CE DUP2 DUP6 PUSH1 0x20 DUP7 ADD PUSH3 0x463 JUMP JUMPDEST PUSH3 0x9D9 DUP2 PUSH3 0x398 JUMP JUMPDEST DUP5 ADD SWAP2 POP POP SWAP3 SWAP2 POP POP JUMP JUMPDEST PUSH1 0x0 PUSH1 0x20 DUP3 ADD SWAP1 POP DUP2 DUP2 SUB PUSH1 0x0 DUP4 ADD MSTORE PUSH3 0xA00 DUP2 DUP5 PUSH3 0x9A3 JUMP JUMPDEST SWAP1 POP SWAP3 SWAP2 POP POP JUMP JUMPDEST PUSH1 0x0 DUP2 MLOAD SWAP1 POP SWAP2 SWAP1 POP JUMP JUMPDEST PUSH1 0x0 DUP2 SWAP1 POP PUSH1 0x20 DUP3 ADD SWAP1 POP SWAP2 SWAP1 POP JUMP JUMPDEST PUSH1 0x0 PUSH3 0xA31 DUP3 MLOAD PUSH3 0x8C4 JUMP JUMPDEST DUP1 SWAP2 POP POP SWAP2 SWAP1 POP JUMP JUMPDEST PUSH1 0x0 PUSH3 0xA47 DUP3 PUSH3 0xA08 JUMP JUMPDEST DUP3 PUSH3 0xA53 DUP5 PUSH3 0xA13 JUMP JUMPDEST SWAP1 POP PUSH3 0xA60 DUP2 PUSH3 0xA23 JUMP JUMPDEST SWAP3 POP PUSH1 0x20 DUP3 LT ISZERO PUSH3 0xAA3 JUMPI PUSH3 0xA9E PUSH32 0xFFFFFFFFFFFFFFFFFFFFFFFFFFFFFFFFFFFFFFFFFFFFFFFFFFFFFFFFFFFFFFFF DUP4 PUSH1 0x20 SUB PUSH1 0x8 MUL PUSH3 0x626 JUMP JUMPDEST DUP4 AND SWAP3 POP JUMPDEST POP POP SWAP2 SWAP1 POP JUMP JUMPDEST PUSH1 0x80 MLOAD PUSH1 0xA0 MLOAD PUSH1 0xC0 MLOAD PUSH1 0xE0 MLOAD PUSH2 0x100 MLOAD PUSH2 0x120 MLOAD PUSH2 0x140 MLOAD PUSH2 0x2B59 PUSH3 0xB05 PUSH1 0x0 CODECOPY PUSH1 0x0 PUSH2 0x61E ADD MSTORE PUSH1 0x0 PUSH2 0x5EA ADD MSTORE PUSH1 0x0 PUSH2 0x1506 ADD MSTORE PUSH1 0x0 PUSH2 0x14E5 ADD MSTORE PUSH1 0x0 PUSH2 0xFA0 ADD MSTORE PUSH1 0x0 PUSH2 0xFF6 ADD MSTORE PUSH1 0x0 PUSH2 0x101F ADD MSTORE PUSH2 0x2B59 PUSH1 0x0 RETURN INVALID PUSH1 0x80 PUSH1 0x40 MSTORE CALLVALUE DUP1 ISZERO PUSH2 0x10 JUMPI PUSH1 0x0 DUP1 REVERT JUMPDEST POP PUSH1 0x4 CALLDATASIZE LT PUSH2 0x121 JUMPI PUSH1 0x0 CALLDATALOAD PUSH1 0xE0 SHR DUP1 PUSH4 0x715018A6 GT PUSH2 0xAD JUMPI DUP1 PUSH4 0xA457C2D7 GT PUSH2 0x71 JUMPI DUP1 PUSH4 0xA457C2D7 EQ PUSH2 0x314 JUMPI DUP1 PUSH4 0xA9059CBB EQ PUSH2 0x344 JUMPI DUP1 PUSH4 0xD505ACCF EQ PUSH2 0x374 JUMPI DUP1 PUSH4 0xDD62ED3E EQ PUSH2 0x390 JUMPI DUP1 PUSH4 0xF2FDE38B EQ PUSH2 0x3C0 JUMPI PUSH2 0x121 JUMP JUMPDEST DUP1 PUSH4 0x715018A6 EQ PUSH2 0x27A JUMPI DUP1 PUSH4 0x7ECEBE00 EQ PUSH2 0x284 JUMPI DUP1 PUSH4 0x84B0196E EQ PUSH2 0x2B4 JUMPI DUP1 PUSH4 0x8DA5CB5B EQ PUSH2 0x2D8 JUMPI DUP1 PUSH4 0x95D89B41 EQ PUSH2 0x2F6 JUMPI PUSH2 0x121 JUMP JUMPDEST DUP1 PUSH4 0x313CE567 GT PUSH2 0xF4 JUMPI DUP1 PUSH4 0x313CE567 EQ PUSH2 0x1C2 JUMPI DUP1 PUSH4 0x3644E515 EQ PUSH2 0x1E0 JUMPI DUP1 PUSH4 0x39509351 EQ PUSH2 0x1FE JUMPI DUP1 PUSH4 0x40C10F19 EQ PUSH2 0x22E JUMPI DUP1 PUSH4 0x70A08231 EQ PUSH2 0x24A JUMPI PUSH2 0x121 JUMP JUMPDEST DUP1 PUSH4 0x6FDDE03 EQ PUSH2 0x126 JUMPI DUP1 PUSH4 0x95EA7B3 EQ PUSH2 0x144 JUMPI DUP1 PUSH4 0x18160DDD EQ PUSH2 0x174 JUMPI DUP1 PUSH4 0x23B872DD EQ PUSH2 0x192 JUMPI JUMPDEST PUSH1 0x0 DUP1 REVERT JUMPDEST PUSH2 0x12E PUSH2 0x3DC JUMP JUMPDEST PUSH1 0x40 MLOAD PUSH2 0x13B SWAP2 SWAP1 PUSH2 0x1949 JUMP JUMPDEST PUSH1 0x40 MLOAD DUP1 SWAP2 SUB SWAP1 RETURN JUMPDEST PUSH2 0x15E PUSH1 0x4 DUP1 CALLDATASIZE SUB DUP2 ADD SWAP1 PUSH2 0x159 SWAP2 SWAP1 PUSH2 0x1A04 JUMP JUMPDEST PUSH2 0x46E JUMP JUMPDEST PUSH1 0x40 MLOAD PUSH2 0x16B SWAP2 SWAP1 PUSH2 0x1A5F JUMP JUMPDEST PUSH1 0x40 MLOAD DUP1 SWAP2 SUB SWAP1 RETURN JUMPDEST PUSH2 0x17C PUSH2 0x491 JUMP JUMPDEST PUSH1 0x40 MLOAD PUSH2 0x189 SWAP2 SWAP1 PUSH2 0x1A89 JUMP JUMPDEST PUSH1 0x40 MLOAD DUP1 SWAP2 SUB SWAP1 RETURN JUMPDEST PUSH2 0x1AC PUSH1 0x4 DUP1 CALLDATASIZE SUB DUP2 ADD SWAP1 PUSH2 0x1A7 SWAP2 SWAP1 PUSH2 0x1AA4 JUMP JUMPDEST PUSH2 0x49B JUMP JUMPDEST PUSH1 0x40 MLOAD PUSH2 0x1B9 SWAP2 SWAP1 PUSH2 0x1A5F JUMP JUMPDEST PUSH1 0x40 MLOAD DUP1 SWAP2 SUB SWAP1 RETURN JUMPDEST PUSH2 0x1CA PUSH2 0x4CA JUMP JUMPDEST PUSH1 0x40 MLOAD PUSH2 0x1D7 SWAP2 SWAP1 PUSH2 0x1B13 JUMP JUMPDEST PUSH1 0x40 MLOAD DUP1 SWAP2 SUB SWAP1 RETURN JUMPDEST PUSH2 0x1E8 PUSH2 0x4CF JUMP JUMPDEST PUSH1 0x40 MLOAD PUSH2 0x1F5 SWAP2 SWAP1 PUSH2 0x1B47 JUMP JUMPDEST PUSH1 0x40 MLOAD DUP1 SWAP2 SUB SWAP1 RETURN JUMPDEST PUSH2 0x218 PUSH1 0x4 DUP1 CALLDATASIZE SUB DUP2 ADD SWAP1 PUSH2 0x213 SWAP2 SWAP1 PUSH2 0x1A04 JUMP JUMPDEST PUSH2 0x4DE JUMP JUMPDEST PUSH1 0x40 MLOAD PUSH2 0x225 SWAP2 SWAP1 PUSH2 0x1A5F JUMP JUMPDEST PUSH1 0x40 MLOAD DUP1 SWAP2 SUB SWAP1 RETURN JUMPDEST PUSH2 0x248 PUSH1 0x4 DUP1 CALLDATASIZE SUB DUP2 ADD SWAP1 PUSH2 0x243 SWAP2 SWAP1 PUSH2 0x1A04 JUMP JUMPDEST PUSH2 0x515 JUMP JUMPDEST STOP JUMPDEST PUSH2 0x264 PUSH1 0x4 DUP1 CALLDATASIZE SUB DUP2 ADD SWAP1 PUSH2 0x25F SWAP2 SWAP1 PUSH2 0x1B62 JUMP JUMPDEST PUSH2 0x52B JUMP JUMPDEST PUSH1 0x40 MLOAD PUSH2 0x271 SWAP2 SWAP1 PUSH2 0x1A89 JUMP JUMPDEST PUSH1 0x40 MLOAD DUP1 SWAP2 SUB SWAP1 RETURN JUMPDEST PUSH2 0x282 PUSH2 0x573 JUMP JUMPDEST STOP JUMPDEST PUSH2 0x29E PUSH1 0x4 DUP1 CALLDATASIZE SUB DUP2 ADD SWAP1 PUSH2 0x299 SWAP2 SWAP1 PUSH2 0x1B62 JUMP JUMPDEST PUSH2 0x587 JUMP JUMPDEST PUSH1 0x40 MLOAD PUSH2 0x2AB SWAP2 SWAP1 PUSH2 0x1A89 JUMP JUMPDEST PUSH1 0x40 MLOAD DUP1 SWAP2 SUB SWAP1 RETURN JUMPDEST PUSH2 0x2BC PUSH2 0x5D7 JUMP JUMPDEST PUSH1 0x40 MLOAD PUSH2 0x2CF SWAP8 SWAP7 SWAP6 SWAP5 SWAP4 SWAP3 SWAP2 SWAP1 PUSH2 0x1C97 JUMP JUMPDEST PUSH1 0x40 MLOAD DUP1 SWAP2 SUB SWAP1 RETURN JUMPDEST PUSH2 0x2E0 PUSH2 0x6D9 JUMP JUMPDEST PUSH1 0x40 MLOAD PUSH2 0x2ED SWAP2 SWAP1 PUSH2 0x1D1B JUMP JUMPDEST PUSH1 0x40 MLOAD DUP1 SWAP2 SUB SWAP1 RETURN JUMPDEST PUSH2 0x2FE PUSH2 0x703 JUMP JUMPDEST PUSH1 0x40 MLOAD PUSH2 0x30B SWAP2 SWAP1 PUSH2 0x1949 JUMP JUMPDEST PUSH1 0x40 MLOAD DUP1 SWAP2 SUB SWAP1 RETURN JUMPDEST PUSH2 0x32E PUSH1 0x4 DUP1 CALLDATASIZE SUB DUP2 ADD SWAP1 PUSH2 0x329 SWAP2 SWAP1 PUSH2 0x1A04 JUMP JUMPDEST PUSH2 0x795 JUMP JUMPDEST PUSH1 0x40 MLOAD PUSH2 0x33B SWAP2 SWAP1 PUSH2 0x1A5F JUMP JUMPDEST PUSH1 0x40 MLOAD DUP1 SWAP2 SUB SWAP1 RETURN JUMPDEST PUSH2 0x35E PUSH1 0x4 DUP1 CALLDATASIZE SUB DUP2 ADD SWAP1 PUSH2 0x359 SWAP2 SWAP1 PUSH2 0x1A04 JUMP JUMPDEST PUSH2 0x80C JUMP JUMPDEST PUSH1 0x40 MLOAD PUSH2 0x36B SWAP2 SWAP1 PUSH2 0x1A5F JUMP JUMPDEST PUSH1 0x40 MLOAD DUP1 SWAP2 SUB SWAP1 RETURN JUMPDEST PUSH2 0x38E PUSH1 0x4 DUP1 CALLDATASIZE SUB DUP2 ADD SWAP1 PUSH2 0x389 SWAP2 SWAP1 PUSH2 0x1D8E JUMP JUMPDEST PUSH2 0x82F JUMP JUMPDEST STOP JUMPDEST PUSH2 0x3AA PUSH1 0x4 DUP1 CALLDATASIZE SUB DUP2 ADD SWAP1 PUSH2 0x3A5 SWAP2 SWAP1 PUSH2 0x1E30 JUMP JUMPDEST PUSH2 0x971 JUMP JUMPDEST PUSH1 0x40 MLOAD PUSH2 0x3B7 SWAP2 SWAP1 PUSH2 0x1A89 JUMP JUMPDEST PUSH1 0x40 MLOAD DUP1 SWAP2 SUB SWAP1 RETURN JUMPDEST PUSH2 0x3DA PUSH1 0x4 DUP1 CALLDATASIZE SUB DUP2 ADD SWAP1 PUSH2 0x3D5 SWAP2 SWAP1 PUSH2 0x1B62 JUMP JUMPDEST PUSH2 0x9F8 JUMP JUMPDEST STOP JUMPDEST PUSH1 0x60 PUSH1 0x3 DUP1 SLOAD PUSH2 0x3EB SWAP1 PUSH2 0x1E9F JUMP JUMPDEST DUP1 PUSH1 0x1F ADD PUSH1 0x20 DUP1 SWAP2 DIV MUL PUSH1 0x20 ADD PUSH1 0x40 MLOAD SWAP1 DUP2 ADD PUSH1 0x40 MSTORE DUP1 SWAP3 SWAP2 SWAP1 DUP2 DUP2 MSTORE PUSH1 0x20 ADD DUP3 DUP1 SLOAD PUSH2 0x417 SWAP1 PUSH2 0x1E9F JUMP JUMPDEST DUP1 ISZERO PUSH2 0x464 JUMPI DUP1 PUSH1 0x1F LT PUSH2 0x439 JUMPI PUSH2 0x100 DUP1 DUP4 SLOAD DIV MUL DUP4 MSTORE SWAP2 PUSH1 0x20 ADD SWAP2 PUSH2 0x464 JUMP JUMPDEST DUP3 ADD SWAP2 SWAP1 PUSH1 0x0 MSTORE PUSH1 0x20 PUSH1 0x0 KECCAK256 SWAP1 JUMPDEST DUP2 SLOAD DUP2 MSTORE SWAP1 PUSH1 0x1 ADD SWAP1 PUSH1 0x20 ADD DUP1 DUP4 GT PUSH2 0x447 JUMPI DUP3 SWAP1 SUB PUSH1 0x1F AND DUP3 ADD SWAP2 JUMPDEST POP POP POP POP POP SWAP1 POP SWAP1 JUMP JUMPDEST PUSH1 0x0 DUP1 PUSH2 0x479 PUSH2 0xAC9 JUMP JUMPDEST SWAP1 POP PUSH2 0x486 DUP2 DUP6 DUP6 PUSH2 0xAD1 JUMP JUMPDEST PUSH1 0x1 SWAP2 POP POP SWAP3 SWAP2 POP POP JUMP JUMPDEST PUSH1 0x0 PUSH1 0x2 SLOAD SWAP1 POP SWAP1 JUMP JUMPDEST PUSH1 0x0 DUP1 PUSH2 0x4A6 PUSH2 0xAC9 JUMP JUMPDEST SWAP1 POP PUSH2 0x4B3 DUP6 DUP3 DUP6 PUSH2 0xC9A JUMP JUMPDEST PUSH2 0x4BE DUP6 DUP6 DUP6 PUSH2 0xD26 JUMP JUMPDEST PUSH1 0x1 SWAP2 POP POP SWAP4 SWAP3 POP POP POP JUMP JUMPDEST PUSH1 0x0 SWAP1 JUMP JUMPDEST PUSH1 0x0 PUSH2 0x4D9 PUSH2 0xF9C JUMP JUMPDEST SWAP1 POP SWAP1 JUMP JUMPDEST PUSH1 0x0 DUP1 PUSH2 0x4E9 PUSH2 0xAC9 JUMP JUMPDEST SWAP1 POP PUSH2 0x50A DUP2 DUP6 DUP6 PUSH2 0x4FB DUP6 DUP10 PUSH2 0x971 JUMP JUMPDEST PUSH2 0x505 SWAP2 SWAP1 PUSH2 0x1EFF JUMP JUMPDEST PUSH2 0xAD1 JUMP JUMPDEST PUSH1 0x1 SWAP2 POP POP SWAP3 SWAP2 POP POP JUMP JUMPDEST PUSH2 0x51D PUSH2 0x1053 JUMP JUMPDEST PUSH2 0x527 DUP3 DUP3 PUSH2 0x10D1 JUMP JUMPDEST POP POP JUMP JUMPDEST PUSH1 0x0 DUP1 PUSH1 0x0 DUP4 PUSH20 0xFFFFFFFFFFFFFFFFFFFFFFFFFFFFFFFFFFFFFFFF AND PUSH20 0xFFFFFFFFFFFFFFFFFFFFFFFFFFFFFFFFFFFFFFFF AND DUP2 MSTORE PUSH1 0x20 ADD SWAP1 DUP2 MSTORE PUSH1 0x20 ADD PUSH1 0x0 KECCAK256 SLOAD SWAP1 POP SWAP2 SWAP1 POP JUMP JUMPDEST PUSH2 0x57B PUSH2 0x1053 JUMP JUMPDEST PUSH2 0x585 PUSH1 0x0 PUSH2 0x1227 JUMP JUMPDEST JUMP JUMPDEST PUSH1 0x0 PUSH2 0x5D0 PUSH1 0x8 PUSH1 0x0 DUP5 PUSH20 0xFFFFFFFFFFFFFFFFFFFFFFFFFFFFFFFFFFFFFFFF AND PUSH20 0xFFFFFFFFFFFFFFFFFFFFFFFFFFFFFFFFFFFFFFFF AND DUP2 MSTORE PUSH1 0x20 ADD SWAP1 DUP2 MSTORE PUSH1 0x20 ADD PUSH1 0x0 KECCAK256 PUSH2 0x12ED JUMP JUMPDEST SWAP1 POP SWAP2 SWAP1 POP JUMP JUMPDEST PUSH1 0x0 PUSH1 0x60 DUP1 PUSH1 0x0 DUP1 PUSH1 0x0 PUSH1 0x60 PUSH2 0x617 PUSH1 0x6 PUSH32 0x0 PUSH2 0x12FB SWAP1 SWAP2 SWAP1 PUSH4 0xFFFFFFFF AND JUMP JUMPDEST PUSH2 0x64B PUSH1 0x7 PUSH32 0x0 PUSH2 0x12FB SWAP1 SWAP2 SWAP1 PUSH4 0xFFFFFFFF AND JUMP JUMPDEST CHAINID ADDRESS PUSH1 0x0 DUP1 SHL PUSH1 0x0 PUSH8 0xFFFFFFFFFFFFFFFF DUP2 GT ISZERO PUSH2 0x66C JUMPI PUSH2 0x66B PUSH2 0x1F33 JUMP JUMPDEST JUMPDEST PUSH1 0x40 MLOAD SWAP1 DUP1 DUP3 MSTORE DUP1 PUSH1 0x20 MUL PUSH1 0x20 ADD DUP3 ADD PUSH1 0x40 MSTORE DUP1 ISZERO PUSH2 0x69A JUMPI DUP2 PUSH1 0x20 ADD PUSH1 0x20 DUP3 MUL DUP1 CALLDATASIZE DUP4 CALLDATACOPY DUP1 DUP3 ADD SWAP2 POP POP SWAP1 POP JUMPDEST POP PUSH32 0xF00000000000000000000000000000000000000000000000000000000000000 SWAP6 SWAP5 SWAP4 SWAP3 SWAP2 SWAP1 SWAP7 POP SWAP7 POP SWAP7 POP SWAP7 POP SWAP7 POP SWAP7 POP SWAP7 POP SWAP1 SWAP2 SWAP3 SWAP4 SWAP5 SWAP6 SWAP7 JUMP JUMPDEST PUSH1 0x0 PUSH1 0x5 PUSH1 0x0 SWAP1 SLOAD SWAP1 PUSH2 0x100 EXP SWAP1 DIV PUSH20 0xFFFFFFFFFFFFFFFFFFFFFFFFFFFFFFFFFFFFFFFF AND SWAP1 POP SWAP1 JUMP JUMPDEST PUSH1 0x60 PUSH1 0x4 DUP1 SLOAD PUSH2 0x712 SWAP1 PUSH2 0x1E9F JUMP JUMPDEST DUP1 PUSH1 0x1F ADD PUSH1 0x20 DUP1 SWAP2 DIV MUL PUSH1 0x20 ADD PUSH1 0x40 MLOAD SWAP1 DUP2 ADD PUSH1 0x40 MSTORE DUP1 SWAP3 SWAP2 SWAP1 DUP2 DUP2 MSTORE PUSH1 0x20 ADD DUP3 DUP1 SLOAD PUSH2 0x73E SWAP1 PUSH2 0x1E9F JUMP JUMPDEST DUP1 ISZERO PUSH2 0x78B JUMPI DUP1 PUSH1 0x1F LT PUSH2 0x760 JUMPI PUSH2 0x100 DUP1 DUP4 SLOAD DIV MUL DUP4 MSTORE SWAP2 PUSH1 0x20 ADD SWAP2 PUSH2 0x78B JUMP JUMPDEST DUP3 ADD SWAP2 SWAP1 PUSH1 0x0 MSTORE PUSH1 0x20 PUSH1 0x0 KECCAK256 SWAP1 JUMPDEST DUP2 SLOAD DUP2 MSTORE SWAP1 PUSH1 0x1 ADD SWAP1 PUSH1 0x20 ADD DUP1 DUP4 GT PUSH2 0x76E JUMPI DUP3 SWAP1 SUB PUSH1 0x1F AND DUP3 ADD SWAP2 JUMPDEST POP POP POP POP POP SWAP1 POP SWAP1 JUMP JUMPDEST PUSH1 0x0 DUP1 PUSH2 0x7A0 PUSH2 0xAC9 JUMP JUMPDEST SWAP1 POP PUSH1 0x0 PUSH2 0x7AE DUP3 DUP7 PUSH2 0x971 JUMP JUMPDEST SWAP1 POP DUP4 DUP2 LT ISZERO PUSH2 0x7F3 JUMPI PUSH1 0x40 MLOAD PUSH32 0x8C379A000000000000000000000000000000000000000000000000000000000 DUP2 MSTORE PUSH1 0x4 ADD PUSH2 0x7EA SWAP1 PUSH2 0x1FD4 JUMP JUMPDEST PUSH1 0x40 MLOAD DUP1 SWAP2 SUB SWAP1 REVERT JUMPDEST PUSH2 0x800 DUP3 DUP7 DUP7 DUP5 SUB PUSH2 0xAD1 JUMP JUMPDEST PUSH1 0x1 SWAP3 POP POP POP SWAP3 SWAP2 POP POP JUMP JUMPDEST PUSH1 0x0 DUP1 PUSH2 0x817 PUSH2 0xAC9 JUMP JUMPDEST SWAP1 POP PUSH2 0x824 DUP2 DUP6 DUP6 PUSH2 0xD26 JUMP JUMPDEST PUSH1 0x1 SWAP2 POP POP SWAP3 SWAP2 POP POP JUMP JUMPDEST DUP4 TIMESTAMP GT ISZERO PUSH2 0x872 JUMPI PUSH1 0x40 MLOAD PUSH32 0x8C379A000000000000000000000000000000000000000000000000000000000 DUP2 MSTORE PUSH1 0x4 ADD PUSH2 0x869 SWAP1 PUSH2 0x2040 JUMP JUMPDEST PUSH1 0x40 MLOAD DUP1 SWAP2 SUB SWAP1 REVERT JUMPDEST PUSH1 0x0 PUSH32 0x6E71EDAE12B1B97F4D1F60370FEF10105FA2FAAE0126114A169C64845D6126C9 DUP9 DUP9 DUP9 PUSH2 0x8A1 DUP13 PUSH2 0x13AB JUMP JUMPDEST DUP10 PUSH1 0x40 MLOAD PUSH1 0x20 ADD PUSH2 0x8B7 SWAP7 SWAP6 SWAP5 SWAP4 SWAP3 SWAP2 SWAP1 PUSH2 0x2060 JUMP JUMPDEST PUSH1 0x40 MLOAD PUSH1 0x20 DUP2 DUP4 SUB SUB DUP2 MSTORE SWAP1 PUSH1 0x40 MSTORE DUP1 MLOAD SWAP1 PUSH1 0x20 ADD KECCAK256 SWAP1 POP PUSH1 0x0 PUSH2 0x8DA DUP3 PUSH2 0x1409 JUMP JUMPDEST SWAP1 POP PUSH1 0x0 PUSH2 0x8EA DUP3 DUP8 DUP8 DUP8 PUSH2 0x1423 JUMP JUMPDEST SWAP1 POP DUP10 PUSH20 0xFFFFFFFFFFFFFFFFFFFFFFFFFFFFFFFFFFFFFFFF AND DUP2 PUSH20 0xFFFFFFFFFFFFFFFFFFFFFFFFFFFFFFFFFFFFFFFF AND EQ PUSH2 0x95A JUMPI PUSH1 0x40 MLOAD PUSH32 0x8C379A000000000000000000000000000000000000000000000000000000000 DUP2 MSTORE PUSH1 0x4 ADD PUSH2 0x951 SWAP1 PUSH2 0x210D JUMP JUMPDEST PUSH1 0x40 MLOAD DUP1 SWAP2 SUB SWAP1 REVERT JUMPDEST PUSH2 0x965 DUP11 DUP11 DUP11 PUSH2 0xAD1 JUMP JUMPDEST POP POP POP POP POP POP POP POP POP POP JUMP JUMPDEST PUSH1 0x0 PUSH1 0x1 PUSH1 0x0 DUP5 PUSH20 0xFFFFFFFFFFFFFFFFFFFFFFFFFFFFFFFFFFFFFFFF AND PUSH20 0xFFFFFFFFFFFFFFFFFFFFFFFFFFFFFFFFFFFFFFFF AND DUP2 MSTORE PUSH1 0x20 ADD SWAP1 DUP2 MSTORE PUSH1 0x20 ADD PUSH1 0x0 KECCAK256 PUSH1 0x0 DUP4 PUSH20 0xFFFFFFFFFFFFFFFFFFFFFFFFFFFFFFFFFFFFFFFF AND PUSH20 0xFFFFFFFFFFFFFFFFFFFFFFFFFFFFFFFFFFFFFFFF AND DUP2 MSTORE PUSH1 0x20 ADD SWAP1 DUP2 MSTORE PUSH1 0x20 ADD PUSH1 0x0 KECCAK256 SLOAD SWAP1 POP SWAP3 SWAP2 POP POP JUMP JUMPDEST PUSH2 0xA00 PUSH2 0x1053 JUMP JUMPDEST PUSH1 0x0 PUSH20 0xFFFFFFFFFFFFFFFFFFFFFFFFFFFFFFFFFFFFFFFF AND DUP2 PUSH20 0xFFFFFFFFFFFFFFFFFFFFFFFFFFFFFFFFFFFFFFFF AND SUB PUSH2 0xA6F JUMPI PUSH1 0x40 MLOAD PUSH32 0x8C379A000000000000000000000000000000000000000000000000000000000 DUP2 MSTORE PUSH1 0x4 ADD PUSH2 0xA66 SWAP1 PUSH2 0x219F JUMP JUMPDEST PUSH1 0x40 MLOAD DUP1 SWAP2 SUB SWAP1 REVERT JUMPDEST PUSH2 0xA78 DUP2 PUSH2 0x1227 JUMP JUMPDEST POP JUMP JUMPDEST PUSH1 0x0 PUSH1 0x20 DUP4 MLOAD LT ISZERO PUSH2 0xA97 JUMPI PUSH2 0xA90 DUP4 PUSH2 0x144E JUMP JUMPDEST SWAP1 POP PUSH2 0xAB9 JUMP JUMPDEST DUP3 PUSH2 0xAA1 DUP4 PUSH2 0xABF JUMP JUMPDEST PUSH1 0x0 ADD SWAP1 DUP2 PUSH2 0xAB0 SWAP2 SWAP1 PUSH2 0x236B JUMP JUMPDEST POP PUSH1 0xFF PUSH1 0x0 SHL SWAP1 POP JUMPDEST SWAP3 SWAP2 POP POP JUMP JUMPDEST PUSH1 0x0 DUP2 SWAP1 POP SWAP2 SWAP1 POP JUMP JUMPDEST PUSH1 0x0 CALLER SWAP1 POP SWAP1 JUMP JUMPDEST PUSH1 0x0 PUSH20 0xFFFFFFFFFFFFFFFFFFFFFFFFFFFFFFFFFFFFFFFF AND DUP4 PUSH20 0xFFFFFFFFFFFFFFFFFFFFFFFFFFFFFFFFFFFFFFFF AND SUB PUSH2 0xB40 JUMPI PUSH1 0x40 MLOAD PUSH32 0x8C379A000000000000000000000000000000000000000000000000000000000 DUP2 MSTORE PUSH1 0x4 ADD PUSH2 0xB37 SWAP1 PUSH2 0x24AF JUMP JUMPDEST PUSH1 0x40 MLOAD DUP1 SWAP2 SUB SWAP1 REVERT JUMPDEST PUSH1 0x0 PUSH20 0xFFFFFFFFFFFFFFFFFFFFFFFFFFFFFFFFFFFFFFFF AND DUP3 PUSH20 0xFFFFFFFFFFFFFFFFFFFFFFFFFFFFFFFFFFFFFFFF AND SUB PUSH2 0xBAF JUMPI PUSH1 0x40 MLOAD PUSH32 0x8C379A000000000000000000000000000000000000000000000000000000000 DUP2 MSTORE PUSH1 0x4 ADD PUSH2 0xBA6 SWAP1 PUSH2 0x2541 JUMP JUMPDEST PUSH1 0x40 MLOAD DUP1 SWAP2 SUB SWAP1 REVERT JUMPDEST DUP1 PUSH1 0x1 PUSH1 0x0 DUP6 PUSH20 0xFFFFFFFFFFFFFFFFFFFFFFFFFFFFFFFFFFFFFFFF AND PUSH20 0xFFFFFFFFFFFFFFFFFFFFFFFFFFFFFFFFFFFFFFFF AND DUP2 MSTORE PUSH1 0x20 ADD SWAP1 DUP2 MSTORE PUSH1 0x20 ADD PUSH1 0x0 KECCAK256 PUSH1 0x0 DUP5 PUSH20 0xFFFFFFFFFFFFFFFFFFFFFFFFFFFFFFFFFFFFFFFF AND PUSH20 0xFFFFFFFFFFFFFFFFFFFFFFFFFFFFFFFFFFFFFFFF AND DUP2 MSTORE PUSH1 0x20 ADD SWAP1 DUP2 MSTORE PUSH1 0x20 ADD PUSH1 0x0 KECCAK256 DUP2 SWAP1 SSTORE POP DUP2 PUSH20 0xFFFFFFFFFFFFFFFFFFFFFFFFFFFFFFFFFFFFFFFF AND DUP4 PUSH20 0xFFFFFFFFFFFFFFFFFFFFFFFFFFFFFFFFFFFFFFFF AND PUSH32 0x8C5BE1E5EBEC7D5BD14F71427D1E84F3DD0314C0F7B2291E5B200AC8C7C3B925 DUP4 PUSH1 0x40 MLOAD PUSH2 0xC8D SWAP2 SWAP1 PUSH2 0x1A89 JUMP JUMPDEST PUSH1 0x40 MLOAD DUP1 SWAP2 SUB SWAP1 LOG3 POP POP POP JUMP JUMPDEST PUSH1 0x0 PUSH2 0xCA6 DUP5 DUP5 PUSH2 0x971 JUMP JUMPDEST SWAP1 POP PUSH32 0xFFFFFFFFFFFFFFFFFFFFFFFFFFFFFFFFFFFFFFFFFFFFFFFFFFFFFFFFFFFFFFFF DUP2 EQ PUSH2 0xD20 JUMPI DUP2 DUP2 LT ISZERO PUSH2 0xD12 JUMPI PUSH1 0x40 MLOAD PUSH32 0x8C379A000000000000000000000000000000000000000000000000000000000 DUP2 MSTORE PUSH1 0x4 ADD PUSH2 0xD09 SWAP1 PUSH2 0x25AD JUMP JUMPDEST PUSH1 0x40 MLOAD DUP1 SWAP2 SUB SWAP1 REVERT JUMPDEST PUSH2 0xD1F DUP5 DUP5 DUP5 DUP5 SUB PUSH2 0xAD1 JUMP JUMPDEST JUMPDEST POP POP POP POP JUMP JUMPDEST PUSH1 0x0 PUSH20 0xFFFFFFFFFFFFFFFFFFFFFFFFFFFFFFFFFFFFFFFF AND DUP4 PUSH20 0xFFFFFFFFFFFFFFFFFFFFFFFFFFFFFFFFFFFFFFFF AND SUB PUSH2 0xD95 JUMPI PUSH1 0x40 MLOAD PUSH32 0x8C379A000000000000000000000000000000000000000000000000000000000 DUP2 MSTORE PUSH1 0x4 ADD PUSH2 0xD8C SWAP1 PUSH2 0x263F JUMP JUMPDEST PUSH1 0x40 MLOAD DUP1 SWAP2 SUB SWAP1 REVERT JUMPDEST PUSH1 0x0 PUSH20 0xFFFFFFFFFFFFFFFFFFFFFFFFFFFFFFFFFFFFFFFF AND DUP3 PUSH20 0xFFFFFFFFFFFFFFFFFFFFFFFFFFFFFFFFFFFFFFFF AND SUB PUSH2 0xE04 JUMPI PUSH1 0x40 MLOAD PUSH32 0x8C379A000000000000000000000000000000000000000000000000000000000 DUP2 MSTORE PUSH1 0x4 ADD PUSH2 0xDFB SWAP1 PUSH2 0x26D1 JUMP JUMPDEST PUSH1 0x40 MLOAD DUP1 SWAP2 SUB SWAP1 REVERT JUMPDEST PUSH2 0xE0F DUP4 DUP4 DUP4 PUSH2 0x14B6 JUMP JUMPDEST PUSH1 0x0 DUP1 PUSH1 0x0 DUP6 PUSH20 0xFFFFFFFFFFFFFFFFFFFFFFFFFFFFFFFFFFFFFFFF AND PUSH20 0xFFFFFFFFFFFFFFFFFFFFFFFFFFFFFFFFFFFFFFFF AND DUP2 MSTORE PUSH1 0x20 ADD SWAP1 DUP2 MSTORE PUSH1 0x20 ADD PUSH1 0x0 KECCAK256 SLOAD SWAP1 POP DUP2 DUP2 LT ISZERO PUSH2 0xE95 JUMPI PUSH1 0x40 MLOAD PUSH32 0x8C379A000000000000000000000000000000000000000000000000000000000 DUP2 MSTORE PUSH1 0x4 ADD PUSH2 0xE8C SWAP1 PUSH2 0x2763 JUMP JUMPDEST PUSH1 0x40 MLOAD DUP1 SWAP2 SUB SWAP1 REVERT JUMPDEST DUP2 DUP2 SUB PUSH1 0x0 DUP1 DUP7 PUSH20 0xFFFFFFFFFFFFFFFFFFFFFFFFFFFFFFFFFFFFFFFF AND PUSH20 0xFFFFFFFFFFFFFFFFFFFFFFFFFFFFFFFFFFFFFFFF AND DUP2 MSTORE PUSH1 0x20 ADD SWAP1 DUP2 MSTORE PUSH1 0x20 ADD PUSH1 0x0 KECCAK256 DUP2 SWAP1 SSTORE POP DUP2 PUSH1 0x0 DUP1 DUP6 PUSH20 0xFFFFFFFFFFFFFFFFFFFFFFFFFFFFFFFFFFFFFFFF AND PUSH20 0xFFFFFFFFFFFFFFFFFFFFFFFFFFFFFFFFFFFFFFFF AND DUP2 MSTORE PUSH1 0x20 ADD SWAP1 DUP2 MSTORE PUSH1 0x20 ADD PUSH1 0x0 KECCAK256 PUSH1 0x0 DUP3 DUP3 SLOAD ADD SWAP3 POP POP DUP2 SWAP1 SSTORE POP DUP3 PUSH20 0xFFFFFFFFFFFFFFFFFFFFFFFFFFFFFFFFFFFFFFFF AND DUP5 PUSH20 0xFFFFFFFFFFFFFFFFFFFFFFFFFFFFFFFFFFFFFFFF AND PUSH32 0xDDF252AD1BE2C89B69C2B068FC378DAA952BA7F163C4A11628F55A4DF523B3EF DUP5 PUSH1 0x40 MLOAD PUSH2 0xF83 SWAP2 SWAP1 PUSH2 0x1A89 JUMP JUMPDEST PUSH1 0x40 MLOAD DUP1 SWAP2 SUB SWAP1 LOG3 PUSH2 0xF96 DUP5 DUP5 DUP5 PUSH2 0x14BB JUMP JUMPDEST POP POP POP POP JUMP JUMPDEST PUSH1 0x0 PUSH32 0x0 PUSH20 0xFFFFFFFFFFFFFFFFFFFFFFFFFFFFFFFFFFFFFFFF AND ADDRESS PUSH20 0xFFFFFFFFFFFFFFFFFFFFFFFFFFFFFFFFFFFFFFFF AND EQ DUP1 ISZERO PUSH2 0x1018 JUMPI POP PUSH32 0x0 CHAINID EQ JUMPDEST ISZERO PUSH2 0x1045 JUMPI PUSH32 0x0 SWAP1 POP PUSH2 0x1050 JUMP JUMPDEST PUSH2 0x104D PUSH2 0x14C0 JUMP JUMPDEST SWAP1 POP JUMPDEST SWAP1 JUMP JUMPDEST PUSH2 0x105B PUSH2 0xAC9 JUMP JUMPDEST PUSH20 0xFFFFFFFFFFFFFFFFFFFFFFFFFFFFFFFFFFFFFFFF AND PUSH2 0x1079 PUSH2 0x6D9 JUMP JUMPDEST PUSH20 0xFFFFFFFFFFFFFFFFFFFFFFFFFFFFFFFFFFFFFFFF AND EQ PUSH2 0x10CF JUMPI PUSH1 0x40 MLOAD PUSH32 0x8C379A000000000000000000000000000000000000000000000000000000000 DUP2 MSTORE PUSH1 0x4 ADD PUSH2 0x10C6 SWAP1 PUSH2 0x27CF JUMP JUMPDEST PUSH1 0x40 MLOAD DUP1 SWAP2 SUB SWAP1 REVERT JUMPDEST JUMP JUMPDEST PUSH1 0x0 PUSH20 0xFFFFFFFFFFFFFFFFFFFFFFFFFFFFFFFFFFFFFFFF AND DUP3 PUSH20 0xFFFFFFFFFFFFFFFFFFFFFFFFFFFFFFFFFFFFFFFF AND SUB PUSH2 0x1140 JUMPI PUSH1 0x40 MLOAD PUSH32 0x8C379A000000000000000000000000000000000000000000000000000000000 DUP2 MSTORE PUSH1 0x4 ADD PUSH2 0x1137 SWAP1 PUSH2 0x283B JUMP JUMPDEST PUSH1 0x40 MLOAD DUP1 SWAP2 SUB SWAP1 REVERT JUMPDEST PUSH2 0x114C PUSH1 0x0 DUP4 DUP4 PUSH2 0x14B6 JUMP JUMPDEST DUP1 PUSH1 0x2 PUSH1 0x0 DUP3 DUP3 SLOAD PUSH2 0x115E SWAP2 SWAP1 PUSH2 0x1EFF JUMP JUMPDEST SWAP3 POP POP DUP2 SWAP1 SSTORE POP DUP1 PUSH1 0x0 DUP1 DUP5 PUSH20 0xFFFFFFFFFFFFFFFFFFFFFFFFFFFFFFFFFFFFFFFF AND PUSH20 0xFFFFFFFFFFFFFFFFFFFFFFFFFFFFFFFFFFFFFFFF AND DUP2 MSTORE PUSH1 0x20 ADD SWAP1 DUP2 MSTORE PUSH1 0x20 ADD PUSH1 0x0 KECCAK256 PUSH1 0x0 DUP3 DUP3 SLOAD ADD SWAP3 POP POP DUP2 SWAP1 SSTORE POP DUP2 PUSH20 0xFFFFFFFFFFFFFFFFFFFFFFFFFFFFFFFFFFFFFFFF AND PUSH1 0x0 PUSH20 0xFFFFFFFFFFFFFFFFFFFFFFFFFFFFFFFFFFFFFFFF AND PUSH32 0xDDF252AD1BE2C89B69C2B068FC378DAA952BA7F163C4A11628F55A4DF523B3EF DUP4 PUSH1 0x40 MLOAD PUSH2 0x120F SWAP2 SWAP1 PUSH2 0x1A89 JUMP JUMPDEST PUSH1 0x40 MLOAD DUP1 SWAP2 SUB SWAP1 LOG3 PUSH2 0x1223 PUSH1 0x0 DUP4 DUP4 PUSH2 0x14BB JUMP JUMPDEST POP POP JUMP JUMPDEST PUSH1 0x0 PUSH1 0x5 PUSH1 0x0 SWAP1 SLOAD SWAP1 PUSH2 0x100 EXP SWAP1 DIV PUSH20 0xFFFFFFFFFFFFFFFFFFFFFFFFFFFFFFFFFFFFFFFF AND SWAP1 POP DUP2 PUSH1 0x5 PUSH1 0x0 PUSH2 0x100 EXP DUP2 SLOAD DUP2 PUSH20 0xFFFFFFFFFFFFFFFFFFFFFFFFFFFFFFFFFFFFFFFF MUL NOT AND SWAP1 DUP4 PUSH20 0xFFFFFFFFFFFFFFFFFFFFFFFFFFFFFFFFFFFFFFFF AND MUL OR SWAP1 SSTORE POP DUP2 PUSH20 0xFFFFFFFFFFFFFFFFFFFFFFFFFFFFFFFFFFFFFFFF AND DUP2 PUSH20 0xFFFFFFFFFFFFFFFFFFFFFFFFFFFFFFFFFFFFFFFF AND PUSH32 0x8BE0079C531659141344CD1FD0A4F28419497F9722A3DAAFE3B4186F6B6457E0 PUSH1 0x40 MLOAD PUSH1 0x40 MLOAD DUP1 SWAP2 SUB SWAP1 LOG3 POP POP JUMP JUMPDEST PUSH1 0x0 DUP2 PUSH1 0x0 ADD SLOAD SWAP1 POP SWAP2 SWAP1 POP JUMP JUMPDEST PUSH1 0x60 PUSH1 0xFF PUSH1 0x0 SHL DUP4 EQ PUSH2 0x1318 JUMPI PUSH2 0x1311 DUP4 PUSH2 0x1556 JUMP JUMPDEST SWAP1 POP PUSH2 0x13A5 JUMP JUMPDEST DUP2 DUP1 SLOAD PUSH2 0x1324 SWAP1 PUSH2 0x1E9F JUMP JUMPDEST DUP1 PUSH1 0x1F ADD PUSH1 0x20 DUP1 SWAP2 DIV MUL PUSH1 0x20 ADD PUSH1 0x40 MLOAD SWAP1 DUP2 ADD PUSH1 0x40 MSTORE DUP1 SWAP3 SWAP2 SWAP1 DUP2 DUP2 MSTORE PUSH1 0x20 ADD DUP3 DUP1 SLOAD PUSH2 0x1350 SWAP1 PUSH2 0x1E9F JUMP JUMPDEST DUP1 ISZERO PUSH2 0x139D JUMPI DUP1 PUSH1 0x1F LT PUSH2 0x1372 JUMPI PUSH2 0x100 DUP1 DUP4 SLOAD DIV MUL DUP4 MSTORE SWAP2 PUSH1 0x20 ADD SWAP2 PUSH2 0x139D JUMP JUMPDEST DUP3 ADD SWAP2 SWAP1 PUSH1 0x0 MSTORE PUSH1 0x20 PUSH1 0x0 KECCAK256 SWAP1 JUMPDEST DUP2 SLOAD DUP2 MSTORE SWAP1 PUSH1 0x1 ADD SWAP1 PUSH1 0x20 ADD DUP1 DUP4 GT PUSH2 0x1380 JUMPI DUP3 SWAP1 SUB PUSH1 0x1F AND DUP3 ADD SWAP2 JUMPDEST POP POP POP POP POP SWAP1 POP JUMPDEST SWAP3 SWAP2 POP POP JUMP JUMPDEST PUSH1 0x0 DUP1 PUSH1 0x8 PUSH1 0x0 DUP5 PUSH20 0xFFFFFFFFFFFFFFFFFFFFFFFFFFFFFFFFFFFFFFFF AND PUSH20 0xFFFFFFFFFFFFFFFFFFFFFFFFFFFFFFFFFFFFFFFF AND DUP2 MSTORE PUSH1 0x20 ADD SWAP1 DUP2 MSTORE PUSH1 0x20 ADD PUSH1 0x0 KECCAK256 SWAP1 POP PUSH2 0x13F8 DUP2 PUSH2 0x12ED JUMP JUMPDEST SWAP2 POP PUSH2 0x1403 DUP2 PUSH2 0x15CA JUMP JUMPDEST POP SWAP2 SWAP1 POP JUMP JUMPDEST PUSH1 0x0 PUSH2 0x141C PUSH2 0x1416 PUSH2 0xF9C JUMP JUMPDEST DUP4 PUSH2 0x15E0 JUMP JUMPDEST SWAP1 POP SWAP2 SWAP1 POP JUMP JUMPDEST PUSH1 0x0 DUP1 PUSH1 0x0 PUSH2 0x1434 DUP8 DUP8 DUP8 DUP8 PUSH2 0x1621 JUMP JUMPDEST SWAP2 POP SWAP2 POP PUSH2 0x1441 DUP2 PUSH2 0x1703 JUMP JUMPDEST DUP2 SWAP3 POP POP POP SWAP5 SWAP4 POP POP POP POP JUMP JUMPDEST PUSH1 0x0 DUP1 DUP3 SWAP1 POP PUSH1 0x1F DUP2 MLOAD GT ISZERO PUSH2 0x149B JUMPI DUP3 PUSH1 0x40 MLOAD PUSH32 0x305A27A900000000000000000000000000000000000000000000000000000000 DUP2 MSTORE PUSH1 0x4 ADD PUSH2 0x1492 SWAP2 SWAP1 PUSH2 0x1949 JUMP JUMPDEST PUSH1 0x40 MLOAD DUP1 SWAP2 SUB SWAP1 REVERT JUMPDEST DUP1 MLOAD DUP2 PUSH2 0x14A7 SWAP1 PUSH2 0x288B JUMP JUMPDEST PUSH1 0x0 SHR OR PUSH1 0x0 SHL SWAP2 POP POP SWAP2 SWAP1 POP JUMP JUMPDEST POP POP POP JUMP JUMPDEST POP POP POP JUMP JUMPDEST PUSH1 0x0 PUSH32 0x8B73C3C69BB8FE3D512ECC4CF759CC79239F7B179B0FFACAA9A75D522B39400F PUSH32 0x0 PUSH32 0x0 CHAINID ADDRESS PUSH1 0x40 MLOAD PUSH1 0x20 ADD PUSH2 0x153B SWAP6 SWAP5 SWAP4 SWAP3 SWAP2 SWAP1 PUSH2 0x28F2 JUMP JUMPDEST PUSH1 0x40 MLOAD PUSH1 0x20 DUP2 DUP4 SUB SUB DUP2 MSTORE SWAP1 PUSH1 0x40 MSTORE DUP1 MLOAD SWAP1 PUSH1 0x20 ADD KECCAK256 SWAP1 POP SWAP1 JUMP JUMPDEST PUSH1 0x60 PUSH1 0x0 PUSH2 0x1563 DUP4 PUSH2 0x1869 JUMP JUMPDEST SWAP1 POP PUSH1 0x0 PUSH1 0x20 PUSH8 0xFFFFFFFFFFFFFFFF DUP2 GT ISZERO PUSH2 0x1582 JUMPI PUSH2 0x1581 PUSH2 0x1F33 JUMP JUMPDEST JUMPDEST PUSH1 0x40 MLOAD SWAP1 DUP1 DUP3 MSTORE DUP1 PUSH1 0x1F ADD PUSH1 0x1F NOT AND PUSH1 0x20 ADD DUP3 ADD PUSH1 0x40 MSTORE DUP1 ISZERO PUSH2 0x15B4 JUMPI DUP2 PUSH1 0x20 ADD PUSH1 0x1 DUP3 MUL DUP1 CALLDATASIZE DUP4 CALLDATACOPY DUP1 DUP3 ADD SWAP2 POP POP SWAP1 POP JUMPDEST POP SWAP1 POP DUP2 DUP2 MSTORE DUP4 PUSH1 0x20 DUP3 ADD MSTORE DUP1 SWAP3 POP POP POP SWAP2 SWAP1 POP JUMP JUMPDEST PUSH1 0x1 DUP2 PUSH1 0x0 ADD PUSH1 0x0 DUP3 DUP3 SLOAD ADD SWAP3 POP POP DUP2 SWAP1 SSTORE POP POP JUMP JUMPDEST PUSH1 0x0 PUSH1 0x40 MLOAD PUSH32 0x1901000000000000000000000000000000000000000000000000000000000000 DUP2 MSTORE DUP4 PUSH1 0x2 DUP3 ADD MSTORE DUP3 PUSH1 0x22 DUP3 ADD MSTORE PUSH1 0x42 DUP2 KECCAK256 SWAP2 POP POP SWAP3 SWAP2 POP POP JUMP JUMPDEST PUSH1 0x0 DUP1 PUSH32 0x7FFFFFFFFFFFFFFFFFFFFFFFFFFFFFFF5D576E7357A4501DDFE92F46681B20A0 DUP4 PUSH1 0x0 SHR GT ISZERO PUSH2 0x165C JUMPI PUSH1 0x0 PUSH1 0x3 SWAP2 POP SWAP2 POP PUSH2 0x16FA JUMP JUMPDEST PUSH1 0x0 PUSH1 0x1 DUP8 DUP8 DUP8 DUP8 PUSH1 0x40 MLOAD PUSH1 0x0 DUP2 MSTORE PUSH1 0x20 ADD PUSH1 0x40 MSTORE PUSH1 0x40 MLOAD PUSH2 0x1681 SWAP5 SWAP4 SWAP3 SWAP2 SWAP1 PUSH2 0x2945 JUMP JUMPDEST PUSH1 0x20 PUSH1 0x40 MLOAD PUSH1 0x20 DUP2 SUB SWAP1 DUP1 DUP5 SUB SWAP1 DUP6 GAS STATICCALL ISZERO DUP1 ISZERO PUSH2 0x16A3 JUMPI RETURNDATASIZE PUSH1 0x0 DUP1 RETURNDATACOPY RETURNDATASIZE PUSH1 0x0 REVERT JUMPDEST POP POP POP PUSH1 0x20 PUSH1 0x40 MLOAD SUB MLOAD SWAP1 POP PUSH1 0x0 PUSH20 0xFFFFFFFFFFFFFFFFFFFFFFFFFFFFFFFFFFFFFFFF AND DUP2 PUSH20 0xFFFFFFFFFFFFFFFFFFFFFFFFFFFFFFFFFFFFFFFF AND SUB PUSH2 0x16F1 JUMPI PUSH1 0x0 PUSH1 0x1 SWAP3 POP SWAP3 POP POP PUSH2 0x16FA JUMP JUMPDEST DUP1 PUSH1 0x0 SWAP3 POP SWAP3 POP POP JUMPDEST SWAP5 POP SWAP5 SWAP3 POP POP POP JUMP JUMPDEST PUSH1 0x0 PUSH1 0x4 DUP2 GT ISZERO PUSH2 0x1717 JUMPI PUSH2 0x1716 PUSH2 0x298A JUMP JUMPDEST JUMPDEST DUP2 PUSH1 0x4 DUP2 GT ISZERO PUSH2 0x172A JUMPI PUSH2 0x1729 PUSH2 0x298A JUMP JUMPDEST JUMPDEST SUB ISZERO PUSH2 0x1866 JUMPI PUSH1 0x1 PUSH1 0x4 DUP2 GT ISZERO PUSH2 0x1744 JUMPI PUSH2 0x1743 PUSH2 0x298A JUMP JUMPDEST JUMPDEST DUP2 PUSH1 0x4 DUP2 GT ISZERO PUSH2 0x1757 JUMPI PUSH2 0x1756 PUSH2 0x298A JUMP JUMPDEST JUMPDEST SUB PUSH2 0x1797 JUMPI PUSH1 0x40 MLOAD PUSH32 0x8C379A000000000000000000000000000000000000000000000000000000000 DUP2 MSTORE PUSH1 0x4 ADD PUSH2 0x178E SWAP1 PUSH2 0x2A05 JUMP JUMPDEST PUSH1 0x40 MLOAD DUP1 SWAP2 SUB SWAP1 REVERT JUMPDEST PUSH1 0x2 PUSH1 0x4 DUP2 GT ISZERO PUSH2 0x17AB JUMPI PUSH2 0x17AA PUSH2 0x298A JUMP JUMPDEST JUMPDEST DUP2 PUSH1 0x4 DUP2 GT ISZERO PUSH2 0x17BE JUMPI PUSH2 0x17BD PUSH2 0x298A JUMP JUMPDEST JUMPDEST SUB PUSH2 0x17FE JUMPI PUSH1 0x40 MLOAD PUSH32 0x8C379A000000000000000000000000000000000000000000000000000000000 DUP2 MSTORE PUSH1 0x4 ADD PUSH2 0x17F5 SWAP1 PUSH2 0x2A71 JUMP JUMPDEST PUSH1 0x40 MLOAD DUP1 SWAP2 SUB SWAP1 REVERT JUMPDEST PUSH1 0x3 PUSH1 0x4 DUP2 GT ISZERO PUSH2 0x1812 JUMPI PUSH2 0x1811 PUSH2 0x298A JUMP JUMPDEST JUMPDEST DUP2 PUSH1 0x4 DUP2 GT ISZERO PUSH2 0x1825 JUMPI PUSH2 0x1824 PUSH2 0x298A JUMP JUMPDEST JUMPDEST SUB PUSH2 0x1865 JUMPI PUSH1 0x40 MLOAD PUSH32 0x8C379A000000000000000000000000000000000000000000000000000000000 DUP2 MSTORE PUSH1 0x4 ADD PUSH2 0x185C SWAP1 PUSH2 0x2B03 JUMP JUMPDEST PUSH1 0x40 MLOAD DUP1 SWAP2 SUB SWAP1 REVERT JUMPDEST JUMPDEST POP JUMP JUMPDEST PUSH1 0x0 DUP1 PUSH1 0xFF DUP4 PUSH1 0x0 SHR AND SWAP1 POP PUSH1 0x1F DUP2 GT ISZERO PUSH2 0x18B0 JUMPI PUSH1 0x40 MLOAD PUSH32 0xB3512B0C00000000000000000000000000000000000000000000000000000000 DUP2 MSTORE PUSH1 0x4 ADD PUSH1 0x40 MLOAD DUP1 SWAP2 SUB SWAP1 REVERT JUMPDEST DUP1 SWAP2 POP POP SWAP2 SWAP1 POP JUMP JUMPDEST PUSH1 0x0 DUP2 MLOAD SWAP1 POP SWAP2 SWAP1 POP JUMP JUMPDEST PUSH1 0x0 DUP3 DUP3 MSTORE PUSH1 0x20 DUP3 ADD SWAP1 POP SWAP3 SWAP2 POP POP JUMP JUMPDEST PUSH1 0x0 JUMPDEST DUP4 DUP2 LT ISZERO PUSH2 0x18F3 JUMPI DUP1 DUP3 ADD MLOAD DUP2 DUP5 ADD MSTORE PUSH1 0x20 DUP2 ADD SWAP1 POP PUSH2 0x18D8 JUMP JUMPDEST PUSH1 0x0 DUP5 DUP5 ADD MSTORE POP POP POP POP JUMP JUMPDEST PUSH1 0x0 PUSH1 0x1F NOT PUSH1 0x1F DUP4 ADD AND SWAP1 POP SWAP2 SWAP1 POP JUMP JUMPDEST PUSH1 0x0 PUSH2 0x191B DUP3 PUSH2 0x18B9 JUMP JUMPDEST PUSH2 0x1925 DUP2 DUP6 PUSH2 0x18C4 JUMP JUMPDEST SWAP4 POP PUSH2 0x1935 DUP2 DUP6 PUSH1 0x20 DUP7 ADD PUSH2 0x18D5 JUMP JUMPDEST PUSH2 0x193E DUP2 PUSH2 0x18FF JUMP JUMPDEST DUP5 ADD SWAP2 POP POP SWAP3 SWAP2 POP POP JUMP JUMPDEST PUSH1 0x0 PUSH1 0x20 DUP3 ADD SWAP1 POP DUP2 DUP2 SUB PUSH1 0x0 DUP4 ADD MSTORE PUSH2 0x1963 DUP2 DUP5 PUSH2 0x1910 JUMP JUMPDEST SWAP1 POP SWAP3 SWAP2 POP POP JUMP JUMPDEST PUSH1 0x0 DUP1 REVERT JUMPDEST PUSH1 0x0 PUSH20 0xFFFFFFFFFFFFFFFFFFFFFFFFFFFFFFFFFFFFFFFF DUP3 AND SWAP1 POP SWAP2 SWAP1 POP JUMP JUMPDEST PUSH1 0x0 PUSH2 0x199B DUP3 PUSH2 0x1970 JUMP JUMPDEST SWAP1 POP SWAP2 SWAP1 POP JUMP JUMPDEST PUSH2 0x19AB DUP2 PUSH2 0x1990 JUMP JUMPDEST DUP2 EQ PUSH2 0x19B6 JUMPI PUSH1 0x0 DUP1 REVERT JUMPDEST POP JUMP JUMPDEST PUSH1 0x0 DUP2 CALLDATALOAD SWAP1 POP PUSH2 0x19C8 DUP2 PUSH2 0x19A2 JUMP JUMPDEST SWAP3 SWAP2 POP POP JUMP JUMPDEST PUSH1 0x0 DUP2 SWAP1 POP SWAP2 SWAP1 POP JUMP JUMPDEST PUSH2 0x19E1 DUP2 PUSH2 0x19CE JUMP JUMPDEST DUP2 EQ PUSH2 0x19EC JUMPI PUSH1 0x0 DUP1 REVERT JUMPDEST POP JUMP JUMPDEST PUSH1 0x0 DUP2 CALLDATALOAD SWAP1 POP PUSH2 0x19FE DUP2 PUSH2 0x19D8 JUMP JUMPDEST SWAP3 SWAP2 POP POP JUMP JUMPDEST PUSH1 0x0 DUP1 PUSH1 0x40 DUP4 DUP6 SUB SLT ISZERO PUSH2 0x1A1B JUMPI PUSH2 0x1A1A PUSH2 0x196B JUMP JUMPDEST JUMPDEST PUSH1 0x0 PUSH2 0x1A29 DUP6 DUP3 DUP7 ADD PUSH2 0x19B9 JUMP JUMPDEST SWAP3 POP POP PUSH1 0x20 PUSH2 0x1A3A DUP6 DUP3 DUP7 ADD PUSH2 0x19EF JUMP JUMPDEST SWAP2 POP POP SWAP3 POP SWAP3 SWAP1 POP JUMP JUMPDEST PUSH1 0x0 DUP2 ISZERO ISZERO SWAP1 POP SWAP2 SWAP1 POP JUMP JUMPDEST PUSH2 0x1A59 DUP2 PUSH2 0x1A44 JUMP JUMPDEST DUP3 MSTORE POP POP JUMP JUMPDEST PUSH1 0x0 PUSH1 0x20 DUP3 ADD SWAP1 POP PUSH2 0x1A74 PUSH1 0x0 DUP4 ADD DUP5 PUSH2 0x1A50 JUMP JUMPDEST SWAP3 SWAP2 POP POP JUMP JUMPDEST PUSH2 0x1A83 DUP2 PUSH2 0x19CE JUMP JUMPDEST DUP3 MSTORE POP POP JUMP JUMPDEST PUSH1 0x0 PUSH1 0x20 DUP3 ADD SWAP1 POP PUSH2 0x1A9E PUSH1 0x0 DUP4 ADD DUP5 PUSH2 0x1A7A JUMP JUMPDEST SWAP3 SWAP2 POP POP JUMP JUMPDEST PUSH1 0x0 DUP1 PUSH1 0x0 PUSH1 0x60 DUP5 DUP7 SUB SLT ISZERO PUSH2 0x1ABD JUMPI PUSH2 0x1ABC PUSH2 0x196B JUMP JUMPDEST JUMPDEST PUSH1 0x0 PUSH2 0x1ACB DUP7 DUP3 DUP8 ADD PUSH2 0x19B9 JUMP JUMPDEST SWAP4 POP POP PUSH1 0x20 PUSH2 0x1ADC DUP7 DUP3 DUP8 ADD PUSH2 0x19B9 JUMP JUMPDEST SWAP3 POP POP PUSH1 0x40 PUSH2 0x1AED DUP7 DUP3 DUP8 ADD PUSH2 0x19EF JUMP JUMPDEST SWAP2 POP POP SWAP3 POP SWAP3 POP SWAP3 JUMP JUMPDEST PUSH1 0x0 PUSH1 0xFF DUP3 AND SWAP1 POP SWAP2 SWAP1 POP JUMP JUMPDEST PUSH2 0x1B0D DUP2 PUSH2 0x1AF7 JUMP JUMPDEST DUP3 MSTORE POP POP JUMP JUMPDEST PUSH1 0x0 PUSH1 0x20 DUP3 ADD SWAP1 POP PUSH2 0x1B28 PUSH1 0x0 DUP4 ADD DUP5 PUSH2 0x1B04 JUMP JUMPDEST SWAP3 SWAP2 POP POP JUMP JUMPDEST PUSH1 0x0 DUP2 SWAP1 POP SWAP2 SWAP1 POP JUMP JUMPDEST PUSH2 0x1B41 DUP2 PUSH2 0x1B2E JUMP JUMPDEST DUP3 MSTORE POP POP JUMP JUMPDEST PUSH1 0x0 PUSH1 0x20 DUP3 ADD SWAP1 POP PUSH2 0x1B5C PUSH1 0x0 DUP4 ADD DUP5 PUSH2 0x1B38 JUMP JUMPDEST SWAP3 SWAP2 POP POP JUMP JUMPDEST PUSH1 0x0 PUSH1 0x20 DUP3 DUP5 SUB SLT ISZERO PUSH2 0x1B78 JUMPI PUSH2 0x1B77 PUSH2 0x196B JUMP JUMPDEST JUMPDEST PUSH1 0x0 PUSH2 0x1B86 DUP5 DUP3 DUP6 ADD PUSH2 0x19B9 JUMP JUMPDEST SWAP2 POP POP SWAP3 SWAP2 POP POP JUMP JUMPDEST PUSH1 0x0 PUSH32 0xFF00000000000000000000000000000000000000000000000000000000000000 DUP3 AND SWAP1 POP SWAP2 SWAP1 POP JUMP JUMPDEST PUSH2 0x1BC4 DUP2 PUSH2 0x1B8F JUMP JUMPDEST DUP3 MSTORE POP POP JUMP JUMPDEST PUSH2 0x1BD3 DUP2 PUSH2 0x1990 JUMP JUMPDEST DUP3 MSTORE POP POP JUMP JUMPDEST PUSH1 0x0 DUP2 MLOAD SWAP1 POP SWAP2 SWAP1 POP JUMP JUMPDEST PUSH1 0x0 DUP3 DUP3 MSTORE PUSH1 0x20 DUP3 ADD SWAP1 POP SWAP3 SWAP2 POP POP JUMP JUMPDEST PUSH1 0x0 DUP2 SWAP1 POP PUSH1 0x20 DUP3 ADD SWAP1 POP SWAP2 SWAP1 POP JUMP JUMPDEST PUSH2 0x1C0E DUP2 PUSH2 0x19CE JUMP JUMPDEST DUP3 MSTORE POP POP JUMP JUMPDEST PUSH1 0x0 PUSH2 0x1C20 DUP4 DUP4 PUSH2 0x1C05 JUMP JUMPDEST PUSH1 0x20 DUP4 ADD SWAP1 POP SWAP3 SWAP2 POP POP JUMP JUMPDEST PUSH1 0x0 PUSH1 0x20 DUP3 ADD SWAP1 POP SWAP2 SWAP1 POP JUMP JUMPDEST PUSH1 0x0 PUSH2 0x1C44 DUP3 PUSH2 0x1BD9 JUMP JUMPDEST PUSH2 0x1C4E DUP2 DUP6 PUSH2 0x1BE4 JUMP JUMPDEST SWAP4 POP PUSH2 0x1C59 DUP4 PUSH2 0x1BF5 JUMP JUMPDEST DUP1 PUSH1 0x0 JUMPDEST DUP4 DUP2 LT ISZERO PUSH2 0x1C8A JUMPI DUP2 MLOAD PUSH2 0x1C71 DUP9 DUP3 PUSH2 0x1C14 JUMP JUMPDEST SWAP8 POP PUSH2 0x1C7C DUP4 PUSH2 0x1C2C JUMP JUMPDEST SWAP3 POP POP PUSH1 0x1 DUP2 ADD SWAP1 POP PUSH2 0x1C5D JUMP JUMPDEST POP DUP6 SWAP4 POP POP POP POP SWAP3 SWAP2 POP POP JUMP JUMPDEST PUSH1 0x0 PUSH1 0xE0 DUP3 ADD SWAP1 POP PUSH2 0x1CAC PUSH1 0x0 DUP4 ADD DUP11 PUSH2 0x1BBB JUMP JUMPDEST DUP2 DUP2 SUB PUSH1 0x20 DUP4 ADD MSTORE PUSH2 0x1CBE DUP2 DUP10 PUSH2 0x1910 JUMP JUMPDEST SWAP1 POP DUP2 DUP2 SUB PUSH1 0x40 DUP4 ADD MSTORE PUSH2 0x1CD2 DUP2 DUP9 PUSH2 0x1910 JUMP JUMPDEST SWAP1 POP PUSH2 0x1CE1 PUSH1 0x60 DUP4 ADD DUP8 PUSH2 0x1A7A JUMP JUMPDEST PUSH2 0x1CEE PUSH1 0x80 DUP4 ADD DUP7 PUSH2 0x1BCA JUMP JUMPDEST PUSH2 0x1CFB PUSH1 0xA0 DUP4 ADD DUP6 PUSH2 0x1B38 JUMP JUMPDEST DUP2 DUP2 SUB PUSH1 0xC0 DUP4 ADD MSTORE PUSH2 0x1D0D DUP2 DUP5 PUSH2 0x1C39 JUMP JUMPDEST SWAP1 POP SWAP9 SWAP8 POP POP POP POP POP POP POP POP JUMP JUMPDEST PUSH1 0x0 PUSH1 0x20 DUP3 ADD SWAP1 POP PUSH2 0x1D30 PUSH1 0x0 DUP4 ADD DUP5 PUSH2 0x1BCA JUMP JUMPDEST SWAP3 SWAP2 POP POP JUMP JUMPDEST PUSH2 0x1D3F DUP2 PUSH2 0x1AF7 JUMP JUMPDEST DUP2 EQ PUSH2 0x1D4A JUMPI PUSH1 0x0 DUP1 REVERT JUMPDEST POP JUMP JUMPDEST PUSH1 0x0 DUP2 CALLDATALOAD SWAP1 POP PUSH2 0x1D5C DUP2 PUSH2 0x1D36 JUMP JUMPDEST SWAP3 SWAP2 POP POP JUMP JUMPDEST PUSH2 0x1D6B DUP2 PUSH2 0x1B2E JUMP JUMPDEST DUP2 EQ PUSH2 0x1D76 JUMPI PUSH1 0x0 DUP1 REVERT JUMPDEST POP JUMP JUMPDEST PUSH1 0x0 DUP2 CALLDATALOAD SWAP1 POP PUSH2 0x1D88 DUP2 PUSH2 0x1D62 JUMP JUMPDEST SWAP3 SWAP2 POP POP JUMP JUMPDEST PUSH1 0x0 DUP1 PUSH1 0x0 DUP1 PUSH1 0x0 DUP1 PUSH1 0x0 PUSH1 0xE0 DUP9 DUP11 SUB SLT ISZERO PUSH2 0x1DAD JUMPI PUSH2 0x1DAC PUSH2 0x196B JUMP JUMPDEST JUMPDEST PUSH1 0x0 PUSH2 0x1DBB DUP11 DUP3 DUP12 ADD PUSH2 0x19B9 JUMP JUMPDEST SWAP8 POP POP PUSH1 0x20 PUSH2 0x1DCC DUP11 DUP3 DUP12 ADD PUSH2 0x19B9 JUMP JUMPDEST SWAP7 POP POP PUSH1 0x40 PUSH2 0x1DDD DUP11 DUP3 DUP12 ADD PUSH2 0x19EF JUMP JUMPDEST SWAP6 POP POP PUSH1 0x60 PUSH2 0x1DEE DUP11 DUP3 DUP12 ADD PUSH2 0x19EF JUMP JUMPDEST SWAP5 POP POP PUSH1 0x80 PUSH2 0x1DFF DUP11 DUP3 DUP12 ADD PUSH2 0x1D4D JUMP JUMPDEST SWAP4 POP POP PUSH1 0xA0 PUSH2 0x1E10 DUP11 DUP3 DUP12 ADD PUSH2 0x1D79 JUMP JUMPDEST SWAP3 POP POP PUSH1 0xC0 PUSH2 0x1E21 DUP11 DUP3 DUP12 ADD PUSH2 0x1D79 JUMP JUMPDEST SWAP2 POP POP SWAP3 SWAP6 SWAP9 SWAP2 SWAP5 SWAP8 POP SWAP3 SWAP6 POP JUMP JUMPDEST PUSH1 0x0 DUP1 PUSH1 0x40 DUP4 DUP6 SUB SLT ISZERO PUSH2 0x1E47 JUMPI PUSH2 0x1E46 PUSH2 0x196B JUMP JUMPDEST JUMPDEST PUSH1 0x0 PUSH2 0x1E55 DUP6 DUP3 DUP7 ADD PUSH2 0x19B9 JUMP JUMPDEST SWAP3 POP POP PUSH1 0x20 PUSH2 0x1E66 DUP6 DUP3 DUP7 ADD PUSH2 0x19B9 JUMP JUMPDEST SWAP2 POP POP SWAP3 POP SWAP3 SWAP1 POP JUMP JUMPDEST PUSH32 0x4E487B7100000000000000000000000000000000000000000000000000000000 PUSH1 0x0 MSTORE PUSH1 0x22 PUSH1 0x4 MSTORE PUSH1 0x24 PUSH1 0x0 REVERT JUMPDEST PUSH1 0x0 PUSH1 0x2 DUP3 DIV SWAP1 POP PUSH1 0x1 DUP3 AND DUP1 PUSH2 0x1EB7 JUMPI PUSH1 0x7F DUP3 AND SWAP2 POP JUMPDEST PUSH1 0x20 DUP3 LT DUP2 SUB PUSH2 0x1ECA JUMPI PUSH2 0x1EC9 PUSH2 0x1E70 JUMP JUMPDEST JUMPDEST POP SWAP2 SWAP1 POP JUMP JUMPDEST PUSH32 0x4E487B7100000000000000000000000000000000000000000000000000000000 PUSH1 0x0 MSTORE PUSH1 0x11 PUSH1 0x4 MSTORE PUSH1 0x24 PUSH1 0x0 REVERT JUMPDEST PUSH1 0x0 PUSH2 0x1F0A DUP3 PUSH2 0x19CE JUMP JUMPDEST SWAP2 POP PUSH2 0x1F15 DUP4 PUSH2 0x19CE JUMP JUMPDEST SWAP3 POP DUP3 DUP3 ADD SWAP1 POP DUP1 DUP3 GT ISZERO PUSH2 0x1F2D JUMPI PUSH2 0x1F2C PUSH2 0x1ED0 JUMP JUMPDEST JUMPDEST SWAP3 SWAP2 POP POP JUMP JUMPDEST PUSH32 0x4E487B7100000000000000000000000000000000000000000000000000000000 PUSH1 0x0 MSTORE PUSH1 0x41 PUSH1 0x4 MSTORE PUSH1 0x24 PUSH1 0x0 REVERT JUMPDEST PUSH32 0x45524332303A2064656372656173656420616C6C6F77616E63652062656C6F77 PUSH1 0x0 DUP3 ADD MSTORE PUSH32 0x207A65726F000000000000000000000000000000000000000000000000000000 PUSH1 0x20 DUP3 ADD MSTORE POP JUMP JUMPDEST PUSH1 0x0 PUSH2 0x1FBE PUSH1 0x25 DUP4 PUSH2 0x18C4 JUMP JUMPDEST SWAP2 POP PUSH2 0x1FC9 DUP3 PUSH2 0x1F62 JUMP JUMPDEST PUSH1 0x40 DUP3 ADD SWAP1 POP SWAP2 SWAP1 POP JUMP JUMPDEST PUSH1 0x0 PUSH1 0x20 DUP3 ADD SWAP1 POP DUP2 DUP2 SUB PUSH1 0x0 DUP4 ADD MSTORE PUSH2 0x1FED DUP2 PUSH2 0x1FB1 JUMP JUMPDEST SWAP1 POP SWAP2 SWAP1 POP JUMP JUMPDEST PUSH32 0x45524332305065726D69743A206578706972656420646561646C696E65000000 PUSH1 0x0 DUP3 ADD MSTORE POP JUMP JUMPDEST PUSH1 0x0 PUSH2 0x202A PUSH1 0x1D DUP4 PUSH2 0x18C4 JUMP JUMPDEST SWAP2 POP PUSH2 0x2035 DUP3 PUSH2 0x1FF4 JUMP JUMPDEST PUSH1 0x20 DUP3 ADD SWAP1 POP SWAP2 SWAP1 POP JUMP JUMPDEST PUSH1 0x0 PUSH1 0x20 DUP3 ADD SWAP1 POP DUP2 DUP2 SUB PUSH1 0x0 DUP4 ADD MSTORE PUSH2 0x2059 DUP2 PUSH2 0x201D JUMP JUMPDEST SWAP1 POP SWAP2 SWAP1 POP JUMP JUMPDEST PUSH1 0x0 PUSH1 0xC0 DUP3 ADD SWAP1 POP PUSH2 0x2075 PUSH1 0x0 DUP4 ADD DUP10 PUSH2 0x1B38 JUMP JUMPDEST PUSH2 0x2082 PUSH1 0x20 DUP4 ADD DUP9 PUSH2 0x1BCA JUMP JUMPDEST PUSH2 0x208F PUSH1 0x40 DUP4 ADD DUP8 PUSH2 0x1BCA JUMP JUMPDEST PUSH2 0x209C PUSH1 0x60 DUP4 ADD DUP7 PUSH2 0x1A7A JUMP JUMPDEST PUSH2 0x20A9 PUSH1 0x80 DUP4 ADD DUP6 PUSH2 0x1A7A JUMP JUMPDEST PUSH2 0x20B6 PUSH1 0xA0 DUP4 ADD DUP5 PUSH2 0x1A7A JUMP JUMPDEST SWAP8 SWAP7 POP POP POP POP POP POP POP JUMP JUMPDEST PUSH32 0x45524332305065726D69743A20696E76616C6964207369676E61747572650000 PUSH1 0x0 DUP3 ADD MSTORE POP JUMP JUMPDEST PUSH1 0x0 PUSH2 0x20F7 PUSH1 0x1E DUP4 PUSH2 0x18C4 JUMP JUMPDEST SWAP2 POP PUSH2 0x2102 DUP3 PUSH2 0x20C1 JUMP JUMPDEST PUSH1 0x20 DUP3 ADD SWAP1 POP SWAP2 SWAP1 POP JUMP JUMPDEST PUSH1 0x0 PUSH1 0x20 DUP3 ADD SWAP1 POP DUP2 DUP2 SUB PUSH1 0x0 DUP4 ADD MSTORE PUSH2 0x2126 DUP2 PUSH2 0x20EA JUMP JUMPDEST SWAP1 POP SWAP2 SWAP1 POP JUMP JUMPDEST PUSH32 0x4F776E61626C653A206E6577206F776E657220697320746865207A65726F2061 PUSH1 0x0 DUP3 ADD MSTORE PUSH32 0x6464726573730000000000000000000000000000000000000000000000000000 PUSH1 0x20 DUP3 ADD MSTORE POP JUMP JUMPDEST PUSH1 0x0 PUSH2 0x2189 PUSH1 0x26 DUP4 PUSH2 0x18C4 JUMP JUMPDEST SWAP2 POP PUSH2 0x2194 DUP3 PUSH2 0x212D JUMP JUMPDEST PUSH1 0x40 DUP3 ADD SWAP1 POP SWAP2 SWAP1 POP JUMP JUMPDEST PUSH1 0x0 PUSH1 0x20 DUP3 ADD SWAP1 POP DUP2 DUP2 SUB PUSH1 0x0 DUP4 ADD MSTORE PUSH2 0x21B8 DUP2 PUSH2 0x217C JUMP JUMPDEST SWAP1 POP SWAP2 SWAP1 POP JUMP JUMPDEST PUSH1 0x0 DUP2 SWAP1 POP DUP2 PUSH1 0x0 MSTORE PUSH1 0x20 PUSH1 0x0 KECCAK256 SWAP1 POP SWAP2 SWAP1 POP JUMP JUMPDEST PUSH1 0x0 PUSH1 0x20 PUSH1 0x1F DUP4 ADD DIV SWAP1 POP SWAP2 SWAP1 POP JUMP JUMPDEST PUSH1 0x0 DUP3 DUP3 SHL SWAP1 POP SWAP3 SWAP2 POP POP JUMP JUMPDEST PUSH1 0x0 PUSH1 0x8 DUP4 MUL PUSH2 0x2221 PUSH32 0xFFFFFFFFFFFFFFFFFFFFFFFFFFFFFFFFFFFFFFFFFFFFFFFFFFFFFFFFFFFFFFFF DUP3 PUSH2 0x21E4 JUMP JUMPDEST PUSH2 0x222B DUP7 DUP4 PUSH2 0x21E4 JUMP JUMPDEST SWAP6 POP DUP1 NOT DUP5 AND SWAP4 POP DUP1 DUP7 AND DUP5 OR SWAP3 POP POP POP SWAP4 SWAP3 POP POP POP JUMP JUMPDEST PUSH1 0x0 DUP2 SWAP1 POP SWAP2 SWAP1 POP JUMP JUMPDEST PUSH1 0x0 PUSH2 0x2268 PUSH2 0x2263 PUSH2 0x225E DUP5 PUSH2 0x19CE JUMP JUMPDEST PUSH2 0x2243 JUMP JUMPDEST PUSH2 0x19CE JUMP JUMPDEST SWAP1 POP SWAP2 SWAP1 POP JUMP JUMPDEST PUSH1 0x0 DUP2 SWAP1 POP SWAP2 SWAP1 POP JUMP JUMPDEST PUSH2 0x2282 DUP4 PUSH2 0x224D JUMP JUMPDEST PUSH2 0x2296 PUSH2 0x228E DUP3 PUSH2 0x226F JUMP JUMPDEST DUP5 DUP5 SLOAD PUSH2 0x21F1 JUMP JUMPDEST DUP3 SSTORE POP POP POP POP JUMP JUMPDEST PUSH1 0x0 SWAP1 JUMP JUMPDEST PUSH2 0x22AB PUSH2 0x229E JUMP JUMPDEST PUSH2 0x22B6 DUP2 DUP5 DUP5 PUSH2 0x2279 JUMP JUMPDEST POP POP POP JUMP JUMPDEST JUMPDEST DUP2 DUP2 LT ISZERO PUSH2 0x22DA JUMPI PUSH2 0x22CF PUSH1 0x0 DUP3 PUSH2 0x22A3 JUMP JUMPDEST PUSH1 0x1 DUP2 ADD SWAP1 POP PUSH2 0x22BC JUMP JUMPDEST POP POP JUMP JUMPDEST PUSH1 0x1F DUP3 GT ISZERO PUSH2 0x231F JUMPI PUSH2 0x22F0 DUP2 PUSH2 0x21BF JUMP JUMPDEST PUSH2 0x22F9 DUP5 PUSH2 0x21D4 JUMP JUMPDEST DUP2 ADD PUSH1 0x20 DUP6 LT ISZERO PUSH2 0x2308 JUMPI DUP2 SWAP1 POP JUMPDEST PUSH2 0x231C PUSH2 0x2314 DUP6 PUSH2 0x21D4 JUMP JUMPDEST DUP4 ADD DUP3 PUSH2 0x22BB JUMP JUMPDEST POP POP JUMPDEST POP POP POP JUMP JUMPDEST PUSH1 0x0 DUP3 DUP3 SHR SWAP1 POP SWAP3 SWAP2 POP POP JUMP JUMPDEST PUSH1 0x0 PUSH2 0x2342 PUSH1 0x0 NOT DUP5 PUSH1 0x8 MUL PUSH2 0x2324 JUMP JUMPDEST NOT DUP1 DUP4 AND SWAP2 POP POP SWAP3 SWAP2 POP POP JUMP JUMPDEST PUSH1 0x0 PUSH2 0x235B DUP4 DUP4 PUSH2 0x2331 JUMP JUMPDEST SWAP2 POP DUP3 PUSH1 0x2 MUL DUP3 OR SWAP1 POP SWAP3 SWAP2 POP POP JUMP JUMPDEST PUSH2 0x2374 DUP3 PUSH2 0x18B9 JUMP JUMPDEST PUSH8 0xFFFFFFFFFFFFFFFF DUP2 GT ISZERO PUSH2 0x238D JUMPI PUSH2 0x238C PUSH2 0x1F33 JUMP JUMPDEST JUMPDEST PUSH2 0x2397 DUP3 SLOAD PUSH2 0x1E9F JUMP JUMPDEST PUSH2 0x23A2 DUP3 DUP3 DUP6 PUSH2 0x22DE JUMP JUMPDEST PUSH1 0x0 PUSH1 0x20 SWAP1 POP PUSH1 0x1F DUP4 GT PUSH1 0x1 DUP2 EQ PUSH2 0x23D5 JUMPI PUSH1 0x0 DUP5 ISZERO PUSH2 0x23C3 JUMPI DUP3 DUP8 ADD MLOAD SWAP1 POP JUMPDEST PUSH2 0x23CD DUP6 DUP3 PUSH2 0x234F JUMP JUMPDEST DUP7 SSTORE POP PUSH2 0x2435 JUMP JUMPDEST PUSH1 0x1F NOT DUP5 AND PUSH2 0x23E3 DUP7 PUSH2 0x21BF JUMP JUMPDEST PUSH1 0x0 JUMPDEST DUP3 DUP2 LT ISZERO PUSH2 0x240B JUMPI DUP5 DUP10 ADD MLOAD DUP3 SSTORE PUSH1 0x1 DUP3 ADD SWAP2 POP PUSH1 0x20 DUP6 ADD SWAP5 POP PUSH1 0x20 DUP2 ADD SWAP1 POP PUSH2 0x23E6 JUMP JUMPDEST DUP7 DUP4 LT ISZERO PUSH2 0x2428 JUMPI DUP5 DUP10 ADD MLOAD PUSH2 0x2424 PUSH1 0x1F DUP10 AND DUP3 PUSH2 0x2331 JUMP JUMPDEST DUP4 SSTORE POP JUMPDEST PUSH1 0x1 PUSH1 0x2 DUP9 MUL ADD DUP9 SSTORE POP POP POP JUMPDEST POP POP POP POP POP POP JUMP JUMPDEST PUSH32 0x45524332303A20617070726F76652066726F6D20746865207A65726F20616464 PUSH1 0x0 DUP3 ADD MSTORE PUSH32 0x7265737300000000000000000000000000000000000000000000000000000000 PUSH1 0x20 DUP3 ADD MSTORE POP JUMP JUMPDEST PUSH1 0x0 PUSH2 0x2499 PUSH1 0x24 DUP4 PUSH2 0x18C4 JUMP JUMPDEST SWAP2 POP PUSH2 0x24A4 DUP3 PUSH2 0x243D JUMP JUMPDEST PUSH1 0x40 DUP3 ADD SWAP1 POP SWAP2 SWAP1 POP JUMP JUMPDEST PUSH1 0x0 PUSH1 0x20 DUP3 ADD SWAP1 POP DUP2 DUP2 SUB PUSH1 0x0 DUP4 ADD MSTORE PUSH2 0x24C8 DUP2 PUSH2 0x248C JUMP JUMPDEST SWAP1 POP SWAP2 SWAP1 POP JUMP JUMPDEST PUSH32 0x45524332303A20617070726F766520746F20746865207A65726F206164647265 PUSH1 0x0 DUP3 ADD MSTORE PUSH32 0x7373000000000000000000000000000000000000000000000000000000000000 PUSH1 0x20 DUP3 ADD MSTORE POP JUMP JUMPDEST PUSH1 0x0 PUSH2 0x252B PUSH1 0x22 DUP4 PUSH2 0x18C4 JUMP JUMPDEST SWAP2 POP PUSH2 0x2536 DUP3 PUSH2 0x24CF JUMP JUMPDEST PUSH1 0x40 DUP3 ADD SWAP1 POP SWAP2 SWAP1 POP JUMP JUMPDEST PUSH1 0x0 PUSH1 0x20 DUP3 ADD SWAP1 POP DUP2 DUP2 SUB PUSH1 0x0 DUP4 ADD MSTORE PUSH2 0x255A DUP2 PUSH2 0x251E JUMP JUMPDEST SWAP1 POP SWAP2 SWAP1 POP JUMP JUMPDEST PUSH32 0x45524332303A20696E73756666696369656E7420616C6C6F77616E6365000000 PUSH1 0x0 DUP3 ADD MSTORE POP JUMP JUMPDEST PUSH1 0x0 PUSH2 0x2597 PUSH1 0x1D DUP4 PUSH2 0x18C4 JUMP JUMPDEST SWAP2 POP PUSH2 0x25A2 DUP3 PUSH2 0x2561 JUMP JUMPDEST PUSH1 0x20 DUP3 ADD SWAP1 POP SWAP2 SWAP1 POP JUMP JUMPDEST PUSH1 0x0 PUSH1 0x20 DUP3 ADD SWAP1 POP DUP2 DUP2 SUB PUSH1 0x0 DUP4 ADD MSTORE PUSH2 0x25C6 DUP2 PUSH2 0x258A JUMP JUMPDEST SWAP1 POP SWAP2 SWAP1 POP JUMP JUMPDEST PUSH32 0x45524332303A207472616E736665722066726F6D20746865207A65726F206164 PUSH1 0x0 DUP3 ADD MSTORE PUSH32 0x6472657373000000000000000000000000000000000000000000000000000000 PUSH1 0x20 DUP3 ADD MSTORE POP JUMP JUMPDEST PUSH1 0x0 PUSH2 0x2629 PUSH1 0x25 DUP4 PUSH2 0x18C4 JUMP JUMPDEST SWAP2 POP PUSH2 0x2634 DUP3 PUSH2 0x25CD JUMP JUMPDEST PUSH1 0x40 DUP3 ADD SWAP1 POP SWAP2 SWAP1 POP JUMP JUMPDEST PUSH1 0x0 PUSH1 0x20 DUP3 ADD SWAP1 POP DUP2 DUP2 SUB PUSH1 0x0 DUP4 ADD MSTORE PUSH2 0x2658 DUP2 PUSH2 0x261C JUMP JUMPDEST SWAP1 POP SWAP2 SWAP1 POP JUMP JUMPDEST PUSH32 0x45524332303A207472616E7366657220746F20746865207A65726F2061646472 PUSH1 0x0 DUP3 ADD MSTORE PUSH32 0x6573730000000000000000000000000000000000000000000000000000000000 PUSH1 0x20 DUP3 ADD MSTORE POP JUMP JUMPDEST PUSH1 0x0 PUSH2 0x26BB PUSH1 0x23 DUP4 PUSH2 0x18C4 JUMP JUMPDEST SWAP2 POP PUSH2 0x26C6 DUP3 PUSH2 0x265F JUMP JUMPDEST PUSH1 0x40 DUP3 ADD SWAP1 POP SWAP2 SWAP1 POP JUMP JUMPDEST PUSH1 0x0 PUSH1 0x20 DUP3 ADD SWAP1 POP DUP2 DUP2 SUB PUSH1 0x0 DUP4 ADD MSTORE PUSH2 0x26EA DUP2 PUSH2 0x26AE JUMP JUMPDEST SWAP1 POP SWAP2 SWAP1 POP JUMP JUMPDEST PUSH32 0x45524332303A207472616E7366657220616D6F756E7420657863656564732062 PUSH1 0x0 DUP3 ADD MSTORE PUSH32 0x616C616E63650000000000000000000000000000000000000000000000000000 PUSH1 0x20 DUP3 ADD MSTORE POP JUMP JUMPDEST PUSH1 0x0 PUSH2 0x274D PUSH1 0x26 DUP4 PUSH2 0x18C4 JUMP JUMPDEST SWAP2 POP PUSH2 0x2758 DUP3 PUSH2 0x26F1 JUMP JUMPDEST PUSH1 0x40 DUP3 ADD SWAP1 POP SWAP2 SWAP1 POP JUMP JUMPDEST PUSH1 0x0 PUSH1 0x20 DUP3 ADD SWAP1 POP DUP2 DUP2 SUB PUSH1 0x0 DUP4 ADD MSTORE PUSH2 0x277C DUP2 PUSH2 0x2740 JUMP JUMPDEST SWAP1 POP SWAP2 SWAP1 POP JUMP JUMPDEST PUSH32 0x4F776E61626C653A2063616C6C6572206973206E6F7420746865206F776E6572 PUSH1 0x0 DUP3 ADD MSTORE POP JUMP JUMPDEST PUSH1 0x0 PUSH2 0x27B9 PUSH1 0x20 DUP4 PUSH2 0x18C4 JUMP JUMPDEST SWAP2 POP PUSH2 0x27C4 DUP3 PUSH2 0x2783 JUMP JUMPDEST PUSH1 0x20 DUP3 ADD SWAP1 POP SWAP2 SWAP1 POP JUMP JUMPDEST PUSH1 0x0 PUSH1 0x20 DUP3 ADD SWAP1 POP DUP2 DUP2 SUB PUSH1 0x0 DUP4 ADD MSTORE PUSH2 0x27E8 DUP2 PUSH2 0x27AC JUMP JUMPDEST SWAP1 POP SWAP2 SWAP1 POP JUMP JUMPDEST PUSH32 0x45524332303A206D696E7420746F20746865207A65726F206164647265737300 PUSH1 0x0 DUP3 ADD MSTORE POP JUMP JUMPDEST PUSH1 0x0 PUSH2 0x2825 PUSH1 0x1F DUP4 PUSH2 0x18C4 JUMP JUMPDEST SWAP2 POP PUSH2 0x2830 DUP3 PUSH2 0x27EF JUMP JUMPDEST PUSH1 0x20 DUP3 ADD SWAP1 POP SWAP2 SWAP1 POP JUMP JUMPDEST PUSH1 0x0 PUSH1 0x20 DUP3 ADD SWAP1 POP DUP2 DUP2 SUB PUSH1 0x0 DUP4 ADD MSTORE PUSH2 0x2854 DUP2 PUSH2 0x2818 JUMP JUMPDEST SWAP1 POP SWAP2 SWAP1 POP JUMP JUMPDEST PUSH1 0x0 DUP2 MLOAD SWAP1 POP SWAP2 SWAP1 POP JUMP JUMPDEST PUSH1 0x0 DUP2 SWAP1 POP PUSH1 0x20 DUP3 ADD SWAP1 POP SWAP2 SWAP1 POP JUMP JUMPDEST PUSH1 0x0 PUSH2 0x2882 DUP3 MLOAD PUSH2 0x1B2E JUMP JUMPDEST DUP1 SWAP2 POP POP SWAP2 SWAP1 POP JUMP JUMPDEST PUSH1 0x0 PUSH2 0x2896 DUP3 PUSH2 0x285B JUMP JUMPDEST DUP3 PUSH2 0x28A0 DUP5 PUSH2 0x2866 JUMP JUMPDEST SWAP1 POP PUSH2 0x28AB DUP2 PUSH2 0x2876 JUMP JUMPDEST SWAP3 POP PUSH1 0x20 DUP3 LT ISZERO PUSH2 0x28EB JUMPI PUSH2 0x28E6 PUSH32 0xFFFFFFFFFFFFFFFFFFFFFFFFFFFFFFFFFFFFFFFFFFFFFFFFFFFFFFFFFFFFFFFF DUP4 PUSH1 0x20 SUB PUSH1 0x8 MUL PUSH2 0x21E4 JUMP JUMPDEST DUP4 AND SWAP3 POP JUMPDEST POP POP SWAP2 SWAP1 POP JUMP JUMPDEST PUSH1 0x0 PUSH1 0xA0 DUP3 ADD SWAP1 POP PUSH2 0x2907 PUSH1 0x0 DUP4 ADD DUP9 PUSH2 0x1B38 JUMP JUMPDEST PUSH2 0x2914 PUSH1 0x20 DUP4 ADD DUP8 PUSH2 0x1B38 JUMP JUMPDEST PUSH2 0x2921 PUSH1 0x40 DUP4 ADD DUP7 PUSH2 0x1B38 JUMP JUMPDEST PUSH2 0x292E PUSH1 0x60 DUP4 ADD DUP6 PUSH2 0x1A7A JUMP JUMPDEST PUSH2 0x293B PUSH1 0x80 DUP4 ADD DUP5 PUSH2 0x1BCA JUMP JUMPDEST SWAP7 SWAP6 POP POP POP POP POP POP JUMP JUMPDEST PUSH1 0x0 PUSH1 0x80 DUP3 ADD SWAP1 POP PUSH2 0x295A PUSH1 0x0 DUP4 ADD DUP8 PUSH2 0x1B38 JUMP JUMPDEST PUSH2 0x2967 PUSH1 0x20 DUP4 ADD DUP7 PUSH2 0x1B04 JUMP JUMPDEST PUSH2 0x2974 PUSH1 0x40 DUP4 ADD DUP6 PUSH2 0x1B38 JUMP JUMPDEST PUSH2 0x2981 PUSH1 0x60 DUP4 ADD DUP5 PUSH2 0x1B38 JUMP JUMPDEST SWAP6 SWAP5 POP POP POP POP POP JUMP JUMPDEST PUSH32 0x4E487B7100000000000000000000000000000000000000000000000000000000 PUSH1 0x0 MSTORE PUSH1 0x21 PUSH1 0x4 MSTORE PUSH1 0x24 PUSH1 0x0 REVERT JUMPDEST PUSH32 0x45434453413A20696E76616C6964207369676E61747572650000000000000000 PUSH1 0x0 DUP3 ADD MSTORE POP JUMP JUMPDEST PUSH1 0x0 PUSH2 0x29EF PUSH1 0x18 DUP4 PUSH2 0x18C4 JUMP JUMPDEST SWAP2 POP PUSH2 0x29FA DUP3 PUSH2 0x29B9 JUMP JUMPDEST PUSH1 0x20 DUP3 ADD SWAP1 POP SWAP2 SWAP1 POP JUMP JUMPDEST PUSH1 0x0 PUSH1 0x20 DUP3 ADD SWAP1 POP DUP2 DUP2 SUB PUSH1 0x0 DUP4 ADD MSTORE PUSH2 0x2A1E DUP2 PUSH2 0x29E2 JUMP JUMPDEST SWAP1 POP SWAP2 SWAP1 POP JUMP JUMPDEST PUSH32 0x45434453413A20696E76616C6964207369676E6174757265206C656E67746800 PUSH1 0x0 DUP3 ADD MSTORE POP JUMP JUMPDEST PUSH1 0x0 PUSH2 0x2A5B PUSH1 0x1F DUP4 PUSH2 0x18C4 JUMP JUMPDEST SWAP2 POP PUSH2 0x2A66 DUP3 PUSH2 0x2A25 JUMP JUMPDEST PUSH1 0x20 DUP3 ADD SWAP1 POP SWAP2 SWAP1 POP JUMP JUMPDEST PUSH1 0x0 PUSH1 0x20 DUP3 ADD SWAP1 POP DUP2 DUP2 SUB PUSH1 0x0 DUP4 ADD MSTORE PUSH2 0x2A8A DUP2 PUSH2 0x2A4E JUMP JUMPDEST SWAP1 POP SWAP2 SWAP1 POP JUMP JUMPDEST PUSH32 0x45434453413A20696E76616C6964207369676E6174757265202773272076616C PUSH1 0x0 DUP3 ADD MSTORE PUSH32 0x7565000000000000000000000000000000000000000000000000000000000000 PUSH1 0x20 DUP3 ADD MSTORE POP JUMP JUMPDEST PUSH1 0x0 PUSH2 0x2AED PUSH1 0x22 DUP4 PUSH2 0x18C4 JUMP JUMPDEST SWAP2 POP PUSH2 0x2AF8 DUP3 PUSH2 0x2A91 JUMP JUMPDEST PUSH1 0x40 DUP3 ADD SWAP1 POP SWAP2 SWAP1 POP JUMP JUMPDEST PUSH1 0x0 PUSH1 0x20 DUP3 ADD SWAP1 POP DUP2 DUP2 SUB PUSH1 0x0 DUP4 ADD MSTORE PUSH2 0x2B1C DUP2 PUSH2 0x2AE0 JUMP JUMPDEST SWAP1 POP SWAP2 SWAP1 POP JUMP INVALID LOG2 PUSH5 0x6970667358 0x22 SLT KECCAK256 0x2A 0xB9 0xD1 0x2D RETURN DUP15 STATICCALL 0xD1 0x2C PUSH9 0xA2FF821EAE1A98EC75 REVERT 0xEF 0x2D DUP14 0xE0 0xA8 0xE5 BALANCE 0xD8 CODECOPY 0xDE 0xDB 0xEF PUSH5 0x736F6C6343 STOP ADDMOD GT STOP CALLER LOG2 PUSH5 0x6970667358 0x22 SLT KECCAK256 0xC8 PUSH12 0xA7ED2853D11759A2916C2CA8 0x2E ISZERO CALLDATALOAD 0xC5 PUSH27 0x94FE0E08F024F68E559F54761464736F6C63430008110033000000 "},"methodIdentifiers":{"getBalance()":"12065fe0","invest(uint256,uint256)":"d87aa643","investors(uint256,address)":"e61dd2a6","list(uint256,uint256,uint256,string,string,address)":"bb86a3ab","nftAddress()":"5bf8633a","nftData(uint256)":"8c210975","updateInspectionStatus(uint256,bool)":"9d0e5fd6"}}}}}