{
  "_format": "hh-sol-artifact-1",
  "contractName": "Token",
  "sourceName": "contracts/Tokens.sol",
  "abi": [
    {
      "inputs": [
        {
          "internalType": "string",
          "name": "_symbol",
          "type": "string"
        },
        {
          "internalType": "string",
          "name": "_name",
          "type": "string"
        }
      ],
      "stateMutability": "nonpayable",
      "type": "constructor"
    },
    {
      "inputs": [],
      "name": "InvalidShortString",
      "type": "error"
    },
    {
      "inputs": [
        {
          "internalType": "string",
          "name": "str",
          "type": "string"
        }
      ],
      "name": "StringTooLong",
      "type": "error"
    },
    {
      "anonymous": false,
      "inputs": [
        {
          "indexed": true,
          "internalType": "address",
          "name": "owner",
          "type": "address"
        },
        {
          "indexed": true,
          "internalType": "address",
          "name": "spender",
          "type": "address"
        },
        {
          "indexed": false,
          "internalType": "uint256",
          "name": "value",
          "type": "uint256"
        }
      ],
      "name": "Approval",
      "type": "event"
    },
    {
      "anonymous": false,
      "inputs": [],
      "name": "EIP712DomainChanged",
      "type": "event"
    },
    {
      "anonymous": false,
      "inputs": [
        {
          "indexed": true,
          "internalType": "address",
          "name": "previousOwner",
          "type": "address"
        },
        {
          "indexed": true,
          "internalType": "address",
          "name": "newOwner",
          "type": "address"
        }
      ],
      "name": "OwnershipTransferred",
      "type": "event"
    },
    {
      "anonymous": false,
      "inputs": [
        {
          "indexed": true,
          "internalType": "address",
          "name": "from",
          "type": "address"
        },
        {
          "indexed": true,
          "internalType": "address",
          "name": "to",
          "type": "address"
        },
        {
          "indexed": false,
          "internalType": "uint256",
          "name": "value",
          "type": "uint256"
        }
      ],
      "name": "Transfer",
      "type": "event"
    },
    {
      "inputs": [],
      "name": "DOMAIN_SEPARATOR",
      "outputs": [
        {
          "internalType": "bytes32",
          "name": "",
          "type": "bytes32"
        }
      ],
      "stateMutability": "view",
      "type": "function"
    },
    {
      "inputs": [
        {
          "internalType": "address",
          "name": "owner",
          "type": "address"
        },
        {
          "internalType": "address",
          "name": "spender",
          "type": "address"
        }
      ],
      "name": "allowance",
      "outputs": [
        {
          "internalType": "uint256",
          "name": "",
          "type": "uint256"
        }
      ],
      "stateMutability": "view",
      "type": "function"
    },
    {
      "inputs": [
        {
          "internalType": "address",
          "name": "spender",
          "type": "address"
        },
        {
          "internalType": "uint256",
          "name": "amount",
          "type": "uint256"
        }
      ],
      "name": "approve",
      "outputs": [
        {
          "internalType": "bool",
          "name": "",
          "type": "bool"
        }
      ],
      "stateMutability": "nonpayable",
      "type": "function"
    },
    {
      "inputs": [
        {
          "internalType": "address",
          "name": "account",
          "type": "address"
        }
      ],
      "name": "balanceOf",
      "outputs": [
        {
          "internalType": "uint256",
          "name": "",
          "type": "uint256"
        }
      ],
      "stateMutability": "view",
      "type": "function"
    },
    {
      "inputs": [],
      "name": "decimals",
      "outputs": [
        {
          "internalType": "uint8",
          "name": "",
          "type": "uint8"
        }
      ],
      "stateMutability": "view",
      "type": "function"
    },
    {
      "inputs": [
        {
          "internalType": "address",
          "name": "spender",
          "type": "address"
        },
        {
          "internalType": "uint256",
          "name": "subtractedValue",
          "type": "uint256"
        }
      ],
      "name": "decreaseAllowance",
      "outputs": [
        {
          "internalType": "bool",
          "name": "",
          "type": "bool"
        }
      ],
      "stateMutability": "nonpayable",
      "type": "function"
    },
    {
      "inputs": [],
      "name": "eip712Domain",
      "outputs": [
        {
          "internalType": "bytes1",
          "name": "fields",
          "type": "bytes1"
        },
        {
          "internalType": "string",
          "name": "name",
          "type": "string"
        },
        {
          "internalType": "string",
          "name": "version",
          "type": "string"
        },
        {
          "internalType": "uint256",
          "name": "chainId",
          "type": "uint256"
        },
        {
          "internalType": "address",
          "name": "verifyingContract",
          "type": "address"
        },
        {
          "internalType": "bytes32",
          "name": "salt",
          "type": "bytes32"
        },
        {
          "internalType": "uint256[]",
          "name": "extensions",
          "type": "uint256[]"
        }
      ],
      "stateMutability": "view",
      "type": "function"
    },
    {
      "inputs": [
        {
          "internalType": "address",
          "name": "spender",
          "type": "address"
        },
        {
          "internalType": "uint256",
          "name": "addedValue",
          "type": "uint256"
        }
      ],
      "name": "increaseAllowance",
      "outputs": [
        {
          "internalType": "bool",
          "name": "",
          "type": "bool"
        }
      ],
      "stateMutability": "nonpayable",
      "type": "function"
    },
    {
      "inputs": [
        {
          "internalType": "address",
          "name": "to",
          "type": "address"
        },
        {
          "internalType": "uint256",
          "name": "amount",
          "type": "uint256"
        }
      ],
      "name": "mint",
      "outputs": [],
      "stateMutability": "nonpayable",
      "type": "function"
    },
    {
      "inputs": [],
      "name": "name",
      "outputs": [
        {
          "internalType": "string",
          "name": "",
          "type": "string"
        }
      ],
      "stateMutability": "view",
      "type": "function"
    },
    {
      "inputs": [
        {
          "internalType": "address",
          "name": "owner",
          "type": "address"
        }
      ],
      "name": "nonces",
      "outputs": [
        {
          "internalType": "uint256",
          "name": "",
          "type": "uint256"
        }
      ],
      "stateMutability": "view",
      "type": "function"
    },
    {
      "inputs": [],
      "name": "owner",
      "outputs": [
        {
          "internalType": "address",
          "name": "",
          "type": "address"
        }
      ],
      "stateMutability": "view",
      "type": "function"
    },
    {
      "inputs": [
        {
          "internalType": "address",
          "name": "owner",
          "type": "address"
        },
        {
          "internalType": "address",
          "name": "spender",
          "type": "address"
        },
        {
          "internalType": "uint256",
          "name": "value",
          "type": "uint256"
        },
        {
          "internalType": "uint256",
          "name": "deadline",
          "type": "uint256"
        },
        {
          "internalType": "uint8",
          "name": "v",
          "type": "uint8"
        },
        {
          "internalType": "bytes32",
          "name": "r",
          "type": "bytes32"
        },
        {
          "internalType": "bytes32",
          "name": "s",
          "type": "bytes32"
        }
      ],
      "name": "permit",
      "outputs": [],
      "stateMutability": "nonpayable",
      "type": "function"
    },
    {
      "inputs": [],
      "name": "renounceOwnership",
      "outputs": [],
      "stateMutability": "nonpayable",
      "type": "function"
    },
    {
      "inputs": [],
      "name": "symbol",
      "outputs": [
        {
          "internalType": "string",
          "name": "",
          "type": "string"
        }
      ],
      "stateMutability": "view",
      "type": "function"
    },
    {
      "inputs": [],
      "name": "totalSupply",
      "outputs": [
        {
          "internalType": "uint256",
          "name": "",
          "type": "uint256"
        }
      ],
      "stateMutability": "view",
      "type": "function"
    },
    {
      "inputs": [
        {
          "internalType": "address",
          "name": "to",
          "type": "address"
        },
        {
          "internalType": "uint256",
          "name": "amount",
          "type": "uint256"
        }
      ],
      "name": "transfer",
      "outputs": [
        {
          "internalType": "bool",
          "name": "",
          "type": "bool"
        }
      ],
      "stateMutability": "nonpayable",
      "type": "function"
    },
    {
      "inputs": [
        {
          "internalType": "address",
          "name": "from",
          "type": "address"
        },
        {
          "internalType": "address",
          "name": "to",
          "type": "address"
        },
        {
          "internalType": "uint256",
          "name": "amount",
          "type": "uint256"
        }
      ],
      "name": "transferFrom",
      "outputs": [
        {
          "internalType": "bool",
          "name": "",
          "type": "bool"
        }
      ],
      "stateMutability": "nonpayable",
      "type": "function"
    },
    {
      "inputs": [
        {
          "internalType": "address",
          "name": "newOwner",
          "type": "address"
        }
      ],
      "name": "transferOwnership",
      "outputs": [],
      "stateMutability": "nonpayable",
      "type": "function"
    }
  ],
  "bytecode": "0x6101606040523480156200001257600080fd5b506040516200365e3803806200365e83398181016040528101906200003891906200050d565b80806040518060400160405280600181526020017f310000000000000000000000000000000000000000000000000000000000000081525083858160039081620000839190620007dd565b508060049081620000959190620007dd565b505050620000b8620000ac6200017b60201b60201c565b6200018360201b60201c565b620000d36006836200024960201b62000a7b1790919060201c565b6101208181525050620000f66007826200024960201b62000a7b1790919060201c565b6101408181525050818051906020012060e08181525050808051906020012061010081815250504660a0818152505062000135620002a660201b60201c565b608081815250503073ffffffffffffffffffffffffffffffffffffffff1660c08173ffffffffffffffffffffffffffffffffffffffff1681525050505050505062000aaa565b600033905090565b6000600560009054906101000a900473ffffffffffffffffffffffffffffffffffffffff16905081600560006101000a81548173ffffffffffffffffffffffffffffffffffffffff021916908373ffffffffffffffffffffffffffffffffffffffff1602179055508173ffffffffffffffffffffffffffffffffffffffff168173ffffffffffffffffffffffffffffffffffffffff167f8be0079c531659141344cd1fd0a4f28419497f9722a3daafe3b4186f6b6457e060405160405180910390a35050565b60006020835110156200026f5762000267836200030360201b60201c565b9050620002a0565b8262000286836200037060201b62000abf1760201c565b6000019081620002979190620007dd565b5060ff60001b90505b92915050565b60007f8b73c3c69bb8fe3d512ecc4cf759cc79239f7b179b0ffacaa9a75d522b39400f60e051610100514630604051602001620002e895949392919062000935565b60405160208183030381529060405280519060200120905090565b600080829050601f815111156200035357826040517f305a27a90000000000000000000000000000000000000000000000000000000081526004016200034a9190620009e4565b60405180910390fd5b805181620003619062000a3a565b60001c1760001b915050919050565b6000819050919050565b6000604051905090565b600080fd5b600080fd5b600080fd5b600080fd5b6000601f19601f8301169050919050565b7f4e487b7100000000000000000000000000000000000000000000000000000000600052604160045260246000fd5b620003e38262000398565b810181811067ffffffffffffffff82111715620004055762000404620003a9565b5b80604052505050565b60006200041a6200037a565b9050620004288282620003d8565b919050565b600067ffffffffffffffff8211156200044b576200044a620003a9565b5b620004568262000398565b9050602081019050919050565b60005b838110156200048357808201518184015260208101905062000466565b60008484015250505050565b6000620004a6620004a0846200042d565b6200040e565b905082815260208101848484011115620004c557620004c462000393565b5b620004d284828562000463565b509392505050565b600082601f830112620004f257620004f16200038e565b5b8151620005048482602086016200048f565b91505092915050565b6000806040838503121562000527576200052662000384565b5b600083015167ffffffffffffffff81111562000548576200054762000389565b5b6200055685828601620004da565b925050602083015167ffffffffffffffff8111156200057a576200057962000389565b5b6200058885828601620004da565b9150509250929050565b600081519050919050565b7f4e487b7100000000000000000000000000000000000000000000000000000000600052602260045260246000fd5b60006002820490506001821680620005e557607f821691505b602082108103620005fb57620005fa6200059d565b5b50919050565b60008190508160005260206000209050919050565b60006020601f8301049050919050565b600082821b905092915050565b600060088302620006657fffffffffffffffffffffffffffffffffffffffffffffffffffffffffffffffff8262000626565b62000671868362000626565b95508019841693508086168417925050509392505050565b6000819050919050565b6000819050919050565b6000620006be620006b8620006b28462000689565b62000693565b62000689565b9050919050565b6000819050919050565b620006da836200069d565b620006f2620006e982620006c5565b84845462000633565b825550505050565b600090565b62000709620006fa565b62000716818484620006cf565b505050565b5b818110156200073e5762000732600082620006ff565b6001810190506200071c565b5050565b601f8211156200078d57620007578162000601565b620007628462000616565b8101602085101562000772578190505b6200078a620007818562000616565b8301826200071b565b50505b505050565b600082821c905092915050565b6000620007b26000198460080262000792565b1980831691505092915050565b6000620007cd83836200079f565b9150826002028217905092915050565b620007e88262000592565b67ffffffffffffffff811115620008045762000803620003a9565b5b620008108254620005cc565b6200081d82828562000742565b600060209050601f83116001811462000855576000841562000840578287015190505b6200084c8582620007bf565b865550620008bc565b601f198416620008658662000601565b60005b828110156200088f5784890151825560018201915060208501945060208101905062000868565b86831015620008af5784890151620008ab601f8916826200079f565b8355505b6001600288020188555050505b505050505050565b6000819050919050565b620008d981620008c4565b82525050565b620008ea8162000689565b82525050565b600073ffffffffffffffffffffffffffffffffffffffff82169050919050565b60006200091d82620008f0565b9050919050565b6200092f8162000910565b82525050565b600060a0820190506200094c6000830188620008ce565b6200095b6020830187620008ce565b6200096a6040830186620008ce565b620009796060830185620008df565b62000988608083018462000924565b9695505050505050565b600082825260208201905092915050565b6000620009b08262000592565b620009bc818562000992565b9350620009ce81856020860162000463565b620009d98162000398565b840191505092915050565b6000602082019050818103600083015262000a008184620009a3565b905092915050565b600081519050919050565b6000819050602082019050919050565b600062000a318251620008c4565b80915050919050565b600062000a478262000a08565b8262000a538462000a13565b905062000a608162000a23565b9250602082101562000aa35762000a9e7fffffffffffffffffffffffffffffffffffffffffffffffffffffffffffffffff8360200360080262000626565b831692505b5050919050565b60805160a05160c05160e051610100516101205161014051612b5962000b05600039600061061e015260006105ea01526000611506015260006114e501526000610fa001526000610ff60152600061101f0152612b596000f3fe608060405234801561001057600080fd5b50600436106101215760003560e01c8063715018a6116100ad578063a457c2d711610071578063a457c2d714610314578063a9059cbb14610344578063d505accf14610374578063dd62ed3e14610390578063f2fde38b146103c057610121565b8063715018a61461027a5780637ecebe001461028457806384b0196e146102b45780638da5cb5b146102d857806395d89b41146102f657610121565b8063313ce567116100f4578063313ce567146101c25780633644e515146101e057806339509351146101fe57806340c10f191461022e57806370a082311461024a57610121565b806306fdde0314610126578063095ea7b31461014457806318160ddd1461017457806323b872dd14610192575b600080fd5b61012e6103dc565b60405161013b9190611949565b60405180910390f35b61015e60048036038101906101599190611a04565b61046e565b60405161016b9190611a5f565b60405180910390f35b61017c610491565b6040516101899190611a89565b60405180910390f35b6101ac60048036038101906101a79190611aa4565b61049b565b6040516101b99190611a5f565b60405180910390f35b6101ca6104ca565b6040516101d79190611b13565b60405180910390f35b6101e86104cf565b6040516101f59190611b47565b60405180910390f35b61021860048036038101906102139190611a04565b6104de565b6040516102259190611a5f565b60405180910390f35b61024860048036038101906102439190611a04565b610515565b005b610264600480360381019061025f9190611b62565b61052b565b6040516102719190611a89565b60405180910390f35b610282610573565b005b61029e60048036038101906102999190611b62565b610587565b6040516102ab9190611a89565b60405180910390f35b6102bc6105d7565b6040516102cf9796959493929190611c97565b60405180910390f35b6102e06106d9565b6040516102ed9190611d1b565b60405180910390f35b6102fe610703565b60405161030b9190611949565b60405180910390f35b61032e60048036038101906103299190611a04565b610795565b60405161033b9190611a5f565b60405180910390f35b61035e60048036038101906103599190611a04565b61080c565b60405161036b9190611a5f565b60405180910390f35b61038e60048036038101906103899190611d8e565b61082f565b005b6103aa60048036038101906103a59190611e30565b610971565b6040516103b79190611a89565b60405180910390f35b6103da60048036038101906103d59190611b62565b6109f8565b005b6060600380546103eb90611e9f565b80601f016020809104026020016040519081016040528092919081815260200182805461041790611e9f565b80156104645780601f1061043957610100808354040283529160200191610464565b820191906000526020600020905b81548152906001019060200180831161044757829003601f168201915b5050505050905090565b600080610479610ac9565b9050610486818585610ad1565b600191505092915050565b6000600254905090565b6000806104a6610ac9565b90506104b3858285610c9a565b6104be858585610d26565b60019150509392505050565b600090565b60006104d9610f9c565b905090565b6000806104e9610ac9565b905061050a8185856104fb8589610971565b6105059190611eff565b610ad1565b600191505092915050565b61051d611053565b61052782826110d1565b5050565b60008060008373ffffffffffffffffffffffffffffffffffffffff1673ffffffffffffffffffffffffffffffffffffffff168152602001908152602001600020549050919050565b61057b611053565b6105856000611227565b565b60006105d0600860008473ffffffffffffffffffffffffffffffffffffffff1673ffffffffffffffffffffffffffffffffffffffff1681526020019081526020016000206112ed565b9050919050565b60006060806000806000606061061760067f00000000000000000000000000000000000000000000000000000000000000006112fb90919063ffffffff16565b61064b60077f00000000000000000000000000000000000000000000000000000000000000006112fb90919063ffffffff16565b46306000801b600067ffffffffffffffff81111561066c5761066b611f33565b5b60405190808252806020026020018201604052801561069a5781602001602082028036833780820191505090505b507f0f00000000000000000000000000000000000000000000000000000000000000959493929190965096509650965096509650965090919293949596565b6000600560009054906101000a900473ffffffffffffffffffffffffffffffffffffffff16905090565b60606004805461071290611e9f565b80601f016020809104026020016040519081016040528092919081815260200182805461073e90611e9f565b801561078b5780601f106107605761010080835404028352916020019161078b565b820191906000526020600020905b81548152906001019060200180831161076e57829003601f168201915b5050505050905090565b6000806107a0610ac9565b905060006107ae8286610971565b9050838110156107f3576040517f08c379a00000000000000000000000000000000000000000000000000000000081526004016107ea90611fd4565b60405180910390fd5b6108008286868403610ad1565b60019250505092915050565b600080610817610ac9565b9050610824818585610d26565b600191505092915050565b83421115610872576040517f08c379a000000000000000000000000000000000000000000000000000000000815260040161086990612040565b60405180910390fd5b60007f6e71edae12b1b97f4d1f60370fef10105fa2faae0126114a169c64845d6126c98888886108a18c6113ab565b896040516020016108b796959493929190612060565b60405160208183030381529060405280519060200120905060006108da82611409565b905060006108ea82878787611423565b90508973ffffffffffffffffffffffffffffffffffffffff168173ffffffffffffffffffffffffffffffffffffffff161461095a576040517f08c379a00000000000000000000000000000000000000000000000000000000081526004016109519061210d565b60405180910390fd5b6109658a8a8a610ad1565b50505050505050505050565b6000600160008473ffffffffffffffffffffffffffffffffffffffff1673ffffffffffffffffffffffffffffffffffffffff16815260200190815260200160002060008373ffffffffffffffffffffffffffffffffffffffff1673ffffffffffffffffffffffffffffffffffffffff16815260200190815260200160002054905092915050565b610a00611053565b600073ffffffffffffffffffffffffffffffffffffffff168173ffffffffffffffffffffffffffffffffffffffff1603610a6f576040517f08c379a0000000000000000000000000000000000000000000000000000000008152600401610a669061219f565b60405180910390fd5b610a7881611227565b50565b6000602083511015610a9757610a908361144e565b9050610ab9565b82610aa183610abf565b6000019081610ab0919061236b565b5060ff60001b90505b92915050565b6000819050919050565b600033905090565b600073ffffffffffffffffffffffffffffffffffffffff168373ffffffffffffffffffffffffffffffffffffffff1603610b40576040517f08c379a0000000000000000000000000000000000000000000000000000000008152600401610b37906124af565b60405180910390fd5b600073ffffffffffffffffffffffffffffffffffffffff168273ffffffffffffffffffffffffffffffffffffffff1603610baf576040517f08c379a0000000000000000000000000000000000000000000000000000000008152600401610ba690612541565b60405180910390fd5b80600160008573ffffffffffffffffffffffffffffffffffffffff1673ffffffffffffffffffffffffffffffffffffffff16815260200190815260200160002060008473ffffffffffffffffffffffffffffffffffffffff1673ffffffffffffffffffffffffffffffffffffffff168152602001908152602001600020819055508173ffffffffffffffffffffffffffffffffffffffff168373ffffffffffffffffffffffffffffffffffffffff167f8c5be1e5ebec7d5bd14f71427d1e84f3dd0314c0f7b2291e5b200ac8c7c3b92583604051610c8d9190611a89565b60405180910390a3505050565b6000610ca68484610971565b90507fffffffffffffffffffffffffffffffffffffffffffffffffffffffffffffffff8114610d205781811015610d12576040517f08c379a0000000000000000000000000000000000000000000000000000000008152600401610d09906125ad565b60405180910390fd5b610d1f8484848403610ad1565b5b50505050565b600073ffffffffffffffffffffffffffffffffffffffff168373ffffffffffffffffffffffffffffffffffffffff1603610d95576040517f08c379a0000000000000000000000000000000000000000000000000000000008152600401610d8c9061263f565b60405180910390fd5b600073ffffffffffffffffffffffffffffffffffffffff168273ffffffffffffffffffffffffffffffffffffffff1603610e04576040517f08c379a0000000000000000000000000000000000000000000000000000000008152600401610dfb906126d1565b60405180910390fd5b610e0f8383836114b6565b60008060008573ffffffffffffffffffffffffffffffffffffffff1673ffffffffffffffffffffffffffffffffffffffff16815260200190815260200160002054905081811015610e95576040517f08c379a0000000000000000000000000000000000000000000000000000000008152600401610e8c90612763565b60405180910390fd5b8181036000808673ffffffffffffffffffffffffffffffffffffffff1673ffffffffffffffffffffffffffffffffffffffff16815260200190815260200160002081905550816000808573ffffffffffffffffffffffffffffffffffffffff1673ffffffffffffffffffffffffffffffffffffffff168152602001908152602001600020600082825401925050819055508273ffffffffffffffffffffffffffffffffffffffff168473ffffffffffffffffffffffffffffffffffffffff167fddf252ad1be2c89b69c2b068fc378daa952ba7f163c4a11628f55a4df523b3ef84604051610f839190611a89565b60405180910390a3610f968484846114bb565b50505050565b60007f000000000000000000000000000000000000000000000000000000000000000073ffffffffffffffffffffffffffffffffffffffff163073ffffffffffffffffffffffffffffffffffffffff1614801561101857507f000000000000000000000000000000000000000000000000000000000000000046145b15611045577f00000000000000000000000000000000000000000000000000000000000000009050611050565b61104d6114c0565b90505b90565b61105b610ac9565b73ffffffffffffffffffffffffffffffffffffffff166110796106d9565b73ffffffffffffffffffffffffffffffffffffffff16146110cf576040517f08c379a00000000000000000000000000000000000000000000000000000000081526004016110c6906127cf565b60405180910390fd5b565b600073ffffffffffffffffffffffffffffffffffffffff168273ffffffffffffffffffffffffffffffffffffffff1603611140576040517f08c379a00000000000000000000000000000000000000000000000000000000081526004016111379061283b565b60405180910390fd5b61114c600083836114b6565b806002600082825461115e9190611eff565b92505081905550806000808473ffffffffffffffffffffffffffffffffffffffff1673ffffffffffffffffffffffffffffffffffffffff168152602001908152602001600020600082825401925050819055508173ffffffffffffffffffffffffffffffffffffffff16600073ffffffffffffffffffffffffffffffffffffffff167fddf252ad1be2c89b69c2b068fc378daa952ba7f163c4a11628f55a4df523b3ef8360405161120f9190611a89565b60405180910390a3611223600083836114bb565b5050565b6000600560009054906101000a900473ffffffffffffffffffffffffffffffffffffffff16905081600560006101000a81548173ffffffffffffffffffffffffffffffffffffffff021916908373ffffffffffffffffffffffffffffffffffffffff1602179055508173ffffffffffffffffffffffffffffffffffffffff168173ffffffffffffffffffffffffffffffffffffffff167f8be0079c531659141344cd1fd0a4f28419497f9722a3daafe3b4186f6b6457e060405160405180910390a35050565b600081600001549050919050565b606060ff60001b83146113185761131183611556565b90506113a5565b81805461132490611e9f565b80601f016020809104026020016040519081016040528092919081815260200182805461135090611e9f565b801561139d5780601f106113725761010080835404028352916020019161139d565b820191906000526020600020905b81548152906001019060200180831161138057829003601f168201915b505050505090505b92915050565b600080600860008473ffffffffffffffffffffffffffffffffffffffff1673ffffffffffffffffffffffffffffffffffffffff16815260200190815260200160002090506113f8816112ed565b9150611403816115ca565b50919050565b600061141c611416610f9c565b836115e0565b9050919050565b600080600061143487878787611621565b9150915061144181611703565b8192505050949350505050565b600080829050601f8151111561149b57826040517f305a27a90000000000000000000000000000000000000000000000000000000081526004016114929190611949565b60405180910390fd5b8051816114a79061288b565b60001c1760001b915050919050565b505050565b505050565b60007f8b73c3c69bb8fe3d512ecc4cf759cc79239f7b179b0ffacaa9a75d522b39400f7f00000000000000000000000000000000000000000000000000000000000000007f0000000000000000000000000000000000000000000000000000000000000000463060405160200161153b9594939291906128f2565b60405160208183030381529060405280519060200120905090565b6060600061156383611869565b90506000602067ffffffffffffffff81111561158257611581611f33565b5b6040519080825280601f01601f1916602001820160405280156115b45781602001600182028036833780820191505090505b5090508181528360208201528092505050919050565b6001816000016000828254019250508190555050565b60006040517f190100000000000000000000000000000000000000000000000000000000000081528360028201528260228201526042812091505092915050565b6000807f7fffffffffffffffffffffffffffffff5d576e7357a4501ddfe92f46681b20a08360001c111561165c5760006003915091506116fa565b6000600187878787604051600081526020016040526040516116819493929190612945565b6020604051602081039080840390855afa1580156116a3573d6000803e3d6000fd5b505050602060405103519050600073ffffffffffffffffffffffffffffffffffffffff168173ffffffffffffffffffffffffffffffffffffffff16036116f1576000600192509250506116fa565b80600092509250505b94509492505050565b600060048111156117175761171661298a565b5b81600481111561172a5761172961298a565b5b031561186657600160048111156117445761174361298a565b5b8160048111156117575761175661298a565b5b03611797576040517f08c379a000000000000000000000000000000000000000000000000000000000815260040161178e90612a05565b60405180910390fd5b600260048111156117ab576117aa61298a565b5b8160048111156117be576117bd61298a565b5b036117fe576040517f08c379a00000000000000000000000000000000000000000000000000000000081526004016117f590612a71565b60405180910390fd5b600360048111156118125761181161298a565b5b8160048111156118255761182461298a565b5b03611865576040517f08c379a000000000000000000000000000000000000000000000000000000000815260040161185c90612b03565b60405180910390fd5b5b50565b60008060ff8360001c169050601f8111156118b0576040517fb3512b0c00000000000000000000000000000000000000000000000000000000815260040160405180910390fd5b80915050919050565b600081519050919050565b600082825260208201905092915050565b60005b838110156118f35780820151818401526020810190506118d8565b60008484015250505050565b6000601f19601f8301169050919050565b600061191b826118b9565b61192581856118c4565b93506119358185602086016118d5565b61193e816118ff565b840191505092915050565b600060208201905081810360008301526119638184611910565b905092915050565b600080fd5b600073ffffffffffffffffffffffffffffffffffffffff82169050919050565b600061199b82611970565b9050919050565b6119ab81611990565b81146119b657600080fd5b50565b6000813590506119c8816119a2565b92915050565b6000819050919050565b6119e1816119ce565b81146119ec57600080fd5b50565b6000813590506119fe816119d8565b92915050565b60008060408385031215611a1b57611a1a61196b565b5b6000611a29858286016119b9565b9250506020611a3a858286016119ef565b9150509250929050565b60008115159050919050565b611a5981611a44565b82525050565b6000602082019050611a746000830184611a50565b92915050565b611a83816119ce565b82525050565b6000602082019050611a9e6000830184611a7a565b92915050565b600080600060608486031215611abd57611abc61196b565b5b6000611acb868287016119b9565b9350506020611adc868287016119b9565b9250506040611aed868287016119ef565b9150509250925092565b600060ff82169050919050565b611b0d81611af7565b82525050565b6000602082019050611b286000830184611b04565b92915050565b6000819050919050565b611b4181611b2e565b82525050565b6000602082019050611b5c6000830184611b38565b92915050565b600060208284031215611b7857611b7761196b565b5b6000611b86848285016119b9565b91505092915050565b60007fff0000000000000000000000000000000000000000000000000000000000000082169050919050565b611bc481611b8f565b82525050565b611bd381611990565b82525050565b600081519050919050565b600082825260208201905092915050565b6000819050602082019050919050565b611c0e816119ce565b82525050565b6000611c208383611c05565b60208301905092915050565b6000602082019050919050565b6000611c4482611bd9565b611c4e8185611be4565b9350611c5983611bf5565b8060005b83811015611c8a578151611c718882611c14565b9750611c7c83611c2c565b925050600181019050611c5d565b5085935050505092915050565b600060e082019050611cac600083018a611bbb565b8181036020830152611cbe8189611910565b90508181036040830152611cd28188611910565b9050611ce16060830187611a7a565b611cee6080830186611bca565b611cfb60a0830185611b38565b81810360c0830152611d0d8184611c39565b905098975050505050505050565b6000602082019050611d306000830184611bca565b92915050565b611d3f81611af7565b8114611d4a57600080fd5b50565b600081359050611d5c81611d36565b92915050565b611d6b81611b2e565b8114611d7657600080fd5b50565b600081359050611d8881611d62565b92915050565b600080600080600080600060e0888a031215611dad57611dac61196b565b5b6000611dbb8a828b016119b9565b9750506020611dcc8a828b016119b9565b9650506040611ddd8a828b016119ef565b9550506060611dee8a828b016119ef565b9450506080611dff8a828b01611d4d565b93505060a0611e108a828b01611d79565b92505060c0611e218a828b01611d79565b91505092959891949750929550565b60008060408385031215611e4757611e4661196b565b5b6000611e55858286016119b9565b9250506020611e66858286016119b9565b9150509250929050565b7f4e487b7100000000000000000000000000000000000000000000000000000000600052602260045260246000fd5b60006002820490506001821680611eb757607f821691505b602082108103611eca57611ec9611e70565b5b50919050565b7f4e487b7100000000000000000000000000000000000000000000000000000000600052601160045260246000fd5b6000611f0a826119ce565b9150611f15836119ce565b9250828201905080821115611f2d57611f2c611ed0565b5b92915050565b7f4e487b7100000000000000000000000000000000000000000000000000000000600052604160045260246000fd5b7f45524332303a2064656372656173656420616c6c6f77616e63652062656c6f7760008201527f207a65726f000000000000000000000000000000000000000000000000000000602082015250565b6000611fbe6025836118c4565b9150611fc982611f62565b604082019050919050565b60006020820190508181036000830152611fed81611fb1565b9050919050565b7f45524332305065726d69743a206578706972656420646561646c696e65000000600082015250565b600061202a601d836118c4565b915061203582611ff4565b602082019050919050565b600060208201905081810360008301526120598161201d565b9050919050565b600060c0820190506120756000830189611b38565b6120826020830188611bca565b61208f6040830187611bca565b61209c6060830186611a7a565b6120a96080830185611a7a565b6120b660a0830184611a7a565b979650505050505050565b7f45524332305065726d69743a20696e76616c6964207369676e61747572650000600082015250565b60006120f7601e836118c4565b9150612102826120c1565b602082019050919050565b60006020820190508181036000830152612126816120ea565b9050919050565b7f4f776e61626c653a206e6577206f776e657220697320746865207a65726f206160008201527f6464726573730000000000000000000000000000000000000000000000000000602082015250565b60006121896026836118c4565b91506121948261212d565b604082019050919050565b600060208201905081810360008301526121b88161217c565b9050919050565b60008190508160005260206000209050919050565b60006020601f8301049050919050565b600082821b905092915050565b6000600883026122217fffffffffffffffffffffffffffffffffffffffffffffffffffffffffffffffff826121e4565b61222b86836121e4565b95508019841693508086168417925050509392505050565b6000819050919050565b600061226861226361225e846119ce565b612243565b6119ce565b9050919050565b6000819050919050565b6122828361224d565b61229661228e8261226f565b8484546121f1565b825550505050565b600090565b6122ab61229e565b6122b6818484612279565b505050565b5b818110156122da576122cf6000826122a3565b6001810190506122bc565b5050565b601f82111561231f576122f0816121bf565b6122f9846121d4565b81016020851015612308578190505b61231c612314856121d4565b8301826122bb565b50505b505050565b600082821c905092915050565b600061234260001984600802612324565b1980831691505092915050565b600061235b8383612331565b9150826002028217905092915050565b612374826118b9565b67ffffffffffffffff81111561238d5761238c611f33565b5b6123978254611e9f565b6123a28282856122de565b600060209050601f8311600181146123d557600084156123c3578287015190505b6123cd858261234f565b865550612435565b601f1984166123e3866121bf565b60005b8281101561240b578489015182556001820191506020850194506020810190506123e6565b868310156124285784890151612424601f891682612331565b8355505b6001600288020188555050505b505050505050565b7f45524332303a20617070726f76652066726f6d20746865207a65726f2061646460008201527f7265737300000000000000000000000000000000000000000000000000000000602082015250565b60006124996024836118c4565b91506124a48261243d565b604082019050919050565b600060208201905081810360008301526124c88161248c565b9050919050565b7f45524332303a20617070726f766520746f20746865207a65726f20616464726560008201527f7373000000000000000000000000000000000000000000000000000000000000602082015250565b600061252b6022836118c4565b9150612536826124cf565b604082019050919050565b6000602082019050818103600083015261255a8161251e565b9050919050565b7f45524332303a20696e73756666696369656e7420616c6c6f77616e6365000000600082015250565b6000612597601d836118c4565b91506125a282612561565b602082019050919050565b600060208201905081810360008301526125c68161258a565b9050919050565b7f45524332303a207472616e736665722066726f6d20746865207a65726f20616460008201527f6472657373000000000000000000000000000000000000000000000000000000602082015250565b60006126296025836118c4565b9150612634826125cd565b604082019050919050565b600060208201905081810360008301526126588161261c565b9050919050565b7f45524332303a207472616e7366657220746f20746865207a65726f206164647260008201527f6573730000000000000000000000000000000000000000000000000000000000602082015250565b60006126bb6023836118c4565b91506126c68261265f565b604082019050919050565b600060208201905081810360008301526126ea816126ae565b9050919050565b7f45524332303a207472616e7366657220616d6f756e742065786365656473206260008201527f616c616e63650000000000000000000000000000000000000000000000000000602082015250565b600061274d6026836118c4565b9150612758826126f1565b604082019050919050565b6000602082019050818103600083015261277c81612740565b9050919050565b7f4f776e61626c653a2063616c6c6572206973206e6f7420746865206f776e6572600082015250565b60006127b96020836118c4565b91506127c482612783565b602082019050919050565b600060208201905081810360008301526127e8816127ac565b9050919050565b7f45524332303a206d696e7420746f20746865207a65726f206164647265737300600082015250565b6000612825601f836118c4565b9150612830826127ef565b602082019050919050565b6000602082019050818103600083015261285481612818565b9050919050565b600081519050919050565b6000819050602082019050919050565b60006128828251611b2e565b80915050919050565b60006128968261285b565b826128a084612866565b90506128ab81612876565b925060208210156128eb576128e67fffffffffffffffffffffffffffffffffffffffffffffffffffffffffffffffff836020036008026121e4565b831692505b5050919050565b600060a0820190506129076000830188611b38565b6129146020830187611b38565b6129216040830186611b38565b61292e6060830185611a7a565b61293b6080830184611bca565b9695505050505050565b600060808201905061295a6000830187611b38565b6129676020830186611b04565b6129746040830185611b38565b6129816060830184611b38565b95945050505050565b7f4e487b7100000000000000000000000000000000000000000000000000000000600052602160045260246000fd5b7f45434453413a20696e76616c6964207369676e61747572650000000000000000600082015250565b60006129ef6018836118c4565b91506129fa826129b9565b602082019050919050565b60006020820190508181036000830152612a1e816129e2565b9050919050565b7f45434453413a20696e76616c6964207369676e6174757265206c656e67746800600082015250565b6000612a5b601f836118c4565b9150612a6682612a25565b602082019050919050565b60006020820190508181036000830152612a8a81612a4e565b9050919050565b7f45434453413a20696e76616c6964207369676e6174757265202773272076616c60008201527f7565000000000000000000000000000000000000000000000000000000000000602082015250565b6000612aed6022836118c4565b9150612af882612a91565b604082019050919050565b60006020820190508181036000830152612b1c81612ae0565b905091905056fea26469706673582212202ab9d12df38efad12c68a2ff821eae1a98ec75fdef2d8de0a8e531d839dedbef64736f6c63430008110033",
  "linkReferences": {},
  "deployedLinkReferences": {}
}