{
  "_format": "hh-sol-artifact-1",
  "contractName": "Investment",
  "sourceName": "contracts/Investment.sol",
  "abi": [
    {
      "inputs": [
        {
          "internalType": "address",
          "name": "_nftAddress",
          "type": "address"
        },
        {
          "internalType": "address payable",
          "name": "_owner",
          "type": "address"
        },
        {
          "internalType": "address",
          "name": "_inspector",
          "type": "address"
        }
      ],
      "stateMutability": "nonpayable",
      "type": "constructor"
    },
    {
      "inputs": [],
      "name": "getBalance",
      "outputs": [
        {
          "internalType": "uint256",
          "name": "",
          "type": "uint256"
        }
      ],
      "stateMutability": "view",
      "type": "function"
    },
    {
      "inputs": [
        {
          "internalType": "uint256",
          "name": "",
          "type": "uint256"
        }
      ],
      "name": "inspectionPassed",
      "outputs": [
        {
          "internalType": "bool",
          "name": "",
          "type": "bool"
        }
      ],
      "stateMutability": "view",
      "type": "function"
    },
    {
      "inputs": [],
      "name": "inspector",
      "outputs": [
        {
          "internalType": "address",
          "name": "",
          "type": "address"
        }
      ],
      "stateMutability": "view",
      "type": "function"
    },
    {
      "inputs": [
        {
          "internalType": "uint256",
          "name": "_nftID",
          "type": "uint256"
        },
        {
          "internalType": "uint256",
          "name": "_numberOfTokensInvested",
          "type": "uint256"
        }
      ],
      "name": "invest",
      "outputs": [],
      "stateMutability": "payable",
      "type": "function"
    },
    {
      "inputs": [
        {
          "internalType": "uint256",
          "name": "",
          "type": "uint256"
        },
        {
          "internalType": "address",
          "name": "",
          "type": "address"
        }
      ],
      "name": "investors",
      "outputs": [
        {
          "internalType": "uint256",
          "name": "",
          "type": "uint256"
        }
      ],
      "stateMutability": "view",
      "type": "function"
    },
    {
      "inputs": [
        {
          "internalType": "uint256",
          "name": "",
          "type": "uint256"
        }
      ],
      "name": "isListed",
      "outputs": [
        {
          "internalType": "bool",
          "name": "",
          "type": "bool"
        }
      ],
      "stateMutability": "view",
      "type": "function"
    },
    {
      "inputs": [
        {
          "internalType": "uint256",
          "name": "_nftID",
          "type": "uint256"
        },
        {
          "internalType": "uint256",
          "name": "_totalPrice",
          "type": "uint256"
        },
        {
          "internalType": "uint256",
          "name": "_sharedPersentage",
          "type": "uint256"
        }
      ],
      "name": "list",
      "outputs": [],
      "stateMutability": "payable",
      "type": "function"
    },
    {
      "inputs": [],
      "name": "nftAddress",
      "outputs": [
        {
          "internalType": "address",
          "name": "",
          "type": "address"
        }
      ],
      "stateMutability": "view",
      "type": "function"
    },
    {
      "inputs": [
        {
          "internalType": "uint256",
          "name": "",
          "type": "uint256"
        }
      ],
      "name": "numberOfTotalTokens",
      "outputs": [
        {
          "internalType": "uint256",
          "name": "",
          "type": "uint256"
        }
      ],
      "stateMutability": "view",
      "type": "function"
    },
    {
      "inputs": [],
      "name": "owner",
      "outputs": [
        {
          "internalType": "address payable",
          "name": "",
          "type": "address"
        }
      ],
      "stateMutability": "view",
      "type": "function"
    },
    {
      "inputs": [
        {
          "internalType": "uint256",
          "name": "",
          "type": "uint256"
        }
      ],
      "name": "tokenPrice",
      "outputs": [
        {
          "internalType": "uint256",
          "name": "",
          "type": "uint256"
        }
      ],
      "stateMutability": "view",
      "type": "function"
    },
    {
      "inputs": [
        {
          "internalType": "uint256",
          "name": "",
          "type": "uint256"
        }
      ],
      "name": "totalPrice",
      "outputs": [
        {
          "internalType": "uint256",
          "name": "",
          "type": "uint256"
        }
      ],
      "stateMutability": "view",
      "type": "function"
    },
    {
      "inputs": [
        {
          "internalType": "uint256",
          "name": "_nftID",
          "type": "uint256"
        },
        {
          "internalType": "bool",
          "name": "_passed",
          "type": "bool"
        }
      ],
      "name": "updateInspectionStatus",
      "outputs": [],
      "stateMutability": "nonpayable",
      "type": "function"
    },
    {
      "stateMutability": "payable",
      "type": "receive"
    }
  ],
  "bytecode": "0x60806040523480156200001157600080fd5b5060405162001402380380620014028339818101604052810190620000379190620001b1565b826000806101000a81548173ffffffffffffffffffffffffffffffffffffffff021916908373ffffffffffffffffffffffffffffffffffffffff16021790555081600160006101000a81548173ffffffffffffffffffffffffffffffffffffffff021916908373ffffffffffffffffffffffffffffffffffffffff16021790555080600260006101000a81548173ffffffffffffffffffffffffffffffffffffffff021916908373ffffffffffffffffffffffffffffffffffffffff1602179055505050506200020d565b600080fd5b600073ffffffffffffffffffffffffffffffffffffffff82169050919050565b6000620001348262000107565b9050919050565b620001468162000127565b81146200015257600080fd5b50565b60008151905062000166816200013b565b92915050565b6000620001798262000107565b9050919050565b6200018b816200016c565b81146200019757600080fd5b50565b600081519050620001ab8162000180565b92915050565b600080600060608486031215620001cd57620001cc62000102565b5b6000620001dd8682870162000155565b9350506020620001f0868287016200019a565b9250506040620002038682870162000155565b9150509250925092565b6111e5806200021d6000396000f3fe6080604052600436106100c65760003560e01c80638da5cb5b1161007f578063d87aa64311610059578063d87aa6431461028c578063e61dd2a6146102a8578063ed2cee9e146102e5578063fcce488314610310576100cd565b80638da5cb5b146101fb5780639d0e5fd614610226578063d4ddce8a1461024f576100cd565b806312065fe0146100d257806319aeb490146100fd578063221f2285146101195780635bf8633a146101565780635eed5fff146101815780638af64cad146101be576100cd565b366100cd57005b600080fd5b3480156100de57600080fd5b506100e761034d565b6040516100f49190610966565b60405180910390f35b610117600480360381019061011291906109b2565b610355565b005b34801561012557600080fd5b50610140600480360381019061013b9190610a05565b6105c5565b60405161014d9190610966565b60405180910390f35b34801561016257600080fd5b5061016b6105dd565b6040516101789190610a73565b60405180910390f35b34801561018d57600080fd5b506101a860048036038101906101a39190610a05565b610601565b6040516101b59190610aa9565b60405180910390f35b3480156101ca57600080fd5b506101e560048036038101906101e09190610a05565b610621565b6040516101f29190610966565b60405180910390f35b34801561020757600080fd5b50610210610639565b60405161021d9190610ae5565b60405180910390f35b34801561023257600080fd5b5061024d60048036038101906102489190610b2c565b61065f565b005b34801561025b57600080fd5b5061027660048036038101906102719190610a05565b61071e565b6040516102839190610966565b60405180910390f35b6102a660048036038101906102a19190610b6c565b610736565b005b3480156102b457600080fd5b506102cf60048036038101906102ca9190610bd8565b6108e2565b6040516102dc9190610966565b60405180910390f35b3480156102f157600080fd5b506102fa610907565b6040516103079190610a73565b60405180910390f35b34801561031c57600080fd5b5061033760048036038101906103329190610a05565b61092d565b6040516103449190610aa9565b60405180910390f35b600047905090565b600160009054906101000a900473ffffffffffffffffffffffffffffffffffffffff1673ffffffffffffffffffffffffffffffffffffffff163373ffffffffffffffffffffffffffffffffffffffff16146103e5576040517f08c379a00000000000000000000000000000000000000000000000000000000081526004016103dc90610c75565b60405180910390fd5b604b81111580156103f7575060148110155b610436576040517f08c379a000000000000000000000000000000000000000000000000000000000815260040161042d90610d2d565b60405180910390fd5b60008211610479576040517f08c379a000000000000000000000000000000000000000000000000000000000815260040161047090610dbf565b60405180910390fd5b60008054906101000a900473ffffffffffffffffffffffffffffffffffffffff1673ffffffffffffffffffffffffffffffffffffffff166323b872dd3330866040518463ffffffff1660e01b81526004016104d693929190610ddf565b600060405180830381600087803b1580156104f057600080fd5b505af1158015610504573d6000803e3d6000fd5b5050505060016005600085815260200190815260200160002060006101000a81548160ff0219169083151502179055508160066000858152602001908152602001600020819055506064816105599190610e45565b600460008581526020019081526020016000208190555060046000848152602001908152602001600020546009600085815260200190815260200160002081905550612710826105a99190610eb6565b6008600085815260200190815260200160002081905550505050565b60066020528060005260406000206000915090505481565b60008054906101000a900473ffffffffffffffffffffffffffffffffffffffff1681565b60036020528060005260406000206000915054906101000a900460ff1681565b60046020528060005260406000206000915090505481565b600160009054906101000a900473ffffffffffffffffffffffffffffffffffffffff1681565b600260009054906101000a900473ffffffffffffffffffffffffffffffffffffffff1673ffffffffffffffffffffffffffffffffffffffff163373ffffffffffffffffffffffffffffffffffffffff16146106ef576040517f08c379a00000000000000000000000000000000000000000000000000000000081526004016106e690610f59565b60405180910390fd5b806003600084815260200190815260200160002060006101000a81548160ff0219169083151502179055505050565b60086020528060005260406000206000915090505481565b600115156003600084815260200190815260200160002060009054906101000a900460ff1615151461079d576040517f08c379a000000000000000000000000000000000000000000000000000000000815260040161079490611011565b60405180910390fd5b6000811180156107c0575060096000838152602001908152602001600020548111155b6107ff576040517f08c379a00000000000000000000000000000000000000000000000000000000081526004016107f6906110c9565b60405180910390fd5b60086000838152602001908152602001600020548161081e9190610e45565b341461085f576040517f08c379a00000000000000000000000000000000000000000000000000000000081526004016108569061115b565b60405180910390fd5b806007600084815260200190815260200160002060003373ffffffffffffffffffffffffffffffffffffffff1673ffffffffffffffffffffffffffffffffffffffff16815260200190815260200160002081905550806009600084815260200190815260200160002060008282546108d7919061117b565b925050819055505050565b6007602052816000526040600020602052806000526040600020600091509150505481565b600260009054906101000a900473ffffffffffffffffffffffffffffffffffffffff1681565b60056020528060005260406000206000915054906101000a900460ff1681565b6000819050919050565b6109608161094d565b82525050565b600060208201905061097b6000830184610957565b92915050565b600080fd5b61098f8161094d565b811461099a57600080fd5b50565b6000813590506109ac81610986565b92915050565b6000806000606084860312156109cb576109ca610981565b5b60006109d98682870161099d565b93505060206109ea8682870161099d565b92505060406109fb8682870161099d565b9150509250925092565b600060208284031215610a1b57610a1a610981565b5b6000610a298482850161099d565b91505092915050565b600073ffffffffffffffffffffffffffffffffffffffff82169050919050565b6000610a5d82610a32565b9050919050565b610a6d81610a52565b82525050565b6000602082019050610a886000830184610a64565b92915050565b60008115159050919050565b610aa381610a8e565b82525050565b6000602082019050610abe6000830184610a9a565b92915050565b6000610acf82610a32565b9050919050565b610adf81610ac4565b82525050565b6000602082019050610afa6000830184610ad6565b92915050565b610b0981610a8e565b8114610b1457600080fd5b50565b600081359050610b2681610b00565b92915050565b60008060408385031215610b4357610b42610981565b5b6000610b518582860161099d565b9250506020610b6285828601610b17565b9150509250929050565b60008060408385031215610b8357610b82610981565b5b6000610b918582860161099d565b9250506020610ba28582860161099d565b9150509250929050565b610bb581610a52565b8114610bc057600080fd5b50565b600081359050610bd281610bac565b92915050565b60008060408385031215610bef57610bee610981565b5b6000610bfd8582860161099d565b9250506020610c0e85828601610bc3565b9150509250929050565b600082825260208201905092915050565b7f4f6e6c79206f776e65722063616e2063616c6c2074686973206d6574686f6400600082015250565b6000610c5f601f83610c18565b9150610c6a82610c29565b602082019050919050565b60006020820190508181036000830152610c8e81610c52565b9050919050565b7f4f776e65722073686f756c64206b656570206174206c6561737420323525206f60008201527f66207468652070726f70657274792c207768696c65206f66666572696e67206160208201527f74206c6561737420323025206f662070726f7065727479207368617265730000604082015250565b6000610d17605e83610c18565b9150610d2282610c95565b606082019050919050565b60006020820190508181036000830152610d4681610d0a565b9050919050565b7f546f74616c2076616c7565206f66207468652070726f70657274792073686f7560008201527f6c642062652067726561746572207468616e2030000000000000000000000000602082015250565b6000610da9603483610c18565b9150610db482610d4d565b604082019050919050565b60006020820190508181036000830152610dd881610d9c565b9050919050565b6000606082019050610df46000830186610a64565b610e016020830185610a64565b610e0e6040830184610957565b949350505050565b7f4e487b7100000000000000000000000000000000000000000000000000000000600052601160045260246000fd5b6000610e508261094d565b9150610e5b8361094d565b9250828202610e698161094d565b91508282048414831517610e8057610e7f610e16565b5b5092915050565b7f4e487b7100000000000000000000000000000000000000000000000000000000600052601260045260246000fd5b6000610ec18261094d565b9150610ecc8361094d565b925082610edc57610edb610e87565b5b828204905092915050565b7f4f6e6c7920696e73706563746f722063616e2063616c6c2074686973206d657460008201527f686f640000000000000000000000000000000000000000000000000000000000602082015250565b6000610f43602383610c18565b9150610f4e82610ee7565b604082019050919050565b60006020820190508181036000830152610f7281610f36565b9050919050565b7f5468652070726f7065727479206469646e277420706173732074686520696e7360008201527f70656374696f6e20636865636b207965742c2063616e6e6f7420626520696e7660208201527f6573746564000000000000000000000000000000000000000000000000000000604082015250565b6000610ffb604583610c18565b915061100682610f79565b606082019050919050565b6000602082019050818103600083015261102a81610fee565b9050919050565b7f4e756d626572206f6620746f6b656e732073686f756c6420626520677265617460008201527f6572207468616e207a65726f20616e64206c657373207468616e206e756d626560208201527f72206f6620617661696c61626c6520746f6b656e730000000000000000000000604082015250565b60006110b3605583610c18565b91506110be82611031565b606082019050919050565b600060208201905081810360008301526110e2816110a6565b9050919050565b7f4e6f7420657861637420616d6f756e74206f66204574686572207472616e736660008201527f6572656420746f20707572636861736520746f6b656e73000000000000000000602082015250565b6000611145603783610c18565b9150611150826110e9565b604082019050919050565b6000602082019050818103600083015261117481611138565b9050919050565b60006111868261094d565b91506111918361094d565b92508282039050818111156111a9576111a8610e16565b5b9291505056fea264697066735822122094d5b0009429a26a7377c16d828cede81949f42c92628f7e99b7f6ea4ad1738a64736f6c63430008110033",
  "linkReferences": {},
  "deployedLinkReferences": {}
}