{
  "_format": "hh-sol-artifact-1",
  "contractName": "Investment",
  "sourceName": "contracts/Investment.sol",
  "abi": [
    {
      "inputs": [
        {
          "internalType": "address",
          "name": "_nftAddress",
          "type": "address"
        },
        {
          "internalType": "address payable",
          "name": "_owner",
          "type": "address"
        },
        {
          "internalType": "address",
          "name": "_inspector",
          "type": "address"
        }
      ],
      "stateMutability": "nonpayable",
      "type": "constructor"
    },
    {
      "inputs": [],
      "name": "getBalance",
      "outputs": [
        {
          "internalType": "uint256",
          "name": "",
          "type": "uint256"
        }
      ],
      "stateMutability": "view",
      "type": "function"
    },
    {
      "inputs": [
        {
          "internalType": "uint256",
          "name": "",
          "type": "uint256"
        }
      ],
      "name": "inspectionPassed",
      "outputs": [
        {
          "internalType": "bool",
          "name": "",
          "type": "bool"
        }
      ],
      "stateMutability": "view",
      "type": "function"
    },
    {
      "inputs": [],
      "name": "inspector",
      "outputs": [
        {
          "internalType": "address",
          "name": "",
          "type": "address"
        }
      ],
      "stateMutability": "view",
      "type": "function"
    },
    {
      "inputs": [
        {
          "internalType": "uint256",
          "name": "_nftID",
          "type": "uint256"
        },
        {
          "internalType": "uint256",
          "name": "_numberOfTokensInvested",
          "type": "uint256"
        }
      ],
      "name": "invest",
      "outputs": [],
      "stateMutability": "payable",
      "type": "function"
    },
    {
      "inputs": [
        {
          "internalType": "uint256",
          "name": "",
          "type": "uint256"
        },
        {
          "internalType": "address",
          "name": "",
          "type": "address"
        }
      ],
      "name": "investors",
      "outputs": [
        {
          "internalType": "uint256",
          "name": "",
          "type": "uint256"
        }
      ],
      "stateMutability": "view",
      "type": "function"
    },
    {
      "inputs": [
        {
          "internalType": "uint256",
          "name": "",
          "type": "uint256"
        }
      ],
      "name": "isListed",
      "outputs": [
        {
          "internalType": "bool",
          "name": "",
          "type": "bool"
        }
      ],
      "stateMutability": "view",
      "type": "function"
    },
    {
      "inputs": [
        {
          "internalType": "uint256",
          "name": "_nftID",
          "type": "uint256"
        },
        {
          "internalType": "uint256",
          "name": "_totalPrice",
          "type": "uint256"
        },
        {
          "internalType": "uint256",
          "name": "_sharedPersentage",
          "type": "uint256"
        },
        {
          "internalType": "string",
          "name": "_name",
          "type": "string"
        },
        {
          "internalType": "string",
          "name": "_symbol",
          "type": "string"
        }
      ],
      "name": "list",
      "outputs": [],
      "stateMutability": "payable",
      "type": "function"
    },
    {
      "inputs": [],
      "name": "nftAddress",
      "outputs": [
        {
          "internalType": "address",
          "name": "",
          "type": "address"
        }
      ],
      "stateMutability": "view",
      "type": "function"
    },
    {
      "inputs": [
        {
          "internalType": "uint256",
          "name": "",
          "type": "uint256"
        }
      ],
      "name": "numberOfTotalTokens",
      "outputs": [
        {
          "internalType": "uint256",
          "name": "",
          "type": "uint256"
        }
      ],
      "stateMutability": "view",
      "type": "function"
    },
    {
      "inputs": [],
      "name": "owner",
      "outputs": [
        {
          "internalType": "address payable",
          "name": "",
          "type": "address"
        }
      ],
      "stateMutability": "view",
      "type": "function"
    },
    {
      "inputs": [
        {
          "internalType": "uint256",
          "name": "",
          "type": "uint256"
        }
      ],
      "name": "tokenCollections",
      "outputs": [
        {
          "internalType": "contract Token",
          "name": "",
          "type": "address"
        }
      ],
      "stateMutability": "view",
      "type": "function"
    },
    {
      "inputs": [
        {
          "internalType": "uint256",
          "name": "",
          "type": "uint256"
        }
      ],
      "name": "tokenPrice",
      "outputs": [
        {
          "internalType": "uint256",
          "name": "",
          "type": "uint256"
        }
      ],
      "stateMutability": "view",
      "type": "function"
    },
    {
      "inputs": [
        {
          "internalType": "uint256",
          "name": "",
          "type": "uint256"
        }
      ],
      "name": "totalPrice",
      "outputs": [
        {
          "internalType": "uint256",
          "name": "",
          "type": "uint256"
        }
      ],
      "stateMutability": "view",
      "type": "function"
    },
    {
      "inputs": [
        {
          "internalType": "uint256",
          "name": "_nftID",
          "type": "uint256"
        },
        {
          "internalType": "bool",
          "name": "_passed",
          "type": "bool"
        }
      ],
      "name": "updateInspectionStatus",
      "outputs": [],
      "stateMutability": "nonpayable",
      "type": "function"
    },
    {
      "stateMutability": "payable",
      "type": "receive"
    }
  ],
  "bytecode": "0x60806040523480156200001157600080fd5b5060405162004831380380620048318339818101604052810190620000379190620001b1565b826000806101000a81548173ffffffffffffffffffffffffffffffffffffffff021916908373ffffffffffffffffffffffffffffffffffffffff16021790555081600160006101000a81548173ffffffffffffffffffffffffffffffffffffffff021916908373ffffffffffffffffffffffffffffffffffffffff16021790555080600260006101000a81548173ffffffffffffffffffffffffffffffffffffffff021916908373ffffffffffffffffffffffffffffffffffffffff1602179055505050506200020d565b600080fd5b600073ffffffffffffffffffffffffffffffffffffffff82169050919050565b6000620001348262000107565b9050919050565b620001468162000127565b81146200015257600080fd5b50565b60008151905062000166816200013b565b92915050565b6000620001798262000107565b9050919050565b6200018b816200016c565b81146200019757600080fd5b50565b600081519050620001ab8162000180565b92915050565b600080600060608486031215620001cd57620001cc62000102565b5b6000620001dd8682870162000155565b9350506020620001f0868287016200019a565b9250506040620002038682870162000155565b9150509250925092565b614614806200021d6000396000f3fe608060405260043610620000f75760003560e01c80639d0e5fd6116200008b578063d87aa6431162000061578063d87aa6431462000336578063e61dd2a61462000356578063ed2cee9e146200039a578063fcce488314620003ca57620000ff565b80639d0e5fd61462000280578063b7d3151214620002ae578063d4ddce8a14620002f257620000ff565b80635eed5fff11620000cd5780635eed5fff14620001a85780637390385314620001ec5780638af64cad146200020c5780638da5cb5b146200025057620000ff565b806312065fe01462000104578063221f228514620001345780635bf8633a146200017857620000ff565b36620000ff57005b600080fd5b3480156200011157600080fd5b506200011c6200040e565b6040516200012b919062000bc5565b60405180910390f35b3480156200014157600080fd5b506200016060048036038101906200015a919062000c27565b62000416565b6040516200016f919062000bc5565b60405180910390f35b3480156200018557600080fd5b50620001906200042e565b6040516200019f919062000c9e565b60405180910390f35b348015620001b557600080fd5b50620001d46004803603810190620001ce919062000c27565b62000452565b604051620001e3919062000cd8565b60405180910390f35b6200020a600480360381019062000204919062000e57565b62000472565b005b3480156200021957600080fd5b5062000238600480360381019062000232919062000c27565b62000788565b60405162000247919062000bc5565b60405180910390f35b3480156200025d57600080fd5b5062000268620007a0565b60405162000277919062000f42565b60405180910390f35b3480156200028d57600080fd5b50620002ac6004803603810190620002a6919062000f90565b620007c6565b005b348015620002bb57600080fd5b50620002da6004803603810190620002d4919062000c27565b62000888565b604051620002e9919062001042565b60405180910390f35b348015620002ff57600080fd5b506200031e600480360381019062000318919062000c27565b620008bb565b6040516200032d919062000bc5565b60405180910390f35b6200035460048036038101906200034e91906200105f565b620008d3565b005b3480156200036357600080fd5b506200038260048036038101906200037c9190620010d7565b62000b31565b60405162000391919062000bc5565b60405180910390f35b348015620003a757600080fd5b50620003b262000b56565b604051620003c1919062000c9e565b60405180910390f35b348015620003d757600080fd5b50620003f66004803603810190620003f0919062000c27565b62000b7c565b60405162000405919062000cd8565b60405180910390f35b600047905090565b60066020528060005260406000206000915090505481565b60008054906101000a900473ffffffffffffffffffffffffffffffffffffffff1681565b60036020528060005260406000206000915054906101000a900460ff1681565b600160009054906101000a900473ffffffffffffffffffffffffffffffffffffffff1673ffffffffffffffffffffffffffffffffffffffff163373ffffffffffffffffffffffffffffffffffffffff161462000505576040517f08c379a0000000000000000000000000000000000000000000000000000000008152600401620004fc906200117f565b60405180910390fd5b604b831115801562000518575060148310155b6200055a576040517f08c379a000000000000000000000000000000000000000000000000000000000815260040162000551906200123d565b60405180910390fd5b60008411620005a0576040517f08c379a00000000000000000000000000000000000000000000000000000000081526004016200059790620012d5565b60405180910390fd5b60008054906101000a900473ffffffffffffffffffffffffffffffffffffffff1673ffffffffffffffffffffffffffffffffffffffff166323b872dd3330886040518463ffffffff1660e01b8152600401620005ff93929190620012f7565b600060405180830381600087803b1580156200061a57600080fd5b505af11580156200062f573d6000803e3d6000fd5b5050505060016005600087815260200190815260200160002060006101000a81548160ff02191690831515021790555083600660008781526020019081526020016000208190555060648362000686919062001363565b60046000878152602001908152602001600020819055506004600086815260200190815260200160002054600960008781526020019081526020016000208190555061271084620006d89190620013dd565b600860008781526020019081526020016000208190555060008183604051620007019062000b9c565b6200070e9291906200148d565b604051809103906000f0801580156200072b573d6000803e3d6000fd5b50905080600a600088815260200190815260200160002060006101000a81548173ffffffffffffffffffffffffffffffffffffffff021916908373ffffffffffffffffffffffffffffffffffffffff160217905550505050505050565b60046020528060005260406000206000915090505481565b600160009054906101000a900473ffffffffffffffffffffffffffffffffffffffff1681565b600260009054906101000a900473ffffffffffffffffffffffffffffffffffffffff1673ffffffffffffffffffffffffffffffffffffffff163373ffffffffffffffffffffffffffffffffffffffff161462000859576040517f08c379a000000000000000000000000000000000000000000000000000000000815260040162000850906200153e565b60405180910390fd5b806003600084815260200190815260200160002060006101000a81548160ff0219169083151502179055505050565b600a6020528060005260406000206000915054906101000a900473ffffffffffffffffffffffffffffffffffffffff1681565b60086020528060005260406000206000915090505481565b600115156003600084815260200190815260200160002060009054906101000a900460ff161515146200093d576040517f08c379a00000000000000000000000000000000000000000000000000000000081526004016200093490620015fc565b60405180910390fd5b60008111801562000961575060096000838152602001908152602001600020548111155b620009a3576040517f08c379a00000000000000000000000000000000000000000000000000000000081526004016200099a90620016ba565b60405180910390fd5b600860008381526020019081526020016000205481620009c4919062001363565b341462000a08576040517f08c379a0000000000000000000000000000000000000000000000000000000008152600401620009ff9062001752565b60405180910390fd5b806007600084815260200190815260200160002060003373ffffffffffffffffffffffffffffffffffffffff1673ffffffffffffffffffffffffffffffffffffffff168152602001908152602001600020819055508060096000848152602001908152602001600020600082825462000a82919062001774565b92505081905550600a600083815260200190815260200160002060009054906101000a900473ffffffffffffffffffffffffffffffffffffffff1673ffffffffffffffffffffffffffffffffffffffff166340c10f1933836040518363ffffffff1660e01b815260040162000af9929190620017af565b600060405180830381600087803b15801562000b1457600080fd5b505af115801562000b29573d6000803e3d6000fd5b505050505050565b6007602052816000526040600020602052806000526040600020600091509150505481565b600260009054906101000a900473ffffffffffffffffffffffffffffffffffffffff1681565b60056020528060005260406000206000915054906101000a900460ff1681565b612e0280620017dd83390190565b6000819050919050565b62000bbf8162000baa565b82525050565b600060208201905062000bdc600083018462000bb4565b92915050565b6000604051905090565b600080fd5b600080fd5b62000c018162000baa565b811462000c0d57600080fd5b50565b60008135905062000c218162000bf6565b92915050565b60006020828403121562000c405762000c3f62000bec565b5b600062000c508482850162000c10565b91505092915050565b600073ffffffffffffffffffffffffffffffffffffffff82169050919050565b600062000c868262000c59565b9050919050565b62000c988162000c79565b82525050565b600060208201905062000cb5600083018462000c8d565b92915050565b60008115159050919050565b62000cd28162000cbb565b82525050565b600060208201905062000cef600083018462000cc7565b92915050565b600080fd5b600080fd5b6000601f19601f8301169050919050565b7f4e487b7100000000000000000000000000000000000000000000000000000000600052604160045260246000fd5b62000d4a8262000cff565b810181811067ffffffffffffffff8211171562000d6c5762000d6b62000d10565b5b80604052505050565b600062000d8162000be2565b905062000d8f828262000d3f565b919050565b600067ffffffffffffffff82111562000db25762000db162000d10565b5b62000dbd8262000cff565b9050602081019050919050565b82818337600083830152505050565b600062000df062000dea8462000d94565b62000d75565b90508281526020810184848401111562000e0f5762000e0e62000cfa565b5b62000e1c84828562000dca565b509392505050565b600082601f83011262000e3c5762000e3b62000cf5565b5b813562000e4e84826020860162000dd9565b91505092915050565b600080600080600060a0868803121562000e765762000e7562000bec565b5b600062000e868882890162000c10565b955050602062000e998882890162000c10565b945050604062000eac8882890162000c10565b935050606086013567ffffffffffffffff81111562000ed05762000ecf62000bf1565b5b62000ede8882890162000e24565b925050608086013567ffffffffffffffff81111562000f025762000f0162000bf1565b5b62000f108882890162000e24565b9150509295509295909350565b600062000f2a8262000c59565b9050919050565b62000f3c8162000f1d565b82525050565b600060208201905062000f59600083018462000f31565b92915050565b62000f6a8162000cbb565b811462000f7657600080fd5b50565b60008135905062000f8a8162000f5f565b92915050565b6000806040838503121562000faa5762000fa962000bec565b5b600062000fba8582860162000c10565b925050602062000fcd8582860162000f79565b9150509250929050565b6000819050919050565b60006200100262000ffc62000ff68462000c59565b62000fd7565b62000c59565b9050919050565b6000620010168262000fe1565b9050919050565b60006200102a8262001009565b9050919050565b6200103c816200101d565b82525050565b600060208201905062001059600083018462001031565b92915050565b6000806040838503121562001079576200107862000bec565b5b6000620010898582860162000c10565b92505060206200109c8582860162000c10565b9150509250929050565b620010b18162000c79565b8114620010bd57600080fd5b50565b600081359050620010d181620010a6565b92915050565b60008060408385031215620010f157620010f062000bec565b5b6000620011018582860162000c10565b92505060206200111485828601620010c0565b9150509250929050565b600082825260208201905092915050565b7f4f6e6c79206f776e65722063616e2063616c6c2074686973206d6574686f6400600082015250565b600062001167601f836200111e565b915062001174826200112f565b602082019050919050565b600060208201905081810360008301526200119a8162001158565b9050919050565b7f4f776e65722073686f756c64206b656570206174206c6561737420323525206f60008201527f66207468652070726f70657274792c207768696c65206f66666572696e67206160208201527f74206c6561737420323025206f662070726f7065727479207368617265730000604082015250565b600062001225605e836200111e565b91506200123282620011a1565b606082019050919050565b60006020820190508181036000830152620012588162001216565b9050919050565b7f546f74616c2076616c7565206f66207468652070726f70657274792073686f7560008201527f6c642062652067726561746572207468616e2030000000000000000000000000602082015250565b6000620012bd6034836200111e565b9150620012ca826200125f565b604082019050919050565b60006020820190508181036000830152620012f081620012ae565b9050919050565b60006060820190506200130e600083018662000c8d565b6200131d602083018562000c8d565b6200132c604083018462000bb4565b949350505050565b7f4e487b7100000000000000000000000000000000000000000000000000000000600052601160045260246000fd5b6000620013708262000baa565b91506200137d8362000baa565b92508282026200138d8162000baa565b91508282048414831517620013a757620013a662001334565b5b5092915050565b7f4e487b7100000000000000000000000000000000000000000000000000000000600052601260045260246000fd5b6000620013ea8262000baa565b9150620013f78362000baa565b9250826200140a5762001409620013ae565b5b828204905092915050565b600081519050919050565b60005b838110156200144057808201518184015260208101905062001423565b60008484015250505050565b6000620014598262001415565b6200146581856200111e565b93506200147781856020860162001420565b620014828162000cff565b840191505092915050565b60006040820190508181036000830152620014a981856200144c565b90508181036020830152620014bf81846200144c565b90509392505050565b7f4f6e6c7920696e73706563746f722063616e2063616c6c2074686973206d657460008201527f686f640000000000000000000000000000000000000000000000000000000000602082015250565b6000620015266023836200111e565b91506200153382620014c8565b604082019050919050565b60006020820190508181036000830152620015598162001517565b9050919050565b7f5468652070726f7065727479206469646e277420706173732074686520696e7360008201527f70656374696f6e20636865636b207965742c2063616e6e6f7420626520696e7660208201527f6573746564000000000000000000000000000000000000000000000000000000604082015250565b6000620015e46045836200111e565b9150620015f18262001560565b606082019050919050565b600060208201905081810360008301526200161781620015d5565b9050919050565b7f4e756d626572206f6620746f6b656e732073686f756c6420626520677265617460008201527f6572207468616e207a65726f20616e64206c657373207468616e206e756d626560208201527f72206f6620617661696c61626c6520746f6b656e730000000000000000000000604082015250565b6000620016a26055836200111e565b9150620016af826200161e565b606082019050919050565b60006020820190508181036000830152620016d58162001693565b9050919050565b7f4e6f7420657861637420616d6f756e74206f66204574686572207472616e736660008201527f6572656420746f20707572636861736520746f6b656e73000000000000000000602082015250565b60006200173a6037836200111e565b91506200174782620016dc565b604082019050919050565b600060208201905081810360008301526200176d816200172b565b9050919050565b6000620017818262000baa565b91506200178e8362000baa565b9250828203905081811115620017a957620017a862001334565b5b92915050565b6000604082019050620017c6600083018562000c8d565b620017d5602083018462000bb4565b939250505056fe6101406040523480156200001257600080fd5b5060405162002e0238038062002e02833981810160405281019062000038919062000410565b80806040518060400160405280600181526020017f310000000000000000000000000000000000000000000000000000000000000081525083858160039081620000839190620006e0565b508060049081620000959190620006e0565b505050620000b8620000ac6200017360201b60201c565b6200017b60201b60201c565b60008280519060200120905060008280519060200120905060007f8b73c3c69bb8fe3d512ecc4cf759cc79239f7b179b0ffacaa9a75d522b39400f90508260e081815250508161010081815250504660a08181525050620001218184846200024160201b60201c565b608081815250503073ffffffffffffffffffffffffffffffffffffffff1660c08173ffffffffffffffffffffffffffffffffffffffff1681525050806101208181525050505050505050505062000895565b600033905090565b6000600560009054906101000a900473ffffffffffffffffffffffffffffffffffffffff16905081600560006101000a81548173ffffffffffffffffffffffffffffffffffffffff021916908373ffffffffffffffffffffffffffffffffffffffff1602179055508173ffffffffffffffffffffffffffffffffffffffff168173ffffffffffffffffffffffffffffffffffffffff167f8be0079c531659141344cd1fd0a4f28419497f9722a3daafe3b4186f6b6457e060405160405180910390a35050565b600083838346306040516020016200025e95949392919062000838565b6040516020818303038152906040528051906020012090509392505050565b6000604051905090565b600080fd5b600080fd5b600080fd5b600080fd5b6000601f19601f8301169050919050565b7f4e487b7100000000000000000000000000000000000000000000000000000000600052604160045260246000fd5b620002e6826200029b565b810181811067ffffffffffffffff82111715620003085762000307620002ac565b5b80604052505050565b60006200031d6200027d565b90506200032b8282620002db565b919050565b600067ffffffffffffffff8211156200034e576200034d620002ac565b5b62000359826200029b565b9050602081019050919050565b60005b838110156200038657808201518184015260208101905062000369565b60008484015250505050565b6000620003a9620003a38462000330565b62000311565b905082815260208101848484011115620003c857620003c762000296565b5b620003d584828562000366565b509392505050565b600082601f830112620003f557620003f462000291565b5b81516200040784826020860162000392565b91505092915050565b600080604083850312156200042a576200042962000287565b5b600083015167ffffffffffffffff8111156200044b576200044a6200028c565b5b6200045985828601620003dd565b925050602083015167ffffffffffffffff8111156200047d576200047c6200028c565b5b6200048b85828601620003dd565b9150509250929050565b600081519050919050565b7f4e487b7100000000000000000000000000000000000000000000000000000000600052602260045260246000fd5b60006002820490506001821680620004e857607f821691505b602082108103620004fe57620004fd620004a0565b5b50919050565b60008190508160005260206000209050919050565b60006020601f8301049050919050565b600082821b905092915050565b600060088302620005687fffffffffffffffffffffffffffffffffffffffffffffffffffffffffffffffff8262000529565b62000574868362000529565b95508019841693508086168417925050509392505050565b6000819050919050565b6000819050919050565b6000620005c1620005bb620005b5846200058c565b62000596565b6200058c565b9050919050565b6000819050919050565b620005dd83620005a0565b620005f5620005ec82620005c8565b84845462000536565b825550505050565b600090565b6200060c620005fd565b62000619818484620005d2565b505050565b5b8181101562000641576200063560008262000602565b6001810190506200061f565b5050565b601f82111562000690576200065a8162000504565b620006658462000519565b8101602085101562000675578190505b6200068d620006848562000519565b8301826200061e565b50505b505050565b600082821c905092915050565b6000620006b56000198460080262000695565b1980831691505092915050565b6000620006d08383620006a2565b9150826002028217905092915050565b620006eb8262000495565b67ffffffffffffffff811115620007075762000706620002ac565b5b620007138254620004cf565b6200072082828562000645565b600060209050601f83116001811462000758576000841562000743578287015190505b6200074f8582620006c2565b865550620007bf565b601f198416620007688662000504565b60005b8281101562000792578489015182556001820191506020850194506020810190506200076b565b86831015620007b25784890151620007ae601f891682620006a2565b8355505b6001600288020188555050505b505050505050565b6000819050919050565b620007dc81620007c7565b82525050565b620007ed816200058c565b82525050565b600073ffffffffffffffffffffffffffffffffffffffff82169050919050565b60006200082082620007f3565b9050919050565b620008328162000813565b82525050565b600060a0820190506200084f6000830188620007d1565b6200085e6020830187620007d1565b6200086d6040830186620007d1565b6200087c6060830185620007e2565b6200088b608083018462000827565b9695505050505050565b60805160a05160c05160e051610100516101205161251d620008e56000396000610ed801526000610f1a01526000610ef901526000610e2e01526000610e8401526000610ead015261251d6000f3fe608060405234801561001057600080fd5b50600436106101165760003560e01c8063715018a6116100a2578063a457c2d711610071578063a457c2d7146102e5578063a9059cbb14610315578063d505accf14610345578063dd62ed3e14610361578063f2fde38b1461039157610116565b8063715018a61461026f5780637ecebe00146102795780638da5cb5b146102a957806395d89b41146102c757610116565b8063313ce567116100e9578063313ce567146101b75780633644e515146101d557806339509351146101f357806340c10f191461022357806370a082311461023f57610116565b806306fdde031461011b578063095ea7b31461013957806318160ddd1461016957806323b872dd14610187575b600080fd5b6101236103ad565b604051610130919061168d565b60405180910390f35b610153600480360381019061014e9190611748565b61043f565b60405161016091906117a3565b60405180910390f35b610171610462565b60405161017e91906117cd565b60405180910390f35b6101a1600480360381019061019c91906117e8565b61046c565b6040516101ae91906117a3565b60405180910390f35b6101bf61049b565b6040516101cc9190611857565b60405180910390f35b6101dd6104a4565b6040516101ea919061188b565b60405180910390f35b61020d60048036038101906102089190611748565b6104b3565b60405161021a91906117a3565b60405180910390f35b61023d60048036038101906102389190611748565b6104ea565b005b610259600480360381019061025491906118a6565b610500565b60405161026691906117cd565b60405180910390f35b610277610548565b005b610293600480360381019061028e91906118a6565b61055c565b6040516102a091906117cd565b60405180910390f35b6102b16105ac565b6040516102be91906118e2565b60405180910390f35b6102cf6105d6565b6040516102dc919061168d565b60405180910390f35b6102ff60048036038101906102fa9190611748565b610668565b60405161030c91906117a3565b60405180910390f35b61032f600480360381019061032a9190611748565b6106df565b60405161033c91906117a3565b60405180910390f35b61035f600480360381019061035a9190611955565b610702565b005b61037b600480360381019061037691906119f7565b610844565b60405161038891906117cd565b60405180910390f35b6103ab60048036038101906103a691906118a6565b6108cb565b005b6060600380546103bc90611a66565b80601f01602080910402602001604051908101604052809291908181526020018280546103e890611a66565b80156104355780601f1061040a57610100808354040283529160200191610435565b820191906000526020600020905b81548152906001019060200180831161041857829003601f168201915b5050505050905090565b60008061044a61094e565b9050610457818585610956565b600191505092915050565b6000600254905090565b60008061047761094e565b9050610484858285610b1f565b61048f858585610bab565b60019150509392505050565b60006012905090565b60006104ae610e2a565b905090565b6000806104be61094e565b90506104df8185856104d08589610844565b6104da9190611ac6565b610956565b600191505092915050565b6104f2610f44565b6104fc8282610fc2565b5050565b60008060008373ffffffffffffffffffffffffffffffffffffffff1673ffffffffffffffffffffffffffffffffffffffff168152602001908152602001600020549050919050565b610550610f44565b61055a6000611121565b565b60006105a5600660008473ffffffffffffffffffffffffffffffffffffffff1673ffffffffffffffffffffffffffffffffffffffff1681526020019081526020016000206111e7565b9050919050565b6000600560009054906101000a900473ffffffffffffffffffffffffffffffffffffffff16905090565b6060600480546105e590611a66565b80601f016020809104026020016040519081016040528092919081815260200182805461061190611a66565b801561065e5780601f106106335761010080835404028352916020019161065e565b820191906000526020600020905b81548152906001019060200180831161064157829003601f168201915b5050505050905090565b60008061067361094e565b905060006106818286610844565b9050838110156106c6576040517f08c379a00000000000000000000000000000000000000000000000000000000081526004016106bd90611b6c565b60405180910390fd5b6106d38286868403610956565b60019250505092915050565b6000806106ea61094e565b90506106f7818585610bab565b600191505092915050565b83421115610745576040517f08c379a000000000000000000000000000000000000000000000000000000000815260040161073c90611bd8565b60405180910390fd5b60007f6e71edae12b1b97f4d1f60370fef10105fa2faae0126114a169c64845d6126c98888886107748c6111f5565b8960405160200161078a96959493929190611bf8565b60405160208183030381529060405280519060200120905060006107ad82611253565b905060006107bd8287878761126d565b90508973ffffffffffffffffffffffffffffffffffffffff168173ffffffffffffffffffffffffffffffffffffffff161461082d576040517f08c379a000000000000000000000000000000000000000000000000000000000815260040161082490611ca5565b60405180910390fd5b6108388a8a8a610956565b50505050505050505050565b6000600160008473ffffffffffffffffffffffffffffffffffffffff1673ffffffffffffffffffffffffffffffffffffffff16815260200190815260200160002060008373ffffffffffffffffffffffffffffffffffffffff1673ffffffffffffffffffffffffffffffffffffffff16815260200190815260200160002054905092915050565b6108d3610f44565b600073ffffffffffffffffffffffffffffffffffffffff168173ffffffffffffffffffffffffffffffffffffffff1603610942576040517f08c379a000000000000000000000000000000000000000000000000000000000815260040161093990611d37565b60405180910390fd5b61094b81611121565b50565b600033905090565b600073ffffffffffffffffffffffffffffffffffffffff168373ffffffffffffffffffffffffffffffffffffffff16036109c5576040517f08c379a00000000000000000000000000000000000000000000000000000000081526004016109bc90611dc9565b60405180910390fd5b600073ffffffffffffffffffffffffffffffffffffffff168273ffffffffffffffffffffffffffffffffffffffff1603610a34576040517f08c379a0000000000000000000000000000000000000000000000000000000008152600401610a2b90611e5b565b60405180910390fd5b80600160008573ffffffffffffffffffffffffffffffffffffffff1673ffffffffffffffffffffffffffffffffffffffff16815260200190815260200160002060008473ffffffffffffffffffffffffffffffffffffffff1673ffffffffffffffffffffffffffffffffffffffff168152602001908152602001600020819055508173ffffffffffffffffffffffffffffffffffffffff168373ffffffffffffffffffffffffffffffffffffffff167f8c5be1e5ebec7d5bd14f71427d1e84f3dd0314c0f7b2291e5b200ac8c7c3b92583604051610b1291906117cd565b60405180910390a3505050565b6000610b2b8484610844565b90507fffffffffffffffffffffffffffffffffffffffffffffffffffffffffffffffff8114610ba55781811015610b97576040517f08c379a0000000000000000000000000000000000000000000000000000000008152600401610b8e90611ec7565b60405180910390fd5b610ba48484848403610956565b5b50505050565b600073ffffffffffffffffffffffffffffffffffffffff168373ffffffffffffffffffffffffffffffffffffffff1603610c1a576040517f08c379a0000000000000000000000000000000000000000000000000000000008152600401610c1190611f59565b60405180910390fd5b600073ffffffffffffffffffffffffffffffffffffffff168273ffffffffffffffffffffffffffffffffffffffff1603610c89576040517f08c379a0000000000000000000000000000000000000000000000000000000008152600401610c8090611feb565b60405180910390fd5b610c94838383611298565b60008060008573ffffffffffffffffffffffffffffffffffffffff1673ffffffffffffffffffffffffffffffffffffffff16815260200190815260200160002054905081811015610d1a576040517f08c379a0000000000000000000000000000000000000000000000000000000008152600401610d119061207d565b60405180910390fd5b8181036000808673ffffffffffffffffffffffffffffffffffffffff1673ffffffffffffffffffffffffffffffffffffffff16815260200190815260200160002081905550816000808573ffffffffffffffffffffffffffffffffffffffff1673ffffffffffffffffffffffffffffffffffffffff1681526020019081526020016000206000828254610dad9190611ac6565b925050819055508273ffffffffffffffffffffffffffffffffffffffff168473ffffffffffffffffffffffffffffffffffffffff167fddf252ad1be2c89b69c2b068fc378daa952ba7f163c4a11628f55a4df523b3ef84604051610e1191906117cd565b60405180910390a3610e2484848461129d565b50505050565b60007f000000000000000000000000000000000000000000000000000000000000000073ffffffffffffffffffffffffffffffffffffffff163073ffffffffffffffffffffffffffffffffffffffff16148015610ea657507f000000000000000000000000000000000000000000000000000000000000000046145b15610ed3577f00000000000000000000000000000000000000000000000000000000000000009050610f41565b610f3e7f00000000000000000000000000000000000000000000000000000000000000007f00000000000000000000000000000000000000000000000000000000000000007f00000000000000000000000000000000000000000000000000000000000000006112a2565b90505b90565b610f4c61094e565b73ffffffffffffffffffffffffffffffffffffffff16610f6a6105ac565b73ffffffffffffffffffffffffffffffffffffffff1614610fc0576040517f08c379a0000000000000000000000000000000000000000000000000000000008152600401610fb7906120e9565b60405180910390fd5b565b600073ffffffffffffffffffffffffffffffffffffffff168273ffffffffffffffffffffffffffffffffffffffff1603611031576040517f08c379a000000000000000000000000000000000000000000000000000000000815260040161102890612155565b60405180910390fd5b61103d60008383611298565b806002600082825461104f9190611ac6565b92505081905550806000808473ffffffffffffffffffffffffffffffffffffffff1673ffffffffffffffffffffffffffffffffffffffff16815260200190815260200160002060008282546110a49190611ac6565b925050819055508173ffffffffffffffffffffffffffffffffffffffff16600073ffffffffffffffffffffffffffffffffffffffff167fddf252ad1be2c89b69c2b068fc378daa952ba7f163c4a11628f55a4df523b3ef8360405161110991906117cd565b60405180910390a361111d6000838361129d565b5050565b6000600560009054906101000a900473ffffffffffffffffffffffffffffffffffffffff16905081600560006101000a81548173ffffffffffffffffffffffffffffffffffffffff021916908373ffffffffffffffffffffffffffffffffffffffff1602179055508173ffffffffffffffffffffffffffffffffffffffff168173ffffffffffffffffffffffffffffffffffffffff167f8be0079c531659141344cd1fd0a4f28419497f9722a3daafe3b4186f6b6457e060405160405180910390a35050565b600081600001549050919050565b600080600660008473ffffffffffffffffffffffffffffffffffffffff1673ffffffffffffffffffffffffffffffffffffffff1681526020019081526020016000209050611242816111e7565b915061124d816112dc565b50919050565b6000611266611260610e2a565b836112f2565b9050919050565b600080600061127e87878787611325565b9150915061128b81611431565b8192505050949350505050565b505050565b505050565b600083838346306040516020016112bd959493929190612175565b6040516020818303038152906040528051906020012090509392505050565b6001816000016000828254019250508190555050565b60008282604051602001611307929190612240565b60405160208183030381529060405280519060200120905092915050565b6000807f7fffffffffffffffffffffffffffffff5d576e7357a4501ddfe92f46681b20a08360001c1115611360576000600391509150611428565b601b8560ff16141580156113785750601c8560ff1614155b1561138a576000600491509150611428565b6000600187878787604051600081526020016040526040516113af9493929190612277565b6020604051602081039080840390855afa1580156113d1573d6000803e3d6000fd5b505050602060405103519050600073ffffffffffffffffffffffffffffffffffffffff168173ffffffffffffffffffffffffffffffffffffffff160361141f57600060019250925050611428565b80600092509250505b94509492505050565b60006004811115611445576114446122bc565b5b816004811115611458576114576122bc565b5b03156115fa5760016004811115611472576114716122bc565b5b816004811115611485576114846122bc565b5b036114c5576040517f08c379a00000000000000000000000000000000000000000000000000000000081526004016114bc90612337565b60405180910390fd5b600260048111156114d9576114d86122bc565b5b8160048111156114ec576114eb6122bc565b5b0361152c576040517f08c379a0000000000000000000000000000000000000000000000000000000008152600401611523906123a3565b60405180910390fd5b600360048111156115405761153f6122bc565b5b816004811115611553576115526122bc565b5b03611593576040517f08c379a000000000000000000000000000000000000000000000000000000000815260040161158a90612435565b60405180910390fd5b6004808111156115a6576115a56122bc565b5b8160048111156115b9576115b86122bc565b5b036115f9576040517f08c379a00000000000000000000000000000000000000000000000000000000081526004016115f0906124c7565b60405180910390fd5b5b50565b600081519050919050565b600082825260208201905092915050565b60005b8381101561163757808201518184015260208101905061161c565b60008484015250505050565b6000601f19601f8301169050919050565b600061165f826115fd565b6116698185611608565b9350611679818560208601611619565b61168281611643565b840191505092915050565b600060208201905081810360008301526116a78184611654565b905092915050565b600080fd5b600073ffffffffffffffffffffffffffffffffffffffff82169050919050565b60006116df826116b4565b9050919050565b6116ef816116d4565b81146116fa57600080fd5b50565b60008135905061170c816116e6565b92915050565b6000819050919050565b61172581611712565b811461173057600080fd5b50565b6000813590506117428161171c565b92915050565b6000806040838503121561175f5761175e6116af565b5b600061176d858286016116fd565b925050602061177e85828601611733565b9150509250929050565b60008115159050919050565b61179d81611788565b82525050565b60006020820190506117b86000830184611794565b92915050565b6117c781611712565b82525050565b60006020820190506117e260008301846117be565b92915050565b600080600060608486031215611801576118006116af565b5b600061180f868287016116fd565b9350506020611820868287016116fd565b925050604061183186828701611733565b9150509250925092565b600060ff82169050919050565b6118518161183b565b82525050565b600060208201905061186c6000830184611848565b92915050565b6000819050919050565b61188581611872565b82525050565b60006020820190506118a0600083018461187c565b92915050565b6000602082840312156118bc576118bb6116af565b5b60006118ca848285016116fd565b91505092915050565b6118dc816116d4565b82525050565b60006020820190506118f760008301846118d3565b92915050565b6119068161183b565b811461191157600080fd5b50565b600081359050611923816118fd565b92915050565b61193281611872565b811461193d57600080fd5b50565b60008135905061194f81611929565b92915050565b600080600080600080600060e0888a031215611974576119736116af565b5b60006119828a828b016116fd565b97505060206119938a828b016116fd565b96505060406119a48a828b01611733565b95505060606119b58a828b01611733565b94505060806119c68a828b01611914565b93505060a06119d78a828b01611940565b92505060c06119e88a828b01611940565b91505092959891949750929550565b60008060408385031215611a0e57611a0d6116af565b5b6000611a1c858286016116fd565b9250506020611a2d858286016116fd565b9150509250929050565b7f4e487b7100000000000000000000000000000000000000000000000000000000600052602260045260246000fd5b60006002820490506001821680611a7e57607f821691505b602082108103611a9157611a90611a37565b5b50919050565b7f4e487b7100000000000000000000000000000000000000000000000000000000600052601160045260246000fd5b6000611ad182611712565b9150611adc83611712565b9250828201905080821115611af457611af3611a97565b5b92915050565b7f45524332303a2064656372656173656420616c6c6f77616e63652062656c6f7760008201527f207a65726f000000000000000000000000000000000000000000000000000000602082015250565b6000611b56602583611608565b9150611b6182611afa565b604082019050919050565b60006020820190508181036000830152611b8581611b49565b9050919050565b7f45524332305065726d69743a206578706972656420646561646c696e65000000600082015250565b6000611bc2601d83611608565b9150611bcd82611b8c565b602082019050919050565b60006020820190508181036000830152611bf181611bb5565b9050919050565b600060c082019050611c0d600083018961187c565b611c1a60208301886118d3565b611c2760408301876118d3565b611c3460608301866117be565b611c4160808301856117be565b611c4e60a08301846117be565b979650505050505050565b7f45524332305065726d69743a20696e76616c6964207369676e61747572650000600082015250565b6000611c8f601e83611608565b9150611c9a82611c59565b602082019050919050565b60006020820190508181036000830152611cbe81611c82565b9050919050565b7f4f776e61626c653a206e6577206f776e657220697320746865207a65726f206160008201527f6464726573730000000000000000000000000000000000000000000000000000602082015250565b6000611d21602683611608565b9150611d2c82611cc5565b604082019050919050565b60006020820190508181036000830152611d5081611d14565b9050919050565b7f45524332303a20617070726f76652066726f6d20746865207a65726f2061646460008201527f7265737300000000000000000000000000000000000000000000000000000000602082015250565b6000611db3602483611608565b9150611dbe82611d57565b604082019050919050565b60006020820190508181036000830152611de281611da6565b9050919050565b7f45524332303a20617070726f766520746f20746865207a65726f20616464726560008201527f7373000000000000000000000000000000000000000000000000000000000000602082015250565b6000611e45602283611608565b9150611e5082611de9565b604082019050919050565b60006020820190508181036000830152611e7481611e38565b9050919050565b7f45524332303a20696e73756666696369656e7420616c6c6f77616e6365000000600082015250565b6000611eb1601d83611608565b9150611ebc82611e7b565b602082019050919050565b60006020820190508181036000830152611ee081611ea4565b9050919050565b7f45524332303a207472616e736665722066726f6d20746865207a65726f20616460008201527f6472657373000000000000000000000000000000000000000000000000000000602082015250565b6000611f43602583611608565b9150611f4e82611ee7565b604082019050919050565b60006020820190508181036000830152611f7281611f36565b9050919050565b7f45524332303a207472616e7366657220746f20746865207a65726f206164647260008201527f6573730000000000000000000000000000000000000000000000000000000000602082015250565b6000611fd5602383611608565b9150611fe082611f79565b604082019050919050565b6000602082019050818103600083015261200481611fc8565b9050919050565b7f45524332303a207472616e7366657220616d6f756e742065786365656473206260008201527f616c616e63650000000000000000000000000000000000000000000000000000602082015250565b6000612067602683611608565b91506120728261200b565b604082019050919050565b600060208201905081810360008301526120968161205a565b9050919050565b7f4f776e61626c653a2063616c6c6572206973206e6f7420746865206f776e6572600082015250565b60006120d3602083611608565b91506120de8261209d565b602082019050919050565b60006020820190508181036000830152612102816120c6565b9050919050565b7f45524332303a206d696e7420746f20746865207a65726f206164647265737300600082015250565b600061213f601f83611608565b915061214a82612109565b602082019050919050565b6000602082019050818103600083015261216e81612132565b9050919050565b600060a08201905061218a600083018861187c565b612197602083018761187c565b6121a4604083018661187c565b6121b160608301856117be565b6121be60808301846118d3565b9695505050505050565b600081905092915050565b7f1901000000000000000000000000000000000000000000000000000000000000600082015250565b60006122096002836121c8565b9150612214826121d3565b600282019050919050565b6000819050919050565b61223a61223582611872565b61221f565b82525050565b600061224b826121fc565b91506122578285612229565b6020820191506122678284612229565b6020820191508190509392505050565b600060808201905061228c600083018761187c565b6122996020830186611848565b6122a6604083018561187c565b6122b3606083018461187c565b95945050505050565b7f4e487b7100000000000000000000000000000000000000000000000000000000600052602160045260246000fd5b7f45434453413a20696e76616c6964207369676e61747572650000000000000000600082015250565b6000612321601883611608565b915061232c826122eb565b602082019050919050565b6000602082019050818103600083015261235081612314565b9050919050565b7f45434453413a20696e76616c6964207369676e6174757265206c656e67746800600082015250565b600061238d601f83611608565b915061239882612357565b602082019050919050565b600060208201905081810360008301526123bc81612380565b9050919050565b7f45434453413a20696e76616c6964207369676e6174757265202773272076616c60008201527f7565000000000000000000000000000000000000000000000000000000000000602082015250565b600061241f602283611608565b915061242a826123c3565b604082019050919050565b6000602082019050818103600083015261244e81612412565b9050919050565b7f45434453413a20696e76616c6964207369676e6174757265202776272076616c60008201527f7565000000000000000000000000000000000000000000000000000000000000602082015250565b60006124b1602283611608565b91506124bc82612455565b604082019050919050565b600060208201905081810360008301526124e0816124a4565b905091905056fea26469706673582212203f2585846828c319f46673fdc491cbc551f52d9e0ac6e97578a05d305cd2294764736f6c63430008110033a2646970667358221220b647d2d4035a5126ffcd21b44e7d395a07aa2ed1518c1b9f6ee3ddb25a5b39a664736f6c63430008110033",
  "linkReferences": {},
  "deployedLinkReferences": {}
}