{
  "_format": "hh-sol-artifact-1",
  "contractName": "RealEstate",
  "sourceName": "contracts/RealEstate.sol",
  "abi": [
    {
      "inputs": [],
      "stateMutability": "nonpayable",
      "type": "constructor"
    },
    {
      "anonymous": false,
      "inputs": [
        {
          "indexed": true,
          "internalType": "address",
          "name": "owner",
          "type": "address"
        },
        {
          "indexed": true,
          "internalType": "address",
          "name": "approved",
          "type": "address"
        },
        {
          "indexed": true,
          "internalType": "uint256",
          "name": "tokenId",
          "type": "uint256"
        }
      ],
      "name": "Approval",
      "type": "event"
    },
    {
      "anonymous": false,
      "inputs": [
        {
          "indexed": true,
          "internalType": "address",
          "name": "owner",
          "type": "address"
        },
        {
          "indexed": true,
          "internalType": "address",
          "name": "operator",
          "type": "address"
        },
        {
          "indexed": false,
          "internalType": "bool",
          "name": "approved",
          "type": "bool"
        }
      ],
      "name": "ApprovalForAll",
      "type": "event"
    },
    {
      "anonymous": false,
      "inputs": [
        {
          "indexed": false,
          "internalType": "uint256",
          "name": "_fromTokenId",
          "type": "uint256"
        },
        {
          "indexed": false,
          "internalType": "uint256",
          "name": "_toTokenId",
          "type": "uint256"
        }
      ],
      "name": "BatchMetadataUpdate",
      "type": "event"
    },
    {
      "anonymous": false,
      "inputs": [
        {
          "indexed": false,
          "internalType": "uint256",
          "name": "_tokenId",
          "type": "uint256"
        }
      ],
      "name": "MetadataUpdate",
      "type": "event"
    },
    {
      "anonymous": false,
      "inputs": [
        {
          "indexed": true,
          "internalType": "address",
          "name": "from",
          "type": "address"
        },
        {
          "indexed": true,
          "internalType": "address",
          "name": "to",
          "type": "address"
        },
        {
          "indexed": true,
          "internalType": "uint256",
          "name": "tokenId",
          "type": "uint256"
        }
      ],
      "name": "Transfer",
      "type": "event"
    },
    {
      "inputs": [
        {
          "internalType": "address",
          "name": "to",
          "type": "address"
        },
        {
          "internalType": "uint256",
          "name": "tokenId",
          "type": "uint256"
        }
      ],
      "name": "approve",
      "outputs": [],
      "stateMutability": "nonpayable",
      "type": "function"
    },
    {
      "inputs": [
        {
          "internalType": "address",
          "name": "owner",
          "type": "address"
        }
      ],
      "name": "balanceOf",
      "outputs": [
        {
          "internalType": "uint256",
          "name": "",
          "type": "uint256"
        }
      ],
      "stateMutability": "view",
      "type": "function"
    },
    {
      "inputs": [
        {
          "internalType": "uint256",
          "name": "tokenId",
          "type": "uint256"
        }
      ],
      "name": "getApproved",
      "outputs": [
        {
          "internalType": "address",
          "name": "",
          "type": "address"
        }
      ],
      "stateMutability": "view",
      "type": "function"
    },
    {
      "inputs": [
        {
          "internalType": "address",
          "name": "owner",
          "type": "address"
        },
        {
          "internalType": "address",
          "name": "operator",
          "type": "address"
        }
      ],
      "name": "isApprovedForAll",
      "outputs": [
        {
          "internalType": "bool",
          "name": "",
          "type": "bool"
        }
      ],
      "stateMutability": "view",
      "type": "function"
    },
    {
      "inputs": [
        {
          "internalType": "string",
          "name": "tokenURI",
          "type": "string"
        }
      ],
      "name": "mint",
      "outputs": [
        {
          "internalType": "uint256",
          "name": "",
          "type": "uint256"
        }
      ],
      "stateMutability": "nonpayable",
      "type": "function"
    },
    {
      "inputs": [],
      "name": "name",
      "outputs": [
        {
          "internalType": "string",
          "name": "",
          "type": "string"
        }
      ],
      "stateMutability": "view",
      "type": "function"
    },
    {
      "inputs": [
        {
          "internalType": "uint256",
          "name": "tokenId",
          "type": "uint256"
        }
      ],
      "name": "ownerOf",
      "outputs": [
        {
          "internalType": "address",
          "name": "",
          "type": "address"
        }
      ],
      "stateMutability": "view",
      "type": "function"
    },
    {
      "inputs": [
        {
          "internalType": "address",
          "name": "from",
          "type": "address"
        },
        {
          "internalType": "address",
          "name": "to",
          "type": "address"
        },
        {
          "internalType": "uint256",
          "name": "tokenId",
          "type": "uint256"
        }
      ],
      "name": "safeTransferFrom",
      "outputs": [],
      "stateMutability": "nonpayable",
      "type": "function"
    },
    {
      "inputs": [
        {
          "internalType": "address",
          "name": "from",
          "type": "address"
        },
        {
          "internalType": "address",
          "name": "to",
          "type": "address"
        },
        {
          "internalType": "uint256",
          "name": "tokenId",
          "type": "uint256"
        },
        {
          "internalType": "bytes",
          "name": "data",
          "type": "bytes"
        }
      ],
      "name": "safeTransferFrom",
      "outputs": [],
      "stateMutability": "nonpayable",
      "type": "function"
    },
    {
      "inputs": [
        {
          "internalType": "address",
          "name": "operator",
          "type": "address"
        },
        {
          "internalType": "bool",
          "name": "approved",
          "type": "bool"
        }
      ],
      "name": "setApprovalForAll",
      "outputs": [],
      "stateMutability": "nonpayable",
      "type": "function"
    },
    {
      "inputs": [
        {
          "internalType": "bytes4",
          "name": "interfaceId",
          "type": "bytes4"
        }
      ],
      "name": "supportsInterface",
      "outputs": [
        {
          "internalType": "bool",
          "name": "",
          "type": "bool"
        }
      ],
      "stateMutability": "view",
      "type": "function"
    },
    {
      "inputs": [],
      "name": "symbol",
      "outputs": [
        {
          "internalType": "string",
          "name": "",
          "type": "string"
        }
      ],
      "stateMutability": "view",
      "type": "function"
    },
    {
      "inputs": [
        {
          "internalType": "uint256",
          "name": "tokenId",
          "type": "uint256"
        }
      ],
      "name": "tokenURI",
      "outputs": [
        {
          "internalType": "string",
          "name": "",
          "type": "string"
        }
      ],
      "stateMutability": "view",
      "type": "function"
    },
    {
      "inputs": [],
      "name": "totalSupply",
      "outputs": [
        {
          "internalType": "uint256",
          "name": "",
          "type": "uint256"
        }
      ],
      "stateMutability": "view",
      "type": "function"
    },
    {
      "inputs": [
        {
          "internalType": "address",
          "name": "from",
          "type": "address"
        },
        {
          "internalType": "address",
          "name": "to",
          "type": "address"
        },
        {
          "internalType": "uint256",
          "name": "tokenId",
          "type": "uint256"
        }
      ],
      "name": "transferFrom",
      "outputs": [],
      "stateMutability": "nonpayable",
      "type": "function"
    }
  ],
  "bytecode": "0x60806040523480156200001157600080fd5b506040518060400160405280600b81526020017f5265616c204573746174650000000000000000000000000000000000000000008152506040518060400160405280600481526020017f5245414c0000000000000000000000000000000000000000000000000000000081525081600090816200008f919062000324565b508060019081620000a1919062000324565b5050506200040b565b600081519050919050565b7f4e487b7100000000000000000000000000000000000000000000000000000000600052604160045260246000fd5b7f4e487b7100000000000000000000000000000000000000000000000000000000600052602260045260246000fd5b600060028204905060018216806200012c57607f821691505b602082108103620001425762000141620000e4565b5b50919050565b60008190508160005260206000209050919050565b60006020601f8301049050919050565b600082821b905092915050565b600060088302620001ac7fffffffffffffffffffffffffffffffffffffffffffffffffffffffffffffffff826200016d565b620001b886836200016d565b95508019841693508086168417925050509392505050565b6000819050919050565b6000819050919050565b600062000205620001ff620001f984620001d0565b620001da565b620001d0565b9050919050565b6000819050919050565b6200022183620001e4565b6200023962000230826200020c565b8484546200017a565b825550505050565b600090565b6200025062000241565b6200025d81848462000216565b505050565b5b8181101562000285576200027960008262000246565b60018101905062000263565b5050565b601f821115620002d4576200029e8162000148565b620002a9846200015d565b81016020851015620002b9578190505b620002d1620002c8856200015d565b83018262000262565b50505b505050565b600082821c905092915050565b6000620002f960001984600802620002d9565b1980831691505092915050565b6000620003148383620002e6565b9150826002028217905092915050565b6200032f82620000aa565b67ffffffffffffffff8111156200034b576200034a620000b5565b5b62000357825462000113565b6200036482828562000289565b600060209050601f8311600181146200039c576000841562000387578287015190505b62000393858262000306565b86555062000403565b601f198416620003ac8662000148565b60005b82811015620003d657848901518255600182019150602085019450602081019050620003af565b86831015620003f65784890151620003f2601f891682620002e6565b8355505b6001600288020188555050505b505050505050565b612b06806200041b6000396000f3fe608060405234801561001057600080fd5b50600436106100f55760003560e01c80636352211e11610097578063b88d4fde11610066578063b88d4fde14610284578063c87b56dd146102a0578063d85d3d27146102d0578063e985e9c514610300576100f5565b80636352211e146101ea57806370a082311461021a57806395d89b411461024a578063a22cb46514610268576100f5565b8063095ea7b3116100d3578063095ea7b31461017857806318160ddd1461019457806323b872dd146101b257806342842e0e146101ce576100f5565b806301ffc9a7146100fa57806306fdde031461012a578063081812fc14610148575b600080fd5b610114600480360381019061010f9190611a08565b610330565b6040516101219190611a50565b60405180910390f35b610132610391565b60405161013f9190611afb565b60405180910390f35b610162600480360381019061015d9190611b53565b610423565b60405161016f9190611bc1565b60405180910390f35b610192600480360381019061018d9190611c08565b610469565b005b61019c610580565b6040516101a99190611c57565b60405180910390f35b6101cc60048036038101906101c79190611c72565b610591565b005b6101e860048036038101906101e39190611c72565b6105f1565b005b61020460048036038101906101ff9190611b53565b610611565b6040516102119190611bc1565b60405180910390f35b610234600480360381019061022f9190611cc5565b610697565b6040516102419190611c57565b60405180910390f35b61025261074e565b60405161025f9190611afb565b60405180910390f35b610282600480360381019061027d9190611d1e565b6107e0565b005b61029e60048036038101906102999190611e93565b6107f6565b005b6102ba60048036038101906102b59190611b53565b610858565b6040516102c79190611afb565b60405180910390f35b6102ea60048036038101906102e59190611fb7565b61096a565b6040516102f79190611c57565b60405180910390f35b61031a60048036038101906103159190612000565b6109a1565b6040516103279190611a50565b60405180910390f35b6000634906490660e01b7bffffffffffffffffffffffffffffffffffffffffffffffffffffffff1916827bffffffffffffffffffffffffffffffffffffffffffffffffffffffff1916148061038a575061038982610a35565b5b9050919050565b6060600080546103a09061206f565b80601f01602080910402602001604051908101604052809291908181526020018280546103cc9061206f565b80156104195780601f106103ee57610100808354040283529160200191610419565b820191906000526020600020905b8154815290600101906020018083116103fc57829003601f168201915b5050505050905090565b600061042e82610b17565b6004600083815260200190815260200160002060009054906101000a900473ffffffffffffffffffffffffffffffffffffffff169050919050565b600061047482610611565b90508073ffffffffffffffffffffffffffffffffffffffff168373ffffffffffffffffffffffffffffffffffffffff16036104e4576040517f08c379a00000000000000000000000000000000000000000000000000000000081526004016104db90612112565b60405180910390fd5b8073ffffffffffffffffffffffffffffffffffffffff16610503610b62565b73ffffffffffffffffffffffffffffffffffffffff16148061053257506105318161052c610b62565b6109a1565b5b610571576040517f08c379a0000000000000000000000000000000000000000000000000000000008152600401610568906121a4565b60405180910390fd5b61057b8383610b6a565b505050565b600061058c6007610c23565b905090565b6105a261059c610b62565b82610c31565b6105e1576040517f08c379a00000000000000000000000000000000000000000000000000000000081526004016105d890612236565b60405180910390fd5b6105ec838383610cc6565b505050565b61060c838383604051806020016040528060008152506107f6565b505050565b60008061061d83610fbf565b9050600073ffffffffffffffffffffffffffffffffffffffff168173ffffffffffffffffffffffffffffffffffffffff160361068e576040517f08c379a0000000000000000000000000000000000000000000000000000000008152600401610685906122a2565b60405180910390fd5b80915050919050565b60008073ffffffffffffffffffffffffffffffffffffffff168273ffffffffffffffffffffffffffffffffffffffff1603610707576040517f08c379a00000000000000000000000000000000000000000000000000000000081526004016106fe90612334565b60405180910390fd5b600360008373ffffffffffffffffffffffffffffffffffffffff1673ffffffffffffffffffffffffffffffffffffffff168152602001908152602001600020549050919050565b60606001805461075d9061206f565b80601f01602080910402602001604051908101604052809291908181526020018280546107899061206f565b80156107d65780601f106107ab576101008083540402835291602001916107d6565b820191906000526020600020905b8154815290600101906020018083116107b957829003601f168201915b5050505050905090565b6107f26107eb610b62565b8383610ffc565b5050565b610807610801610b62565b83610c31565b610846576040517f08c379a000000000000000000000000000000000000000000000000000000000815260040161083d90612236565b60405180910390fd5b61085284848484611168565b50505050565b606061086382610b17565b60006006600084815260200190815260200160002080546108839061206f565b80601f01602080910402602001604051908101604052809291908181526020018280546108af9061206f565b80156108fc5780601f106108d1576101008083540402835291602001916108fc565b820191906000526020600020905b8154815290600101906020018083116108df57829003601f168201915b50505050509050600061090d6111c4565b90506000815103610922578192505050610965565b60008251111561095757808260405160200161093f929190612390565b60405160208183030381529060405292505050610965565b610960846111db565b925050505b919050565b60006109766007611243565b60006109826007610c23565b905061098e3382611259565b6109988184611476565b80915050919050565b6000600560008473ffffffffffffffffffffffffffffffffffffffff1673ffffffffffffffffffffffffffffffffffffffff16815260200190815260200160002060008373ffffffffffffffffffffffffffffffffffffffff1673ffffffffffffffffffffffffffffffffffffffff16815260200190815260200160002060009054906101000a900460ff16905092915050565b60007f80ac58cd000000000000000000000000000000000000000000000000000000007bffffffffffffffffffffffffffffffffffffffffffffffffffffffff1916827bffffffffffffffffffffffffffffffffffffffffffffffffffffffff19161480610b0057507f5b5e139f000000000000000000000000000000000000000000000000000000007bffffffffffffffffffffffffffffffffffffffffffffffffffffffff1916827bffffffffffffffffffffffffffffffffffffffffffffffffffffffff1916145b80610b105750610b0f8261151a565b5b9050919050565b610b2081611584565b610b5f576040517f08c379a0000000000000000000000000000000000000000000000000000000008152600401610b56906122a2565b60405180910390fd5b50565b600033905090565b816004600083815260200190815260200160002060006101000a81548173ffffffffffffffffffffffffffffffffffffffff021916908373ffffffffffffffffffffffffffffffffffffffff160217905550808273ffffffffffffffffffffffffffffffffffffffff16610bdd83610611565b73ffffffffffffffffffffffffffffffffffffffff167f8c5be1e5ebec7d5bd14f71427d1e84f3dd0314c0f7b2291e5b200ac8c7c3b92560405160405180910390a45050565b600081600001549050919050565b600080610c3d83610611565b90508073ffffffffffffffffffffffffffffffffffffffff168473ffffffffffffffffffffffffffffffffffffffff161480610c7f5750610c7e81856109a1565b5b80610cbd57508373ffffffffffffffffffffffffffffffffffffffff16610ca584610423565b73ffffffffffffffffffffffffffffffffffffffff16145b91505092915050565b8273ffffffffffffffffffffffffffffffffffffffff16610ce682610611565b73ffffffffffffffffffffffffffffffffffffffff1614610d3c576040517f08c379a0000000000000000000000000000000000000000000000000000000008152600401610d3390612426565b60405180910390fd5b600073ffffffffffffffffffffffffffffffffffffffff168273ffffffffffffffffffffffffffffffffffffffff1603610dab576040517f08c379a0000000000000000000000000000000000000000000000000000000008152600401610da2906124b8565b60405180910390fd5b610db883838360016115c5565b8273ffffffffffffffffffffffffffffffffffffffff16610dd882610611565b73ffffffffffffffffffffffffffffffffffffffff1614610e2e576040517f08c379a0000000000000000000000000000000000000000000000000000000008152600401610e2590612426565b60405180910390fd5b6004600082815260200190815260200160002060006101000a81549073ffffffffffffffffffffffffffffffffffffffff02191690556001600360008573ffffffffffffffffffffffffffffffffffffffff1673ffffffffffffffffffffffffffffffffffffffff168152602001908152602001600020600082825403925050819055506001600360008473ffffffffffffffffffffffffffffffffffffffff1673ffffffffffffffffffffffffffffffffffffffff16815260200190815260200160002060008282540192505081905550816002600083815260200190815260200160002060006101000a81548173ffffffffffffffffffffffffffffffffffffffff021916908373ffffffffffffffffffffffffffffffffffffffff160217905550808273ffffffffffffffffffffffffffffffffffffffff168473ffffffffffffffffffffffffffffffffffffffff167fddf252ad1be2c89b69c2b068fc378daa952ba7f163c4a11628f55a4df523b3ef60405160405180910390a4610fba83838360016115cb565b505050565b60006002600083815260200190815260200160002060009054906101000a900473ffffffffffffffffffffffffffffffffffffffff169050919050565b8173ffffffffffffffffffffffffffffffffffffffff168373ffffffffffffffffffffffffffffffffffffffff160361106a576040517f08c379a000000000000000000000000000000000000000000000000000000000815260040161106190612524565b60405180910390fd5b80600560008573ffffffffffffffffffffffffffffffffffffffff1673ffffffffffffffffffffffffffffffffffffffff16815260200190815260200160002060008473ffffffffffffffffffffffffffffffffffffffff1673ffffffffffffffffffffffffffffffffffffffff16815260200190815260200160002060006101000a81548160ff0219169083151502179055508173ffffffffffffffffffffffffffffffffffffffff168373ffffffffffffffffffffffffffffffffffffffff167f17307eab39ab6107e8899845ad3d59bd9653f200f220920489ca2b5937696c318360405161115b9190611a50565b60405180910390a3505050565b611173848484610cc6565b61117f848484846115d1565b6111be576040517f08c379a00000000000000000000000000000000000000000000000000000000081526004016111b5906125b6565b60405180910390fd5b50505050565b606060405180602001604052806000815250905090565b60606111e682610b17565b60006111f06111c4565b90506000815111611210576040518060200160405280600081525061123b565b8061121a84611758565b60405160200161122b929190612390565b6040516020818303038152906040525b915050919050565b6001816000016000828254019250508190555050565b600073ffffffffffffffffffffffffffffffffffffffff168273ffffffffffffffffffffffffffffffffffffffff16036112c8576040517f08c379a00000000000000000000000000000000000000000000000000000000081526004016112bf90612622565b60405180910390fd5b6112d181611584565b15611311576040517f08c379a00000000000000000000000000000000000000000000000000000000081526004016113089061268e565b60405180910390fd5b61131f6000838360016115c5565b61132881611584565b15611368576040517f08c379a000000000000000000000000000000000000000000000000000000000815260040161135f9061268e565b60405180910390fd5b6001600360008473ffffffffffffffffffffffffffffffffffffffff1673ffffffffffffffffffffffffffffffffffffffff16815260200190815260200160002060008282540192505081905550816002600083815260200190815260200160002060006101000a81548173ffffffffffffffffffffffffffffffffffffffff021916908373ffffffffffffffffffffffffffffffffffffffff160217905550808273ffffffffffffffffffffffffffffffffffffffff16600073ffffffffffffffffffffffffffffffffffffffff167fddf252ad1be2c89b69c2b068fc378daa952ba7f163c4a11628f55a4df523b3ef60405160405180910390a46114726000838360016115cb565b5050565b61147f82611584565b6114be576040517f08c379a00000000000000000000000000000000000000000000000000000000081526004016114b590612720565b60405180910390fd5b806006600084815260200190815260200160002090816114de91906128ec565b507ff8e1a15aba9398e019f0b49df1a4fde98ee17ae345cb5f6b5e2c27f5033e8ce78260405161150e9190611c57565b60405180910390a15050565b60007f01ffc9a7000000000000000000000000000000000000000000000000000000007bffffffffffffffffffffffffffffffffffffffffffffffffffffffff1916827bffffffffffffffffffffffffffffffffffffffffffffffffffffffff1916149050919050565b60008073ffffffffffffffffffffffffffffffffffffffff166115a683610fbf565b73ffffffffffffffffffffffffffffffffffffffff1614159050919050565b50505050565b50505050565b60006115f28473ffffffffffffffffffffffffffffffffffffffff16611826565b1561174b578373ffffffffffffffffffffffffffffffffffffffff1663150b7a0261161b610b62565b8786866040518563ffffffff1660e01b815260040161163d9493929190612a13565b6020604051808303816000875af192505050801561167957506040513d601f19601f820116820180604052508101906116769190612a74565b60015b6116fb573d80600081146116a9576040519150601f19603f3d011682016040523d82523d6000602084013e6116ae565b606091505b5060008151036116f3576040517f08c379a00000000000000000000000000000000000000000000000000000000081526004016116ea906125b6565b60405180910390fd5b805181602001fd5b63150b7a0260e01b7bffffffffffffffffffffffffffffffffffffffffffffffffffffffff1916817bffffffffffffffffffffffffffffffffffffffffffffffffffffffff191614915050611750565b600190505b949350505050565b60606000600161176784611849565b01905060008167ffffffffffffffff81111561178657611785611d68565b5b6040519080825280601f01601f1916602001820160405280156117b85781602001600182028036833780820191505090505b509050600082602001820190505b60011561181b578080600190039150507f3031323334353637383961626364656600000000000000000000000000000000600a86061a8153600a858161180f5761180e612aa1565b5b049450600085036117c6575b819350505050919050565b6000808273ffffffffffffffffffffffffffffffffffffffff163b119050919050565b600080600090507a184f03e93ff9f4daa797ed6e38ed64bf6a1f01000000000000000083106118a7577a184f03e93ff9f4daa797ed6e38ed64bf6a1f010000000000000000838161189d5761189c612aa1565b5b0492506040810190505b6d04ee2d6d415b85acef810000000083106118e4576d04ee2d6d415b85acef810000000083816118da576118d9612aa1565b5b0492506020810190505b662386f26fc10000831061191357662386f26fc10000838161190957611908612aa1565b5b0492506010810190505b6305f5e100831061193c576305f5e100838161193257611931612aa1565b5b0492506008810190505b612710831061196157612710838161195757611956612aa1565b5b0492506004810190505b60648310611984576064838161197a57611979612aa1565b5b0492506002810190505b600a8310611993576001810190505b80915050919050565b6000604051905090565b600080fd5b600080fd5b60007fffffffff0000000000000000000000000000000000000000000000000000000082169050919050565b6119e5816119b0565b81146119f057600080fd5b50565b600081359050611a02816119dc565b92915050565b600060208284031215611a1e57611a1d6119a6565b5b6000611a2c848285016119f3565b91505092915050565b60008115159050919050565b611a4a81611a35565b82525050565b6000602082019050611a656000830184611a41565b92915050565b600081519050919050565b600082825260208201905092915050565b60005b83811015611aa5578082015181840152602081019050611a8a565b60008484015250505050565b6000601f19601f8301169050919050565b6000611acd82611a6b565b611ad78185611a76565b9350611ae7818560208601611a87565b611af081611ab1565b840191505092915050565b60006020820190508181036000830152611b158184611ac2565b905092915050565b6000819050919050565b611b3081611b1d565b8114611b3b57600080fd5b50565b600081359050611b4d81611b27565b92915050565b600060208284031215611b6957611b686119a6565b5b6000611b7784828501611b3e565b91505092915050565b600073ffffffffffffffffffffffffffffffffffffffff82169050919050565b6000611bab82611b80565b9050919050565b611bbb81611ba0565b82525050565b6000602082019050611bd66000830184611bb2565b92915050565b611be581611ba0565b8114611bf057600080fd5b50565b600081359050611c0281611bdc565b92915050565b60008060408385031215611c1f57611c1e6119a6565b5b6000611c2d85828601611bf3565b9250506020611c3e85828601611b3e565b9150509250929050565b611c5181611b1d565b82525050565b6000602082019050611c6c6000830184611c48565b92915050565b600080600060608486031215611c8b57611c8a6119a6565b5b6000611c9986828701611bf3565b9350506020611caa86828701611bf3565b9250506040611cbb86828701611b3e565b9150509250925092565b600060208284031215611cdb57611cda6119a6565b5b6000611ce984828501611bf3565b91505092915050565b611cfb81611a35565b8114611d0657600080fd5b50565b600081359050611d1881611cf2565b92915050565b60008060408385031215611d3557611d346119a6565b5b6000611d4385828601611bf3565b9250506020611d5485828601611d09565b9150509250929050565b600080fd5b600080fd5b7f4e487b7100000000000000000000000000000000000000000000000000000000600052604160045260246000fd5b611da082611ab1565b810181811067ffffffffffffffff82111715611dbf57611dbe611d68565b5b80604052505050565b6000611dd261199c565b9050611dde8282611d97565b919050565b600067ffffffffffffffff821115611dfe57611dfd611d68565b5b611e0782611ab1565b9050602081019050919050565b82818337600083830152505050565b6000611e36611e3184611de3565b611dc8565b905082815260208101848484011115611e5257611e51611d63565b5b611e5d848285611e14565b509392505050565b600082601f830112611e7a57611e79611d5e565b5b8135611e8a848260208601611e23565b91505092915050565b60008060008060808587031215611ead57611eac6119a6565b5b6000611ebb87828801611bf3565b9450506020611ecc87828801611bf3565b9350506040611edd87828801611b3e565b925050606085013567ffffffffffffffff811115611efe57611efd6119ab565b5b611f0a87828801611e65565b91505092959194509250565b600067ffffffffffffffff821115611f3157611f30611d68565b5b611f3a82611ab1565b9050602081019050919050565b6000611f5a611f5584611f16565b611dc8565b905082815260208101848484011115611f7657611f75611d63565b5b611f81848285611e14565b509392505050565b600082601f830112611f9e57611f9d611d5e565b5b8135611fae848260208601611f47565b91505092915050565b600060208284031215611fcd57611fcc6119a6565b5b600082013567ffffffffffffffff811115611feb57611fea6119ab565b5b611ff784828501611f89565b91505092915050565b60008060408385031215612017576120166119a6565b5b600061202585828601611bf3565b925050602061203685828601611bf3565b9150509250929050565b7f4e487b7100000000000000000000000000000000000000000000000000000000600052602260045260246000fd5b6000600282049050600182168061208757607f821691505b60208210810361209a57612099612040565b5b50919050565b7f4552433732313a20617070726f76616c20746f2063757272656e74206f776e6560008201527f7200000000000000000000000000000000000000000000000000000000000000602082015250565b60006120fc602183611a76565b9150612107826120a0565b604082019050919050565b6000602082019050818103600083015261212b816120ef565b9050919050565b7f4552433732313a20617070726f76652063616c6c6572206973206e6f7420746f60008201527f6b656e206f776e6572206f7220617070726f76656420666f7220616c6c000000602082015250565b600061218e603d83611a76565b915061219982612132565b604082019050919050565b600060208201905081810360008301526121bd81612181565b9050919050565b7f4552433732313a2063616c6c6572206973206e6f7420746f6b656e206f776e6560008201527f72206f7220617070726f76656400000000000000000000000000000000000000602082015250565b6000612220602d83611a76565b915061222b826121c4565b604082019050919050565b6000602082019050818103600083015261224f81612213565b9050919050565b7f4552433732313a20696e76616c696420746f6b656e2049440000000000000000600082015250565b600061228c601883611a76565b915061229782612256565b602082019050919050565b600060208201905081810360008301526122bb8161227f565b9050919050565b7f4552433732313a2061646472657373207a65726f206973206e6f74206120766160008201527f6c6964206f776e65720000000000000000000000000000000000000000000000602082015250565b600061231e602983611a76565b9150612329826122c2565b604082019050919050565b6000602082019050818103600083015261234d81612311565b9050919050565b600081905092915050565b600061236a82611a6b565b6123748185612354565b9350612384818560208601611a87565b80840191505092915050565b600061239c828561235f565b91506123a8828461235f565b91508190509392505050565b7f4552433732313a207472616e736665722066726f6d20696e636f72726563742060008201527f6f776e6572000000000000000000000000000000000000000000000000000000602082015250565b6000612410602583611a76565b915061241b826123b4565b604082019050919050565b6000602082019050818103600083015261243f81612403565b9050919050565b7f4552433732313a207472616e7366657220746f20746865207a65726f2061646460008201527f7265737300000000000000000000000000000000000000000000000000000000602082015250565b60006124a2602483611a76565b91506124ad82612446565b604082019050919050565b600060208201905081810360008301526124d181612495565b9050919050565b7f4552433732313a20617070726f766520746f2063616c6c657200000000000000600082015250565b600061250e601983611a76565b9150612519826124d8565b602082019050919050565b6000602082019050818103600083015261253d81612501565b9050919050565b7f4552433732313a207472616e7366657220746f206e6f6e20455243373231526560008201527f63656976657220696d706c656d656e7465720000000000000000000000000000602082015250565b60006125a0603283611a76565b91506125ab82612544565b604082019050919050565b600060208201905081810360008301526125cf81612593565b9050919050565b7f4552433732313a206d696e7420746f20746865207a65726f2061646472657373600082015250565b600061260c602083611a76565b9150612617826125d6565b602082019050919050565b6000602082019050818103600083015261263b816125ff565b9050919050565b7f4552433732313a20746f6b656e20616c7265616479206d696e74656400000000600082015250565b6000612678601c83611a76565b915061268382612642565b602082019050919050565b600060208201905081810360008301526126a78161266b565b9050919050565b7f45524337323155524953746f726167653a2055524920736574206f66206e6f6e60008201527f6578697374656e7420746f6b656e000000000000000000000000000000000000602082015250565b600061270a602e83611a76565b9150612715826126ae565b604082019050919050565b60006020820190508181036000830152612739816126fd565b9050919050565b60008190508160005260206000209050919050565b60006020601f8301049050919050565b600082821b905092915050565b6000600883026127a27fffffffffffffffffffffffffffffffffffffffffffffffffffffffffffffffff82612765565b6127ac8683612765565b95508019841693508086168417925050509392505050565b6000819050919050565b60006127e96127e46127df84611b1d565b6127c4565b611b1d565b9050919050565b6000819050919050565b612803836127ce565b61281761280f826127f0565b848454612772565b825550505050565b600090565b61282c61281f565b6128378184846127fa565b505050565b5b8181101561285b57612850600082612824565b60018101905061283d565b5050565b601f8211156128a05761287181612740565b61287a84612755565b81016020851015612889578190505b61289d61289585612755565b83018261283c565b50505b505050565b600082821c905092915050565b60006128c3600019846008026128a5565b1980831691505092915050565b60006128dc83836128b2565b9150826002028217905092915050565b6128f582611a6b565b67ffffffffffffffff81111561290e5761290d611d68565b5b612918825461206f565b61292382828561285f565b600060209050601f8311600181146129565760008415612944578287015190505b61294e85826128d0565b8655506129b6565b601f19841661296486612740565b60005b8281101561298c57848901518255600182019150602085019450602081019050612967565b868310156129a957848901516129a5601f8916826128b2565b8355505b6001600288020188555050505b505050505050565b600081519050919050565b600082825260208201905092915050565b60006129e5826129be565b6129ef81856129c9565b93506129ff818560208601611a87565b612a0881611ab1565b840191505092915050565b6000608082019050612a286000830187611bb2565b612a356020830186611bb2565b612a426040830185611c48565b8181036060830152612a5481846129da565b905095945050505050565b600081519050612a6e816119dc565b92915050565b600060208284031215612a8a57612a896119a6565b5b6000612a9884828501612a5f565b91505092915050565b7f4e487b7100000000000000000000000000000000000000000000000000000000600052601260045260246000fdfea2646970667358221220e6bd069eee3c3bab63f7825e2d4b22a14f5046c171b2ed023272d02be35f5c8564736f6c63430008110033",
  "linkReferences": {},
  "deployedLinkReferences": {}
}